:020000040800F2
:10000000800C0020A9010008B71B0008351B000860
:10001000B51B0008390200087D2800080000000018
:10002000000000000000000000000000ED200008BB
:100030003B02000800000000431F0008EF200008FA
:10004000C3010008C3010008C3010008C301000880
:10005000C3010008C3010008C3010008C301000870
:10006000C3010008C3010008C3010008C301000860
:10007000C3010008C3010008C3010008C301000850
:10008000C3010008C3010008C3010008C301000840
:10009000C3010008C3010008C3010008C301000830
:1000A000C3010008C3010008C3010008C301000820
:1000B000C3010008C3010008C3010008C301000810
:1000C000C3010008C3010008C3010008C301000800
:1000D000C3010008C3010008C3010008C3010008F0
:1000E000C3010008C3010008C3010008C3010008E0
:1000F000C3010008C3010008C3010008C3010008D0
:10010000C30100080000000000000000C301000857
:10011000C3010008C3010008C3010008C3010008AF
:10012000C3010008C3010008C3010008C30100089F
:10013000C3010008C3010008000000000000000027
:10014000C3010008C3010008C3010008000000004B
:10015000000000000000000000000000000000009F
:10016000C3010008C3010008C3010008712800088A
:10017000C3010008C3010008C3010008C30100084F
:10018000C3010008C30100080000000000000000D7
:10019000C3010008DFF80CD000F03CF8004800472D
:1001A0005D2A0008800C002006488047064800476A
:1001B000FEE7FEE7FEE7FEE7FEE7FEE7FEE7FEE717
:1001C000FEE7FEE7852100089501000840EA0103EB
:1001D0009B0703D009E008C9121F08C0042AFAD2FD
:1001E00003E011F8013B00F8013B521EF9D27047C1
:1001F000D2B201E000F8012B491EFBD27047002269
:10020000F6E710B513460A4604461946FFF7F0FF15
:10021000204610BD064C074D06E0E06840F00103A3
:1002200094E8070098471034AC42F6D3FFF7B6FFC6
:100230003C2D00085C2D0008FEE770472DE9F84FC3
:10024000DFF8A0B1002301274FF0030A4FF00F0998
:100250000BF1040EBEE000BF07FA03F634402200A3
:1002600072D04C68022C01D0122C12D1DC0800EBA9
:10027000840CDCF820405D07ED0E09FA05F824EA4D
:100280000804D1F8108008FA05F848EA0408CCF808
:100290002080D0F800805D0091F804C00AFA05F4CF
:1002A0000CF0030C28EA04080CFA05FC4CEA080CD4
:1002B000C0F800C0D1F804C0BCF1010F08D0BCF1F7
:1002C000020F05D0BCF1110F02D0BCF1120F16D1F4
:1002D000D0F808C0D1F80C802CEA040C08FA05F814
:1002E00048EA0C08C0F80880D0F804C02CEA060CD4
:1002F0000E79C6F300169E4046EA0C064660C668B4
:10030000A6438C68AC403443C4604C68E40060D5BC
:10031000354CA56945F00105A561A46923F00305E5
:1003200004F001040094314C2E19B4689D074FEA83
:10033000157C09FA0CF5AC43B0F1904F05D02C4D6B
:10034000A84204D101251CE043E0002519E0294D15
:10035000A84201D1022514E0274DA84201D103256E
:100360000FE0264DA84201D104250AE0244DA84201
:1003700001D1052505E0234DA84201D1062500E065
:10038000072505FA0CF52543B560DBF800405D460E
:100390004E689443F60300D514432C60DEF8004009
:1003A00075464E689443B60300D514432C600D4D3A
:1003B00008352C684E689443F60200D514432C602F
:1003C000084D0C352C684E689443B60200D5144392
:1003D0002C605B1C0A681446DA407FF43DAFBDE830
:1003E000F88F0000000401400010024000000140AE
:1003F0000004004800080048000C004800100048B5
:1004000000140048001800480AB1816170478162F9
:10041000704700000148006870470000000000209D
:1004200002480168491C016070470000000000207C
:10043000074810B5016841F010010160032000F089
:1004400075F8002000F006F800F018F8002010BD44
:100450000020024010B5044607484FF47A71006846
:10046000B0FBF1F001F04EFB00222146501E00F0DF
:100470003DF8002010BD0000440000201A4808B5D7
:10048000816941F001018161806900F00100009003
:10049000032000F04BF8002211466FF00B0000F033
:1004A00025F8002211466FF00A0000F01FF8002224
:1004B00011466FF0090000F019F800221146501F94
:1004C00000F014F800221146101F00F00FF800226F
:1004D0001146901E00F00AF80022BDE808401146BF
:1004E000501E00F003B8000000100240F0B40E4BA4
:1004F0001B680C46C3F30223C3F10705042D00D982
:100500000425191D072901D2002300E0DB1E012666
:1005100006FA05F1491E214099409E40761E16407C
:100520003143F0BC01F048BB0CED00E0064900F09F
:10053000070208684FF6FF03184040EA0220034A0A
:1005400010430860704700000CED00E00000FA0561
:10055000C1EBC10200EB8202D0F8A403926B01F060
:1005600001BFC1EBC10200EB8202D0F8A403D2F8B4
:10057000DC2101F04CBFF0B50A0601F07F0305D580
:10058000C3EBC30200EB8202283205E0C1EBC102DB
:1005900000EB820202F5E672002494701370C90920
:1005A000517090F87013012921D0012180F8701347
:1005B000517803680029117848F68F7648F2800553
:1005C00033F8217015D07F0607D533F821703740F6
:1005D00048F2C006374323F821701278036833F8D5
:1005E000221048F6BF76314081F0300114E002203D
:1005F000F0BD7F0407D533F8217037404CF28006F8
:10060000374323F821701278036833F822104BF631
:100610008F76314081F44051294323F8221080F82D
:1006200070430020F0BD2DE9F04F01F07F05C5EBD0
:10063000C5040E0600EB840401D5283401E004F55E
:10064000E674C90925706170E260E37090F8701378
:1006500001290DD0012180F87013E27848F68F113E
:100660004AB1012A79D0022A0DD0032A1CD112E006
:100670000220BDE8F08F2378026832F823500D4045
:1006800045F400710EE02378026832F823500D40E3
:1006900022F8235008E02378026832F823500D40F6
:1006A00045F4C06122F823102378066836F82350F9
:1006B00048F68F710D4048F2800215431D4326F81D
:1006C0002350A67A4FF4806B48F6BF7940F2044E6F
:1006D0004BF68F7A48F2C0034CF28005E6B32778D8
:1006E000066836F827C048F280180CEA010C4CEA7C
:1006F000080C26F827C0E68826F001070668B6F839
:1007000050C094F80080B4440BEBC8062CF8067077
:10071000268926F001070668B6F850C094F80080D4
:10072000B4440EEBC8062CF806706678002E7ED016
:100730002678076837F826C05FEA4C4C07D537F8AB
:1007400026C00CEA010C4CEA050C27F826C02678D6
:10075000076837F826C001E032E029E05FEA4C6C18
:1007600007D537F826C00CEA010C4CEA030C27F831
:1007700026C02678076837F826300B402B4327F829
:1007800026302378056835F8231001EA0901114362
:1007900025F823102478036833F8241001EA0A01AD
:1007A000114323F82410002180F87013084660E7F5
:1007B0002378026832F823500D4045F4806171E7D8
:1007C000667806B3A58825F001060568B5F850706F
:1007D00094F800C02F440BEBCC057E5325780668B7
:1007E00036F825707F0605D536F825700F401F4373
:1007F00026F825702478036833F8241001EA0901EB
:1008000081F02001CCE7A38823F001060368B3F848
:10081000507094F800C01F440EEBCC03FE520368E6
:10082000B3F8506040F206473344267800E030E0E9
:1008300007EBC6069F19E3683E2B0AD9C3F34F1690
:10084000DB0601D1761EB6B24FF4004343EA86239D
:1008500009E0C3F34F06DB0701D0761CB6B24FF6B2
:10086000FF7303EA86233B802378066836F82370FB
:100870007F0405D536F823700F402F4326F82370E8
:100880002478036833F8241001EA0A0181F4405106
:1008900086E72778066836F827C05FEA4C4C07D50C
:1008A00036F827C00CEA010C4CEA050C26F827C0E4
:1008B0002678056835F826707F0605D535F8267048
:1008C0000F401F4325F826702678076837F8265012
:1008D0000D401D4327F826502578036833F825106E
:1008E00001EA0A0181F44051114323F825102378CD
:1008F000056835F8231001EA0901114325F8231092
:1009000051E70000F0B501F07F01C1EBC10400EB3D
:100910008404C4E977230022C4F8E42184F8CD21BB
:1009200084F8CC1190F8701304F5E674012909D00D
:10093000012180F870136369E1688B4204D95B1A66
:10094000636103E00220F0BD19466261A57A40F2BE
:1009500006434FF400464FF6FF7725B1657815B191
:10096000012D21D028E00568B5F850C03E29654426
:1009700094F800C003EBCC031D440ED9C1F34F1310
:10098000C90607D046EA832102E000BF07EA8321B7
:10099000298011E05B1E9BB2F4E7C1F34F03C90746
:1009A000F4D05B1C9BB2F1E70568B5F850603544A4
:1009B000267803EBC603E9522478036833F8241041
:1009C0004BF68F75294081F4405148F28005294348
:1009D00023F8241080F870230020F0BD30B590F883
:1009E0007023012A0CD0012480F870430B0601F01B
:1009F0007F0207D5C2EBC20300EB8303283307E075
:100A0000022030BDC1EBC10300EB830303F5E673A5
:100A1000C9099C701A70597048F2800352B1046879
:100A2000002934F8221011D048F6BF75294081F012
:100A3000100110E0026811884BF6BF74214081F468
:100A4000805181F010011943118007E04BF68F753A
:100A5000294081F48051194324F82210002180F8A4
:100A60007013084630BD2DE9F041064601F07F00C5
:100A7000C0EBC00106EB8104383400278CC401218F
:100A800004F81B1C04F81C0D96F87003012808D00C
:100A900086F87013E5686069A84205D9401B60615B
:100AA00004E00220BDE8F08105466761A07A38B114
:100AB0002178306830F82110490612D5228911E0DA
:100AC000ABB2A2882169306801F028FA3068B0F82A
:100AD000501040F202420844217802EBC101455215
:100AE00020E0E288ABB2216901F018FA617848F69B
:100AF0008F7011B101290BD014E02378326832F8DD
:100B00002310014048F2C000014322F8231009E0FD
:100B10002178326832F8213003404CF280000343E0
:100B200022F821302278316831F8220048F6BF736C
:100B3000184080F0300048F28003184321F822006A
:100B400086F870730020ADE710B504460068B0F871
:100B50004400000402D5204601F03EF82068B0F8B9
:100B6000441049050BD530F8441F21F48061018001
:100B7000204600F067F80021204600F078F8206851
:100B8000B0F84410490404D530F8441F21F48041E2
:100B900001802068B0F84410890404D530F8441F5F
:100BA00021F4005101802068B0F84410C90412D526
:100BB00030F8401F21F00401018021684FF43D40CE
:100BC000A1F84000204600F04AF8206830F8441FA1
:100BD00021F4805101802068B0F84410090519D52E
:100BE00030F8441F21F400610180206830F8401F74
:100BF00041F008010180206830F8401F41F00401F5
:100C000001802068B0F84400C043C00402D52046EB
:100C100000F04AF82068B0F84410890507D530F88C
:100C2000441F21F400710180204600F01CF8206868
:100C3000B0F84410C90504D530F8441F21F4807180
:100C4000018010BD10B504460121D0F8A40301F0C5
:100C500065FCD4F8A403BDE8104001F02EBCD0F828
:100C6000A40301F049BCD0F8A40301F04BBC90F8F8
:100C70007023012A0AD0012280F8702341B180F844
:100C80002410002180F87013084670470220704736
:100C900002688021A2F84C10F3E7D0F8A42300F5F5
:100CA0005D71104601F044BC10B50446D0F8A403B1
:100CB00001F072FCA069002804D00348016841F0EB
:100CC0000601016010BD000010ED00E02DE9F84FB5
:100CD000044600689F4DC0036FD5E8690026C00038
:100CE00008D4E86940F08050E861E869012600F026
:100CF0008050009098480168C90512D40168804668
:100D000041F480710160FFF785FB074605E000BFF5
:100D1000FFF780FBC01B642835D8D8F80000C00559
:100D2000F6D5286A10F4407053D0A18801F44071C0
:100D300081424ED0286A4FF4803191FAA1F2B2FA82
:100D400082F29700854A4FF00108174420F4407062
:100D5000C7F8008491FAA1F1B1FA81F102EB8101A7
:100D60000023C1F800342862C00732D0FFF752FBDD
:100D7000074641F2883A4FF0020907E0FFF74AFBC5
:100D8000C11B514502D90320BDE8F88F99FAA9F19A
:100D9000B1FA81F141F040024846B8EB521F01D14F
:100DA0002A680CE090FAA0F2B2FA82F242F0400215
:100DB000B0EB521F02D12A6A01E015E06A6A99FA83
:100DC000A9F0B0FA80F000F01F0008FA00F10A4222
:100DD000D4D0286A616820F44070084328621EB1AC
:100DE000E86920F08050E8612078C00705D0286BC2
:100DF000A16820F00300084328632078800705D508
:100E0000286BE16820F440300843286320784007CD
:100E100005D5286B216920F44020084328632078F9
:100E2000800605D5286BE16920F01000084328638F
:100E30002068800305D56868616D20F48000084350
:100E400068602078400605D5286B216A20F02000D4
:100E5000084328632068400305D5286B616A20F0A9
:100E60004000084328632078000705D5286B616996
:100E700020F44010084328632078C00605D5286B6D
:100E8000A16920F44000084328632088800505D527
:100E90006868216B20F40000084368602078000631
:100EA00005D5E86AA16A20F4F8700843E862208852
:100EB000C00505D5E86AE16A20F478500843E86285
:100EC0002088C00405D5286B616B20F4807008432E
:100ED00028632088800405D5286B216C20F40070DD
:100EE000084328632068C00205D5286BA16B20F059
:100EF0008070084328632068800205D5286BE16B69
:100F000020F00070084328632068400205D5286B54
:100F1000616C20F48060084328632068000205D5D6
:100F2000286BA16C20F40060084328632068C0018E
:100F300005D5286BE16C20F4005008432863206835
:100F4000800105D5286B216D20F4004008432863FB
:100F5000002019E7001002400070004000004242EB
:100F60002DE9F047DFF8708105460E46D8F80000FD
:100F700000F00700B0420CD2D8F8001021F00701B1
:100F80003143C8F80010D8F8000000F00700B04264
:100F900077D12878514C800705D56068A96820F082
:100FA000F000084360602878C00759D069680120C4
:100FB00001290DD0022929D05FF0020393FAA3F290
:100FC000B2FA82F242F02002520904D0226803E011
:100FD0004FF40033F2E7626A93FAA3F3B3FA83F3B0
:100FE00003F01F03984002424BD0606820F00300DA
:100FF00008436060FFF70EFA6968074641F28830DF
:1010000001290DD00229814617D025E04FF0007349
:10101000D4E700BFFFF7FEF9C11B494501D918E02D
:1010200081466068C0F381000128F3D118E000BF59
:10103000FFF7F0F9C11B49450BD86068C0F3810088
:101040000228F5D10CE000BFFFF7E4F9C11B4945C8
:1010500002D90320BDE8F087606810F00C0FF3D1CF
:10106000D8F80010404601F00701B1420BD90168E1
:1010700021F0070131430160006800F00700B04231
:1010800001D00120E6E72878400705D56068E968C7
:1010900020F4E060084360602878000706D56068A7
:1010A000296920F4605040EAC100606000F022F835
:1010B0006168F02292FAA2F201F0F001B2FA82F233
:1010C000D140074A515CC840064908600020FFF73C
:1010D000C1F90020BEE700000020024000100240DD
:1010E0002C2D0008440000200148006870470000D3
:1010F00044000020124B10B55968124801F00C0250
:10110000042A1CD0082A1AD14FF4701494FAA4F4BB
:1011100001F47012B4FA84F4E2400B4CDB6AA25C76
:101120000F2494FAA4F403F00F03B4FA84F4E34018
:10113000054CC9031034E35CB0FBF3F0504310BD21
:101140000010024000127A00DC2C00082DE9F84F54
:1011500004460078FA4DC0074FF0010637D06868A2
:101160007704C0F38100012819D06868C0F38100BA
:10117000022804D16868C0F3C13002280FD060682B
:10118000B0F5803F24D010B1B0F5A02F2AD0286848
:1011900020F480302860286820F480201BE097FA33
:1011A000A7F0B0FA80F040F02000400901D0286894
:1011B00000E0686A97FAA7F1B1FA81F101F01F0126
:1011C00006FA01F108424ED06068002870D04AE06B
:1011D000286840F480302860606828B3FFF71AF967
:1011E00080460BE0286840F480202860F0E700BFCC
:1011F000FFF710F9A0EB080064287DD897FAA7F054
:10120000B0FA80F040F02000400901D0286800E0EA
:10121000686A97FAA7F1B1FA81F101F01F0106FAA5
:1012200001F10842E4D01EE0FFF7F4F8804605E043
:10123000FFF7F0F8A0EB08006428DED897FAA7F0D3
:10124000B0FA80F040F02000400901D0286800E0AA
:10125000686A97FAA7F1B1FA81F101F01F0106FA65
:1012600001F10842E4D12078DFF8D88280074FF0FE
:10127000000A4FF0020742D568684FF0F80B10F0F3
:101280000C0F16D06868C0F38100022804D168688A
:10129000C0F3C13001280CD0E06870B396FAA6F014
:1012A000B0FA80F048F82060FFF7B4F881462DE0EE
:1012B00095E097FAA7F0B0FA80F040F020004009DE
:1012C00001D0286800E0686A97FAA7F1B1FA81F1C5
:1012D00001F01F0106FA01F1084202D0E06801287E
:1012E0007DD128689BFAABF22169B2FA82F220F034
:1012F000F8009140084301E058E128E028604CE004
:10130000FFF788F8A0EB0900022896D897FAA7F013
:10131000B0FA80F040F02000400901D0286800E0D9
:10132000686A97FAA7F1B1FA81F101F01F0106FA94
:1013300001F10842E4D028689BFAABF220F0F801F2
:101340002069B2FA82F290400143296025E096FAC2
:10135000A6F1B1FA81F148F821A0FFF75BF88146C8
:1013600006E000BFFFF756F8A0EB09000228CCD832
:1013700097FAA7F0B0FA80F040F02000400901D0C1
:10138000286800E0686A97FAA7F1B1FA81F101F0E4
:101390001F0106FA01F10842E4D1207800076AD55E
:1013A0006069A0B396FAA6F0B0FA80F008EB80006E
:1013B000C0F88064FFF72EF8814605E0FFF72AF8B1
:1013C000A0EB09000228A0D897FAA7F0B0FA80F0A5
:1013D00040F06000B6EB501F02D128680CE073E1CA
:1013E00097FAA7F0B0FA80F040F06000B7EB501F1A
:1013F00001D1286A00E0686A97FAA7F1B1FA81F191
:1014000001F01F0106FA01F21042D7D033E0FFE7E6
:1014100096FAA6F1B1FA81F108EB8101C1F880A436
:10142000FEF7F8FF814605E0FEF7F4FFA0EB0900A8
:1014300002289CD897FAA7F0B0FA80F040F060003C
:10144000B6EB501F01D128680BE097FAA7F0B0FA6D
:1014500080F040F06000B7EB501F01D1286A00E037
:10146000686A97FAA7F1B1FA81F101F01F0106FA53
:1014700001F21042D8D12078400768D5E8694FF0D2
:101480000009C00009D4E86940F08050E861E869CB
:101490004FF0010900F0805000902B480168C90509
:1014A00012D4016841F480710160FEF7B3FF8346F6
:1014B00006E000BFFEF7AEFFA0EB0B00642875D876
:1014C00021480068C005F5D5A06801280AD008B1F8
:1014D000052811D0286A20F001002862286A20F02F
:1014E000040002E0286A40F001002862A06868B3A6
:1014F000FEF790FF83460DE0286A40F00400286262
:10150000F0E700BFFEF786FFA0EB0B0141F2883049
:1015100081424BD897FAA7F0B0FA80F040F0400033
:10152000B6EB501F01D1286813E097FAA7F0B0FA84
:1015300080F040F04000B7EB501F09D1286A08E066
:101540000010024000004242007000400CE040E009
:10155000686A97FAA7F1B1FA81F101F01F0106FA62
:1015600001F21042CED02DE0FEF754FF834607E093
:10157000FEF750FFA0EB0B0141F28830814215D8F5
:1015800097FAA7F0B0FA80F040F04000B6EB501F99
:1015900001D128680CE097FAA7F0B0FA80F040F08B
:1015A0004000B7EB501F02D1286A01E089E0686A69
:1015B00097FAA7F1B1FA81F101F01F0106FA01F2E1
:1015C0001042D5D1B9F1000F03D0E86920F0805066
:1015D000E861A06980B36968C1F38101022973D011
:1015E0004FF080714F000228524609D091FAA1F0C5
:1015F000B0FA80F048F82020FEF70CFF044664E0C3
:1016000091FAA1F0B0FA80F08A46C14648F820204D
:10161000FEF700FF804605E0FEF7FCFEA0EB0800A9
:1016200002284ED897FAA7F0B0FA80F040F02000D8
:10163000400902D0286801E05CE0686A97FAA7F1E7
:10164000B1FA81F101F01F0106FA01F10842E3D17C
:10165000E86A20F00F01606A0143E962D4E90710EB
:101660000843696821F47611084368609AFAAAF081
:10167000B0FA80F049F82060FEF7CCFE044604E0A2
:10168000FEF7C8FE001B02281BD897FAA7F0B0FA95
:1016900080F040F02000400901D0286800E0686A2E
:1016A00097FAA7F1B1FA81F101F01F0106FA01F1F1
:1016B0000842E5D01EE000BFFEF7ACFE001B02288A
:1016C00003D90320BDE8F88F16E097FAA7F0B0FA27
:1016D00080F040F02000400901D0286800E0686AEE
:1016E00097FAA7F1B1FA81F101F01F0106FA01F1B1
:1016F0000842E1D10020E5E70120E3E72DE9F041D0
:10170000040004D094F85D00002518B107E0012022
:10171000BDE8F08184F85C50204600F04FF80223C9
:1017200084F85D302068016821F040010160E068C4
:101730004FF4E066B04201D9002101E04FF480513E
:10174000B0F5706F02D0B04200D0A562276B0122C5
:1017500027B9B04201D9236300E02263D4E9010331
:101760001843D4E9043633431843238B03F400733E
:101770001843E3691843236A1843A36A184323688C
:101780001860206B022804D12068036843F40063CA
:101790000360636B606AA66918430427E36807EA7D
:1017A0001646334318430843216848602168E06ABD
:1017B0000861256684F85D200020A9E730B51A4D40
:1017C0000468002119480222032387B0AC4212D1D9
:1017D000846944F4805484618069CDE9021300F483
:1017E00080500590E020CDE9000205200490694674
:1017F0004FF0904014E00E4DAC4213D1C46944F454
:101800000044C461C069CDE9021300F400400590B2
:101810004FF4E050CDE900020620049069460548E7
:10182000FEF70CFD07B030BD003001400010024053
:10183000003C0040000800482DE9F84F1F46914643
:101840008A4604460A9EFEF7E5FD804694F85C0051
:101850000025012809D04FF0010B84F85CB094F802
:101860005D00012804D0022538E10220BDE8F88F90
:10187000BAF1000F7DD0B9F1000FFBD0002FF9D0E5
:10188000052084F85D0000202066C4F84090A4F88C
:101890004670A4F84470C4F838A0E787A787A06A08
:1018A0004FF40057B8420AD1206801684DF6FF7224
:1018B000114001602068016841F400510160E06856
:1018C0004FF4E061884203D8B4F84600012804D9F7
:1018D0002068426822F4805203E02068426842F4A3
:1018E0008052426020680268520603D4026842F0C7
:1018F00040020260E068884240D8A5E010B320684A
:10190000816889071ED5A16B0988C160A06B801C06
:10191000A063E08F401E0004000CE08712D1A06A93
:10192000B8420FD120680168490706D44168090709
:1019300003D5016841F4007101602068016841F439
:1019400080510160B4F8460070B120688168C90711
:101950000AD0C068216C0880206C801C2064B4F818
:101960004600401EA4F84600701C07D0FEF752FD4A
:1019700000E0B2E0A0EB0800B04263D2E08F0028A4
:10198000BCD1B4F846100029B8D164E058B321683E
:101990008A68920727D50128A06B07D90088C860FC
:1019A000A06B801CA063E08F801E05E0421CA26338
:1019B00000780873E08F401EE0870004000C12D10D
:1019C000A06AB8420FD120680168490706D441686F
:1019D000090703D5016841F40071016020680168BE
:1019E00041F480510160B4F8461019B32068826850
:1019F000D2071FD0012913D9C068216C0880206C40
:101A0000801C2064B4F84600801E80B2A4F8460012
:101A100001280FD82068416841F48051416009E0F5
:101A2000027B206C411C21640270B4F84600401E09
:101A3000A4F84600701C07D0FEF7ECFCA0EB0800F1
:101A4000B04201D3032549E0E08F00289ED1B4F8CD
:101A5000461000299AD1A06AB84228D10122334603
:101A60001146204600F0FBFAB0B9E068B0F5706F9F
:101A7000206808D0007BADF80000BDF80000206BA6
:101A8000022802D013E0C0680DE00122334611465F
:101A9000204600F0E4FA20B1206E40F002002066FB
:101AA000D0E72068007BADF80000BDF8000020689A
:101AB0008168C943C90607D4216E41F0020121663D
:101AC0004FF6EF71816001253146204600F05EFA45
:101AD00008B120202066206E00B1012584F85DB099
:101AE000002084F85C002846C0E64FF0E02104287E
:101AF000086903D020F004000861704740F004003A
:101B0000FAE7704710B5401EB0F1807F01D3012085
:101B100010BD4FF0E02460610F21601700F04CF819
:101B20000020A06107202061002010BD10B5FFF744
:101B3000E8FF10BDFEE700001B4810B5416986B004
:101B400041F480014161416901F4800105914169DD
:101B500041F400314161416901F40031059141696D
:101B600041F400214161416901F40021059141697D
:101B700041F4802141614069002400F480200590F7
:101B80004FF49870CDE90004694608480294FEF7C6
:101B900055FB46F22000CDE9000469460448029452
:101BA000FEF74CFB06B010BD0010024000080048D4
:101BB00000040048FEE770470907090E002806DA0E
:101BC00000F00F0000F1E02080F8141D704700F1D4
:101BD000E02080F8001470472DE9FC5F00270446E0
:101BE000ADF8007048F60F7A40F2064B40F202481A
:101BF00078E100BFBDF8041011F00F062CD030F8CA
:101C00002610ADF80010BDF80010090474D530F8A6
:101C1000261040F68F72114020F82610C6EBC60041
:101C200004EB800595F8D60105F5E67500282068D7
:101C30007ED0297830F821205204B0F8502002EBF1
:101C4000000376D508EBC101595AC1F309015FEAD7
:101C500001096FD0EA88BCE0BDF80410C90628D499
:101C6000018801EA0A010180206804F12805B0F822
:101C700050102A78014408EBC200085AC0F309004A
:101C80002064A16B0844A06300212046FEF760FC9D
:101C900094F824000028ABD068690028A8D194F8F3
:101CA0002400216840F08000A1F84C0084F82470E2
:101CB00018E1018804F5E675ADF80010BDF80010D4
:101CC00009051AD5B0F850100A1829780BEBC10095
:101CD000105A04F55D71C0F30903AB61AA8820684E
:101CE00000F00EF92068018840F68F7211400180E3
:101CF0002046FEF7D2FFF5E091E0BDF800100904A0
:101D0000D6D5018840F68F72114001802068B0F866
:101D100050100A1829780BEBC100105A83059B0D4F
:101D2000AB610CD0AA882969206800F0E9F802E0CC
:101D300034E045E051E0A9692869084428610021A0
:101D40002046FEF70EFC2068B0F850100A18E8682C
:101D500002F206423E280AD9C0F34F11C00601D153
:101D6000491E89B24FF4004040EA812009E0C0F3E7
:101D70004F01C00701D0491C89B24FF6FF7000EA3D
:101D800081201080206801884BF68F72114081F409
:101D9000405148F2800211430180A3E0B0F8501096
:101DA0002B780A180BEBC301515AC1F309015FEA02
:101DB00001091ED0AA884B46296900F0A1F818E055
:101DC0000BEBC101595AC1F309015FEA010904D0C3
:101DD0002A894B46296900F093F82A78216831F85E
:101DE000220048F68F73184048F2C003184321F8C8
:101DF0002200A96901EB0900A861286900EB09022A
:101E00002A616B6913B1E968494504D929782046EC
:101E1000FEF7A7FB03E029782046FEF773FDBDF827
:101E2000000000065ED52168C6EBC60004EB800505
:101E300031F8260000EA0A0021F8260095F8320061
:101E400028350028206810D0297830F82120520643
:101E5000B0F85020024419D508EBC100105A830590
:101E60009B0DAB611ED0EA8818E0B0F850100A183C
:101E7000297808EBC100105A83059B0DAB611DD07A
:101E8000AA882969206800F049F817E00BEBC10027
:101E9000105A83059B0DAB6104D02A8929692068FB
:101EA00000F03CF82A78216831F8223048F68F702B
:101EB00003404CF28000034321F822302168B1F83E
:101EC00050002A78014408EBC200085AC0F3090008
:101ED000A86129690A182A6129786B69204663B1CB
:101EE000FEF7C1FD2068B0F84410ADF804100904F5
:101EF0003FF580AE0020BDE8FC9FFEF729FBF1E72F
:101F00005B1C10445B0800F5806005D030F8022BA4
:101F100021F8022B5B1EF9D17047000010B55B1C45
:101F200010445B0800F580600AD000BF11F8012B57
:101F30005B1E11F8014B42EA042220F8022BF5D176
:101F400010BD70471CB510A1042309680191010A56
:101F50008DF805108DF806006A46032101A800F0EF
:101F6000DFFC9DF800009DF8011060F30704204697
:101F700061F30F209DF8021061F317409DF80310E4
:101F800061F31F601CBD00000300000070B50D462A
:101F90000B46044600224FF4C05100F00FF838B948
:101FA0002B4600228021204600F059F8002804D05A
:101FB000206E40F020002066032070BD2DE9F8431C
:101FC0001D4617460E460446FEF724FA80464FF497
:101FD000C0693DE04E4505D127B9007B8DF8000072
:101FE0009DF80000681C33D02DB1FEF713FAA0EB6A
:101FF0000800A8422CD32068416821F0E00141602C
:102000006068B0F5827F0BD1A068B0F5004F02D0B8
:10201000B0F5806F04D12068016821F040010160B3
:10202000A06AB0F5005F0AD1206801684DF6FF7222
:10203000114001602068016841F4005101600120F5
:1020400084F85D00002084F85C000320BDE8F8837C
:10205000206881683140B942BCD10020F6E72DE903
:10206000F0411D4616460F460446FEF7D3F980465A
:1020700035E0681C33D02DB1FEF7CCF9A0EB080099
:10208000A8422CD32068416821F0E00141606068DB
:10209000B0F5827F0BD1A068B0F5004F02D0B0F54B
:1020A000806F04D12068016821F040010160A06ABE
:1020B000B0F5005F0AD1206801684DF6FF7211404B
:1020C00001602068016841F400510160012084F83A
:1020D0005D00002084F85C000320BDE8F0812068EA
:1020E00080683840B042C4D10020F6E7704710B590
:1020F000FEF796F9BDE81040FFF718BDF0B5A5B0A2
:1021000001263504CDE916654FF4E01000240227BE
:10211000CDE91E04CDE91C7516A8FFF717F800B12C
:10212000FEE70F20CDE920074FF48060CDE9224083
:10213000022120A82494FEF713FF00B1FEE7104807
:102140000090102007904020CDE902650990159479
:102150006846FEF7BBFD00B1FEE7FEF7C5FF4FF492
:102160007A71B0FBF1F0FFF7CDFC0420FFF7BDFC66
:1021700000221146501EFEF7B9F925B0F0BD00004F
:10218000230006001448016841F4700101601348FF
:10219000016841F0010101604168114A114041604C
:1021A0000168104A11400160016821F4802101603A
:1021B000416821F4FE014160C16A21F00F01C16252
:1021C000016B094A11400163002181600249C0038B
:1021D000803908607047000088ED00E00010024080
:1021E0000CC07FF8FFFFF6FECCFC00FF10B5D0F866
:1021F000142252689047002010BD134610B50A46BD
:10220000002100F053F9002010BD134610B50A4616
:10221000002100F0CAF9002010BD10B5044680214D
:1022200000F0B3F92046BDE81040002100F0ADB940
:1022300010B505210023C0F8F4111A46194600F024
:1022400035F9002010BD10B502238261C0F8F431C9
:10225000C26113460A46002100F0A7F9002010BD14
:1022600010B504210023C0F8F4111A46194600F0F5
:102270009CF9002010BDF8B5044648880D46010AB7
:1022800008294BD2DFE801F04A0409174A4A4048BE
:10229000D4F81012207C0A6832E0207C0226002844
:1022A000D4F8140205D0C16A6846884701464670D2
:1022B00041E0816AF8E7C0B206282FD2DFE800F0DB
:1022C00003080D12171CD4F81012207C4A6817E07E
:1022D000D4F81012207C8A6812E0D4F81012207C06
:1022E000CA680DE0D4F81012207C0A6908E0D4F81E
:1022F0001012207C4A6903E0D4F81012207C8A690D
:1023000069469047014616E0207C38B9D4F814029B
:10231000416B68468847F5E7207C20B12946204676
:10232000FFF77BFFF8BDD4F81402016B68468847BD
:10233000014607204870BDF800000028F2D0EA8866
:10234000002AEFD0824200D90246ADF80020204694
:10235000FFF779FFF8BD10B5D0F82002FEF70BF9B2
:10236000002010BD2DE9F0411746044641B1D4F8D4
:10237000140242698AB394F8FC01032842D043E076
:10238000D4F8F411002504F11400022933D1D0E966
:1023900002639E4207D9F31A83609AB239462046F7
:1023A000FFF733FF12E04068B0FBF3F103FB1101CC
:1023B000A1B9984212D3D4F8F81188420ED2002263
:1023C00011462046FFF721FFC4F8F85100231A46B2
:1023D0001946204600F06AF80DE012E0D4F8140225
:1023E000C16829B194F8FC01032801D1204688472F
:1023F0002046FFF71DFF94F80002012804D184F85D
:10240000005201E0204690470020BDE8F08170B501
:102410001546044641B1D4F8140282693AB394F8DF
:10242000FC01032824D025E0D4F8F41104F58270CF
:1024300003291FD1D0E902218A420BD9531A8360A4
:102440000846834200D303469AB229462046FFF746
:10245000D4FE0FE0D4F81402016929B194F8FC010C
:10246000032801D1204688472046FFF7F9FE01E006
:1024700020469047002070BD0A0601F07F01D0F889
:102480002002C1EBC10100EB810002D590F82A00C7
:10249000704790F8CE01704710B51C461346D0F82F
:1024A00020022246FEF7BFF8002010BD10B5D0F87C
:1024B0002002FEF727FA002010BD70B50022044666
:1024C00040231146FFF7E8FF40252B4600228021DC
:1024D0002046C4F81051FFF7DFFF0120256284F881
:1024E000FC01D4F8180228B1D4F81402217942680A
:1024F00020469047002070BD90F8FD1180F8FC1137
:102500000020704710B590F8FC11032904D1D0F8D1
:102510001412C96901B18847002010BD0174002060
:10252000704710B5D0F82002FEF7A1FB002010BDC7
:1025300070B5044600F50270054600F03DF8012034
:10254000C4F8F401B4F80E02C4F8F80194F80802D3
:1025500010F01F010AD001290DD0022910D000F07F
:102560008001204600F011F8002070BD2946204669
:1025700000F07CF8F8E72946204600F05EF9F3E722
:102580002946204600F0EBF8EEE710B5D0F820021F
:10259000FEF724FA002010BD90F8FC1180F8FD1120
:1025A000042180F8FC110020704710B5D0F82002FB
:1025B000FEF759FA002010BD0A7802704A7842707E
:1025C0008A78CB7802EB032242800A794B7902EBBE
:1025D000032282808A79C97902EB0121C180704788
:1025E00010B5D0F8142202241AB11268904700B92D
:1025F0000024204610BD000070B50E461A4D8978A3
:1026000004462970012928D894F8FC01022802D038
:10261000032822D105E099B10320616084F8FC0110
:1026200009E091B1606888420AD0C1B22046FFF744
:10263000DDFD297861602046FFF7D2FF02280CD02B
:102640002046BDE87040FFF70BBE022084F8FC0175
:1026500020466160FFF7CAFDF2E731462046BDE83B
:102660007040FFF7DABD0000040000202DE9F041C2
:1026700000264B78012532460A2B43D2DFE803F0CF
:102680003C584251420805422A27FFF7F4FD63E017
:1026900004468888C8B9C888B8B9887800F07F0728
:1026A00094F8FC01032810D084F8FE7139462046C6
:1026B000FFF737FF2046FFF7D3FD1FB1022084F854
:1026C000FC0149E084F8FC5146E020461AE0FFF79F
:1026D00093FF41E0CB88012B14D190F8FC31022B01
:1026E00002D0032B0ED104E08260012200F1080128
:1026F00014E00122011D11E090F8FC21022A04D00F
:10270000032A02D0FFF789FD26E0C560D0F8041245
:1027100009B10321C160022200F10C01FFF793FD12
:102720001AE004464888012816D1C4F804520BE088
:10273000044690F8FC01022801D00328C5D148883E
:10274000012809D1C4F80422D4F814028268204672
:1027500090472046FFF784FD3046BDE8F08170B514
:102760000D460446287800260979C0F34110012857
:1027700006D06878A0B301281FD003283FD107E016
:10278000D4F814022946826820469047002070BD84
:1027900094F8FC01022817D003282CD1688828B9A6
:1027A00021B1802902D02046FFF7EFFED4F81402B1
:1027B000294682682046904713E094F8FC010228DD
:1027C00002D0032817D103E0C9B180291BD116E03C
:1027D0006888A0B9480604D02046FFF7BCFDE5E7AD
:1027E00003E02046FFF73CFD09E094F8FC010228D5
:1027F00007D003280BD029462046FFF70EFD3046B0
:1028000070BD4806FBD02046FFF7BFFEF7E708067D
:1028100001F07F0004EB001501D5143501E005F54A
:1028200082752046FFF728FE00B1012028600222B1
:1028300029462046FFF707FDE1E770B5054690F809
:10284000FC010C4603280DD1207901280AD8D5F8BF
:102850001402826828469047E08830B92846FFF77E
:10286000FFFC02E02846FFF7D8FC002070BD000006
:102870000148FEF769B90000D8020020FEE702E037
:1028800008C8121F08C1002AFAD1704770470020FB
:1028900001E001C1121F002AFBD1704770B51C482E
:1028A00086B0416941F48021416140694FF480550F
:1028B00000F480200095059001200024CDE901045A
:1028C000144E69463046FDF7B9FC144A12481060B0
:1028D0004FF48270C2E901044FF4E060C2E90304DE
:1028E000E810C2E905403020C2E90704072054621D
:1028F000C2E90A40146310465463FEF7FFFE00B1BC
:10290000FEE7012229463046FDF77EFD06B070BD88
:102910000010024000040048003001405400002034
:102920002DE9F84F1F468046CC1991460D462046AA
:1029300000F0B8F88246204600F0B4F8064621467A
:10294000FF225046FDF754FC2A4641465046FDF70B
:102950003DFC642000902346324651460D48FEF768
:102960006BFF04460B4800BF90F85D100229FBD0B6
:1029700071193A464846FDF729FC504600F046F8E2
:10298000304600F043F814B10020BDE8F88F012074
:10299000FBE700005400002000EB400304480A4617
:1029A00000EB830150F82300098989B2FDF72CBDA3
:1029B000FC2C00082DE9F0430024114E114D85B088
:1029C00027464FF001084FF00309726904EB4400F9
:1029D00005EB80014B681A437261CDF80480896869
:1029E000CDE90279009155F820006946FDF726FCF3
:1029F000641CE4B2042CE8D305B0BDE8F083000009
:102A000000100240FC2C0008FFF748BF10B500285A
:102A100021D0114B0022001F196803E0814203D826
:102A20000A4649680029F9D152B11368841A9C42B8
:102A300004D1006818441060104602E0506000E0C5
:102A4000186039B102680B1A934203D10B681A441B
:102A500002604968416010BD4C00002008B5FDF7D8
:102A6000E7FCFFF74BFBFFF767F800F051F800F0C9
:102A70008FF8FFF7C9FF0221002000F075F8002051
:102A80000BE000BF00F08CF86421054800F05CF812
:102A90000028F7D06420FFF755FA0090F2E7000015
:102AA00048000020F0B50B30154D20F00701002440
:102AB000144A0FE003688B420BD38B4205D95E1A90
:102AC00043184768C3E9006700E04368136002C029
:102AD00004E0021D10680028ECD12046002802D135
:102AE000286808B10020F0BD064A07481060074A70
:102AF000121A22F00702C0E9002401202860D7E75B
:102B0000500000204C000020840600208008002097
:102B10007047000070B50D4604466321094800F077
:102B200013F8084A121F10B11068401C1060216889
:102B30001068411AA94202D32060012070BD002014
:102B400070BD00000C00002070B50D460446FDF776
:102B500061FC2168401AA84204D3FDF75BFC2060A9
:102B6000012070BD002070BD084B10B513F8304037
:102B70001A4602EBC0028C4203D003F83010012049
:102B800001E05068401C506010BD0000240000208F
:102B900010B5FFF70FFFBDE81040FFF7B9BF000009
:102BA00070B5154D002400BF15F8340008280CD26C
:102BB000DFE800F004070F12151A0704E0B2002145
:102BC00001E0E0B20121FFF7E7FE641C042CEBD327
:102BD00070BD00F05FF80CE000F06EF809E0322103
:102BE000204600F031F804E04FF4FA71204600F07E
:102BF00005F80146E0B2E6E72400002070B5114C6C
:102C00000546E078002804F1100004D0FFF79CFF8F
:102C1000B0B1002010E0FFF797FF88B109481430E9
:102C200000EBC5004168052902D90521416000E09B
:102C300019B1491E41600120E070FDF7EBFB2061F6
:102C4000E07870BD1000002070B5114C0546A078EA
:102C5000002804F10C0004D0FFF776FFB0B100208B
:102C600010E0FFF771FF88B10948143000EBC50090
:102C70004168142902D91421416000E019B1491EAC
:102C800041600120A070FDF7C5FBE060A07870BD39
:102C90001000002010B505210648FFF73BFF05494D
:102CA000091F28B1087808B1002000E00120087051
:102CB000087810BD1400002010B564210648FFF705
:102CC00043FF0549083928B1487808B1002000E0E1
:102CD00001204870487810BD180000200203040548
:102CE000060708090A0B0C0D0E0F10100102030451
:102CF00005060708090A0B0C0D0E0F10000400480A
:102D000000000400008000000000004800000200F5
:102D10000100000000000048000002000200000066
:102D20000000004800000200040000000000000055
:102D30000000000001020304060708095C2D0008DA
:102D400000000020540000007E280008B02D00087C
:102D5000540000202C0C00008E2800080000000009
:102D60000000000000000000000000000000000063
:102D70000000000000000000000000000000000053
:102D80000700000000000000070000000000000035
:102D90000700000000000000070000000000000025
:102DA00000127A0000000000000000000000000097
:040000050800019559
:00000001FF
