:020000040800F2
:10000000580F0020A9010008FD35000895350008AB
:10001000F935000875030008E151000800000000F0
:100020000000000000000000000000001D44000867
:100030007504000800000000D13D00088D4500084F
:10004000C3010008C3010008C3010008C301000880
:10005000C3010008C30100083D070008C3010008F0
:10006000C3010008C3010008C3010008C301000860
:10007000C3010008C3010008C3010008C301000850
:10008000C3010008C3010008C3010008C301000840
:10009000C3010008C3010008C3010008C301000830
:1000A000C3010008C3010008C3010008C301000820
:1000B000B5460008C3010008C3010008C3010008D9
:1000C000C3010008C3010008C3010008C301000800
:1000D000C3010008C3010008C3010008C3010008F0
:1000E00055070008C3010008C3010008C301000848
:1000F000C3010008C3010008C3010008C3010008D0
:10010000C30100080000000000000000C301000857
:10011000C3010008C3010008C3010008C3010008AF
:10012000C3010008C3010008C3010008C30100089F
:10013000C3010008C3010008000000000000000027
:10014000C3010008C3010008C3010008000000004B
:10015000000000000000000000000000000000009F
:10016000C3010008C3010008C3010008D151000801
:10017000C3010008C3010008C3010008C30100084F
:10018000C3010008C30100080000000000000000D7
:10019000C3010008DFF80CD000F03CF8004800472D
:1001A00039560008580F0020064880470648004787
:1001B000FEE7FEE7FEE7FEE7FEE7FEE7FEE7FEE717
:1001C000FEE7FEE7394600089501000840EA010312
:1001D0009B0703D009E008C9121F08C0042AFAD2FD
:1001E00003E011F8013B00F8013B521EF9D27047C1
:1001F000D2B201E000F8012B491EFBD27047002269
:10020000F6E710B513460A4604461946FFF7F0FF15
:10021000204610BD064C074D06E0E06840F00103A3
:1002200094E8070098471034AC42F6D3FFF7B6FFC6
:10023000CC590008EC59000870B58C1810F8015B17
:1002400015F0070301D110F8013B2A1106D110F86F
:10025000012B03E010F8016B01F8016B5B1EF9D173
:100260002B0705D40023521E0DD401F8013BFAE7F9
:1002700010F8013BCB1A921C03E013F8015B01F864
:10028000015B521EF9D5A142D8D3002070BD0000F9
:100290000F484088012181EAD0300D49498860F338
:1002A000CF310B4841800B488078C0F3C00040B18B
:1002B0000748408820F4804000F580400449488089
:1002C00005E00348408820F4804001494880704799
:1002D000EA000020E600002002460021104600BF90
:1002E0001BE0114B33F81130B3F5D05F04D0A3F508
:1002F000D053023B73B904E00C4B5B8820F8023BFF
:1003000008E00B4B5B8820F8023B094B9B8820F8E8
:10031000023B00BF00BF4B1C99B2034B9B1E1B88C6
:100320008B42DEDC70470000E2000020E600002087
:10033000EA00002010B5014600200A4600BF0EE08A
:100340000A4B33F810306FF4B054234423B932F819
:10035000023B074C638000BF00BF431C98B2034BB5
:100360009B1E1B888342EBDC10BD0000DE000020DA
:10037000F000002000BFFEE733480078002862D07C
:1003800032480088002809DD314800882F49098853
:10039000884203DB00202F4908700DE02C480088BC
:1003A0002A490988884204DA29480088401C2849DB
:1003B00008800120274908702648007890B1264817
:1003C000008800280EDD25480088234909888842D6
:1003D00005DA22480088401C2049088002E00020FD
:1003E0001C4908701B48007838B31D48008D1D4912
:1003F000098988420EDA01201B4908701B48B0F9B0
:10040000000000281FDD1A480088401C00B218496F
:10041000088018E014480078A8B10020124908703C
:1004200001200F4981F840001048B0F90000002871
:1004300009DD00200E49088005E00B48007810B166
:100440000020094908707047200100203201002077
:10045000300100202401002036010020340100205A
:10046000CC0800206C0100202A0100202C01002073
:100470002E010020704710B5FFF70AFF10BD0000E5
:1004800010B50D48406820B90C480088401C0B4945
:1004900008800B48007850B10A48B0F900000028E5
:1004A00005DD08480088401E00B20649088000F0BB
:1004B0000BF8FFF761FF10BDCC08002050000020B2
:1004C000430100202201002010B59148007830B18E
:1004D00001209049087000208F49087011E18F4871
:1004E0000088401C8D4908800846008832280BD0BF
:1004F00008460088642807D008460088962803D05C
:1005000008460088C828E9D18548007800F00F0027
:1005100009281AD2DFE800F0190509150D19191973
:10052000110000207F49087013E040207D490870C9
:100530000FE041207B4908700BE0012079490870E9
:1005400007E060207749087003E0002075490870D3
:1005500000BF00BF7348007800F0200018B96F4852
:100560000088C8285ED100206E49097801F01F017B
:1005700000290ADD6B49097801F01F0269490978F1
:1005800001F01F01491E1144C8B266490978664A44
:10059000127891420FD06349097801F0800119B1B6
:1005A00000215C4A117002E001215A4A11700121B8
:1005B0005E4A118031E05B49097801F0400131B3B6
:1005C0005449097809B9012100E00021514A11700C
:1005D00018B356490988491C544A118011460988A4
:1005E00081421ADD4F49097801F0800119B10121DA
:1005F000484A117002E00021464A11704B490A88AE
:10060000411D8A4209DB0021484A118005E0454925
:10061000097801F001013F4A117042490978424AC4
:10062000117000BF4248007800F0200018B93B4824
:100630000088C8285ED100203D49097801F01F01DB
:1006400000290ADD3A49097801F01F023849097882
:1006500001F01F01491E1144C8B235490978354AD5
:10066000127891420FD03249097801F0800119B116
:100670000021294A117002E00121274A117001214D
:100680002D4A118031E02A49097801F0400131B347
:100690002149097809B9012100E000211E4A1170A1
:1006A00018B325490988491C234A11801146098835
:1006B00081421ADD1E49097801F0800119B101213A
:1006C000154A117002E00021134A11701A490A8874
:1006D000411D8A4209DB0021174A118005E01449B7
:1006E000097801F001010C4A117011490978114A89
:1006F000117000BF09480088C82802D100200749AE
:100700000880054801780348007802F0E5FE10BD36
:100710001C01002041000020420000205A0000205F
:100720005001002047010020610000205C000020F3
:1007300046010020600000205E00002010B5044843
:10074000006800F0010010B1012000F053F810BD66
:100750001404014010B50948006800F4005018B1B5
:100760004FF4005000F046F80448006800F4804060
:1007700018B14FF4804000F03DF810BD1404014062
:1007800000BFFEE710B50446012C1AD0B4F5005F97
:1007900003D0B4F5804F1ED109E01048006828B19D
:1007A0000F48007810B10D480068804714E00D48EC
:1007B000006828B10C48007810B10A4800688047EA
:1007C0000AE00A48006828B10948007810B10748D3
:1007D0000068804700E000BF00BF10BD100000208F
:1007E0001C000020140000201D0000201800002024
:1007F0001E00002010B5044604480068204020B1C7
:10080000024804602046FFF7BDFF10BD14040140FC
:1008100078B50346002200240020D5E0012696404A
:100820000D6805EA0604002C72D04D68022D02D036
:100830004D68122D13D1D60803F1200555F8260076
:100840005507EE0E0F25B540A8435607F60E0D6965
:10085000B5402843D60803F1200545F8260018685E
:1008600056000325B540A8430D7905F00305560051
:10087000B540284318604D68012D08D04D68022D01
:1008800005D04D68112D02D04D68122D13D19868F6
:1008900056000325B540A8435600CD68B54028430F
:1008A0009860586801259540A8430D79C5F3001557
:1008B000954028435860D86856000325B540A843A2
:1008C00056008D68B5402843D8604D6805F08055C6
:1008D000B5F1805F77D100BF3E4DAD6945F00105B0
:1008E0003C4EB5613546AD6905F00105009500BF88
:1008F00000BF4FEAB635960855F8260095072E0F2B
:100900000F25B540A843B3F1904F02D100251FE059
:1009100059E0314DAB4201D1012519E02F4DAB42D9
:1009200001D1022514E02E4DAB4201D103250FE089
:100930002C4DAB4201D104250AE02B4DAB4201D135
:10094000052505E0294DAB4201D1062500E007252C
:100950009607360FB5402843254D960845F82600E2
:10096000244D2868A0434D6805F48035B5F5803FD7
:1009700000D120431F4D28602D1D2868A0434D68DD
:1009800005F40035B5F5003F00D12043194D2D1D6C
:1009900028602D1D2868A0434D6805F48015B5F525
:1009A000801F00D12043134D083528602D1D286875
:1009B000A0434D6805F40015B5F5001F00D1204394
:1009C0000C4D0C352860521C0D68D540002D7FF46D
:1009D00025AF78BD00100240000400480008004820
:1009E000000C00480010004800140048001800489F
:1009F00008000140000401400AB1816100E0816209
:100A000070470000014800687047000000000020A7
:100A100002480068401C014908607047000000203F
:100A200010B50848006840F010000649086003202F
:100A300000F0A6F8002000F007F800F019F80020F8
:100A400010BD00000020024070B504460748006851
:100A50004FF47A71B0FBF1F5284602F0B6F90022A6
:100A60002146501E00F04DF8002070BDD00100203E
:100A700008B500BF1B48806940F001001949886132
:100A80000846806900F00100009000BF00BF03200D
:100A900000F076F8002211466FF00B0000F031F8FC
:100AA000002211466FF00A0000F02BF800221146D8
:100AB0006FF0090000F025F800221146501F00F0E9
:100AC00020F800221146101F00F01BF800221146EA
:100AD000901E00F016F800221146501E00F011F88A
:100AE00008BD00000010024000BF00F01F020121FD
:100AF00091404209920002F1E022C2F8001100BFC9
:100B000070472DE9F05F80460D461646002702F03B
:100B100077FD074639462A46334601F00700C0F103
:100B2000070ABAF1040F02D94FF0040A01E0C0F13C
:100B3000070AD14600F1040ABAF1070F02D24FF0BA
:100B4000000A01E0A0F1030AD4464FF0010A0AFAB4
:100B500009FAAAF1010A0AEA020A0AFA0CFA4FF0A3
:100B6000010B0BFA0CFBABF1010B0BEA030B4AEA8E
:100B70000B042146404602F04BFDBDE8F09F00000B
:100B800000BF00F00702064B19684FF6FF0319403B
:100B9000044B0B4343EA0221014B196000BF70472D
:100BA0000CED00E00000FA0570B504460D46C5EBFB
:100BB000C50304F1280101EB83010A692946D4F831
:100BC000A40303F098FF70BD70B504460D46C5EB55
:100BD000C50304F5E67101EB83010A692946D4F8DF
:100BE000A40303F0F5FF70BD70B502460B4603F099
:100BF0008000802808D103F07F00C0EBC00402F120
:100C0000280000EB840105E0C3EBC30402F5E670A5
:100C100000EB84010020887003F07F000870C3F3AC
:100C2000C010487000BF92F87003012801D1022063
:100C300070BD012082F8700300BF487870B30C7853
:100C40006400106830F8140000F0400078B10C78AF
:100C50006400106830F8140048F68F74204048F2A1
:100C6000C00420430D786D00146824F815000D7839
:100C70006D00146834F8154048F6BF7504EA0500A5
:100C800080F0100080F0200040F4004444F0800424
:100C90000E787600156825F816402EE00C78640072
:100CA000106830F8140000F4804078B10C786400CB
:100CB000106830F8140048F68F7420404CF280041D
:100CC00020430D786D00146824F815000D786D0030
:100CD000146834F815404BF68F7504EA050080F46B
:100CE000805080F4005040F4004444F080040E78BA
:100CF0007600156825F8164000BF00BF002082F876
:100D0000700300BF00BF93E72DE9F04104460D4694
:100D1000002705F08000802808D105F07F00C0EB97
:100D2000C00604F1280000EB860107E005F07F0013
:100D3000C0EBC00604F5E67000EB860105F07F000D
:100D4000087005F08000C0094870CA60CB7000BF11
:100D500094F87003012802D10220BDE8F08101203F
:100D600084F8700300BFC87830B1012838D0022859
:100D700014D0032846D121E00E787600206830F8A0
:100D8000160048F68F16304040F4007691F800C007
:100D90004FEA4C0C206820F81C6033E00E78760097
:100DA000206830F8160048F68F16304091F800C0E1
:100DB0004FEA4C0C266826F81C0023E00E787600DB
:100DC000206830F8160048F68F16304040F4C066B0
:100DD00091F800C04FEA4C0C206820F81C6011E02C
:100DE0000E787600206830F8160048F68F163040EE
:100DF00040F4806691F800C04FEA4C0C206820F85F
:100E00001C6000BF00BF0E787600206830F8160026
:100E100048F68F76304048F2800630430E783043F3
:100E200091F800C04FEA4C0C266826F81C00887A1E
:100E300000287DD14878E8B38888401046002068B3
:100E4000B0F850C008780CEBC00C206800F580604A
:100E50002CF800600E787600206830F8160000F05C
:100E6000400088B10E787600206830F8160048F609
:100E70008F76304048F2C006304391F800C04FEA08
:100E80004C0C266826F81C0091F800C04FEA4C0C68
:100E9000266836F81C6048F6BF7C06EA0C0080F035
:100EA000200040F4004646F0800691F800804FEAAA
:100EB000480800E004E0D4F800C02CF81860A7E16E
:100EC000888840104FEA400C2068B0F850600878DD
:100ED00006EBC000001D266806F5806620F806C0F7
:100EE0002068B0F850C008780CEBC000801DD4F822
:100EF00000C00CF5806C00EB0C06D1F80CC0BCF106
:100F00003E0F16D9D1F80CC0CCF34F1091F80CC09D
:100F10000CF01F0CBCF1000F03D1A0F1010C1FFA63
:100F20008CF04FF4004C4CEA802CA6F800C015E081
:100F30004AE0D1F80CC0CCF34F0091F80CC00CF093
:100F4000010CBCF1000F03D000F1010C1FFA8CF072
:100F50004FF6FF7C0CEA802CA6F800C00E787600D5
:100F6000206830F8160000F4804088B10E787600D2
:100F7000206830F8160048F68F7630404CF2800634
:100F8000304391F800C04FEA4C0C266826F81C004C
:100F900091F800C04FEA4C0C266836F81C604BF6FE
:100FA0008F7C06EA0C0080F4805080F4005040F4FE
:100FB000004646F0800691F800804FEA4808D4F8D1
:100FC00000C02CF8186023E10E787600206830F815
:100FD000160040F4807048F68F76304048F2800664
:100FE000304391F800C04FEA4C0C266826F81C00EC
:100FF000C888401046002068B0F850C008780CEB54
:10100000C00C206800F580602CF800600889401052
:101010004FEA400C2068B0F85060087806EBC0003A
:10102000001D266806F5806620F806C0487800286E
:1010300079D10E787600206830F8160000F48040F0
:1010400088B10E787600206830F8160048F68F7662
:1010500030404CF28006304391F800C04FEA4C0C0F
:10106000266826F81C000E787600206830F81600F6
:1010700000F0400088B10E787600206830F8160045
:1010800048F68F76304048F2C006304391F800C0F1
:101090004FEA4C0C266826F81C000E787600206873
:1010A00030F8160048F68F76304048F2C0063043DC
:1010B00091F800C04FEA4C0C266826F81C0091F805
:1010C00000C04FEA4C0C266836F81C604BF68F7C4B
:1010D00006EA0C0080F4805080F4005040F4004692
:1010E00046F0800691F800804FEA4808D4F800C026
:1010F0002CF8186091F800C04FEA4C0C266836F8BE
:101100001C6048F6BF7C06EA0C0040F4004646F03E
:10111000800691F800804FEA4808D4F800C02CF807
:10112000186075E0FFE70E787600206830F816004A
:1011300000F4804088B10E787600206830F8160000
:1011400048F68F7630404CF28006304391F800C06C
:101150004FEA4C0C266826F81C000E7876002068B2
:1011600030F8160000F0400088B10E787600206854
:1011700030F8160048F68F76304048F2C00630430B
:1011800091F800C04FEA4C0C266826F81C000E7837
:101190007600206830F8160048F68F7630404CF222
:1011A0008006304391F800C04FEA4C0C266826F8C0
:1011B0001C0091F800C04FEA4C0C266836F81C6001
:1011C00048F6BF7C06EA0C0040F4004646F0800674
:1011D00091F800804FEA4808D4F800C02CF8186055
:1011E00091F800C04FEA4C0C266836F81C604BF6AC
:1011F0008F7C06EA0C0040F4004646F0800691F829
:1012000000804FEA4808D4F800C02CF8186000BFEE
:1012100000BF002084F8700300BF38469DE5F0B59C
:1012200004460D4605F07F00C0EBC00604F5E670ED
:1012300000EB86010A614B6100208861487005F06F
:101240007F00087000BF94F87003012801D10220CC
:10125000F0BD012084F8700300BFCE684869B04239
:1012600004D9CB684869C01A486102E04B69002084
:101270004861887A30BB2068B0F85070087807EB76
:10128000C000801D276807F58067C6193E2B0CD962
:10129000C3F34F1003F01F070FB9471EB8B24FF446
:1012A000004747EA802737800BE0C3F34F0003F085
:1012B00001070FB1471CB8B24FF6FF7707EA802746
:1012C000378036E0487830BB2068B0F85070087836
:1012D00007EBC000801D276807F58067C6193E2B05
:1012E0000CD9C3F34F1003F01F070FB9471EB8B254
:1012F0004FF4004747EA802737800BE0C3F34F00E5
:1013000003F001070FB1471CB8B24FF6FF7707EAA9
:10131000802737800DE0487801280AD12068B0F88E
:101320005060087806EBC006B61D206800F58060A6
:1013300033520F787F00266836F817604BF68F77A8
:1013400006EA070080F4805080F4005040F4004624
:1013500046F0800691F800C04FEA4C0C276827F849
:101360001C6000BF002084F8700300BF00BF6FE75F
:1013700070B502460B4600BF92F87003012801D1F8
:10138000022070BD012082F8700300BF03F08000CE
:10139000802808D103F07F00C0EBC00402F12800D0
:1013A00000EB840105E0C3EBC30402F5E67000EB3B
:1013B00084010120887003F07F000870C3F3C0101F
:1013C00048700878B0B90D786D00146834F815408D
:1013D0004BF6BF7504EA050080F4805080F01000E1
:1013E00040F4004444F080040E787600156825F837
:1013F00016402BE04878A0B10D786D00146834F8E1
:10140000154048F6BF7504EA050080F0100040F46E
:10141000004444F080040E787600156825F81640E4
:1014200014E00D786D00146834F815404BF68F7594
:1014300004EA050080F4805040F4004444F0800445
:101440000E787600156825F8164000BF00BF002012
:1014500082F8700300BF00BF93E72DE9F04705460F
:101460000F4690461E464FF0000907F07F00C0EB84
:10147000C00105F1280000EB8104C4F8108066610A
:101480000020A0610120607007F07F00207000BF85
:1014900095F87003012802D10220BDE8F0870120F1
:1014A00085F8700300BFE1686069884204D9E66886
:1014B0006069801B606102E0666900206061A07A5B
:1014C00088B9B3B2A2882169286802F0DCFA2868DA
:1014D000B0F85010207801EBC000801C296801F59D
:1014E0008061465238E021784900286830F81100C0
:1014F00000F0400010B1B4F8089001E0B4F8069094
:10150000B3B221694A46286802F0BDFA607880B912
:1015100021784900286830F8110048F68F7108409A
:1015200048F2C001084322785200296821F81200CD
:1015300012E0607801280FD121784900286830F83E
:10154000110048F68F7108404CF280010843227860
:101550005200296821F8120022785200296831F8D7
:10156000121048F6BF7201EA020080F0100080F00D
:10157000200040F4004141F0800223785B0029689C
:1015800021F8132000BF002085F8700300BF00BFC2
:1015900083E770B5044600252068B0F8440000F4E5
:1015A0000040B0F5004F02D1204602F045F8206817
:1015B000B0F8440000F48060B0F5806F0ED1206870
:1015C000B0F8440020F480602168A1F8440020466F
:1015D00000F091F80021204600F0B0F82068B0F843
:1015E000440000F48040B0F5804F07D12068B0F887
:1015F000440020F480402168A1F844002068B0F83D
:10160000440000F40050B0F5005F07D12068B0F846
:10161000440020F400502168A1F844002068B0F88C
:10162000440000F48050B0F5805F17D12068B0F816
:10163000400020F004002168A1F840004FF43D452F
:101640002068A0F84050204600F06AF82068B0F802
:10165000440020F480502168A1F844002068B0F8CC
:10166000440000F40060B0F5006F20D12068B0F8AD
:10167000440020F400602168A1F844002068B0F81C
:10168000400040F008002168A1F840002068B0F850
:10169000400040F004002168A1F840002068B0F844
:1016A0004400C0F3003010B9204600F06BF8206809
:1016B000B0F8440000F40070B0F5007F0AD1206853
:1016C000B0F8440020F400702168A1F844002046DE
:1016D00000F02DF82068B0F8440000F48070B0F5F8
:1016E000807F07D12068B0F8440020F48070216822
:1016F000A1F8440070BD70B504460125A068022819
:1017000001D100BF01E0012500BF00BF2946D4F888
:10171000A40303F016FBD4F8A40303F0D8FA70BDB9
:1017200010B50446D4F8A40303F0F3FA10BD10B5C5
:101730000446D4F8A40303F0F3FA10BD024600BF38
:1017400092F87003012801D102207047012082F82D
:10175000700300BF21B980201368A3F84C0001E09A
:1017600082F8241000BF002082F8700300BF00BF81
:10177000EBE710B5044604F55D71D4F8A40303F05B
:10178000EEFA10BD10B50446D4F8A40303F028FB0C
:10179000A06928B10348006840F0060001490860CC
:1017A00010BD000010ED00E0F8B50446002600254D
:1017B000206800F48030B0F5803F75D10027E24802
:1017C000C06900F0805070B900BFDF48C06940F0C8
:1017D0008050DD49C8610846C06900F08050009023
:1017E00000BF00BF0127D948006800F48070B0B97D
:1017F000D648006840F48070D4490860FFF702F9C9
:10180000064606E0FFF7FEF8801B642801D9032096
:10181000F8BDCE48006800F480700028F2D0CA48B5
:10182000006A00F44075002D6CD0A08800F4407070
:10183000A84267D0C448006A20F440750120010422
:1018400091FAA1F1B1FA81F1C14A02EB8101C1F82B
:10185000000400204FF4803191FAA1F1B1FA81F136
:1018600002EB8101C1F80004B748056205F00100F0
:10187000B8B3FFF7C7F8064608E0FFF7C3F8801BC8
:1018800041F28831884201D90320C1E7402002217A
:1018900091FAA1F1B1FA81F108430121B1EB601F86
:1018A00003D1A94800681FE03CE04020022191FAE2
:1018B000A1F1B1FA81F108430221B1EB601F02D11D
:1018C000A148006A10E04020022191FAA1F1B1FA8A
:1018D00081F108430421B1EB601F03D19A484068AD
:1018E00002E00FE09848406A4021022292FAA2F2F8
:1018F000B2FA82F2114301F01F0201219140084027
:101900000028BAD09048006A20F44070616808430B
:101910008D490862012F04D10846C06920F080502B
:10192000C86100BF207800F0010038B18648006B24
:1019300020F00300A168084383490863207800F081
:101940000200022807D18048006B20F44030E16893
:1019500008437D490863207800F00400042807D17B
:101960007948006B20F440202169084376490863D8
:10197000207800F02000202807D17348006B20F069
:101980001000E169084370490863206800F40030E2
:10199000B0F5003F07D16C48406820F48000616DCD
:1019A000084369494860207800F04000402807D18A
:1019B0006548006B20F02000216A084362490863F3
:1019C000206800F48020B0F5802F07D15E48006BBE
:1019D00020F04000616A08435B490863207800F00A
:1019E0000800082807D15848006B20F440106169AE
:1019F000084355490863207800F01000102807D1EB
:101A00005148006B20F44000A16908434E49086327
:101A1000208800F40070B0F5007F07D14A48406884
:101A200020F40000216B084347494860207800F00B
:101A30008000802807D14448C06A20F4F870A16A69
:101A400008434149C862208800F48070B0F5807F67
:101A500007D13D48C06A20F47850E16A08433A490A
:101A6000C862208800F48050B0F5805F07D1364806
:101A7000006B20F48070616B084333490863208851
:101A800000F40050B0F5005F07D12F48006B20F440
:101A90000070216C08432C490863206800F4801012
:101AA000B0F5801F07D12848006B20F08070A16B33
:101AB000084325490863206800F40010B0F5001FB2
:101AC00007D12148006B20F00070E16B08431E49EC
:101AD0000863206800F48000B0F5800F07D11A4831
:101AE000006B20F48060616C08431749086320682C
:101AF00000F40000B0F5000F07D11348006B20F48C
:101B00000060A16C084310490863206800F08070F1
:101B1000B0F1807F07D10C48006B20F40050E16CDD
:101B2000084309490863206800F00070B0F1007FA5
:101B300007D10548006B20F40040216D084302499D
:101B40000863002064E600000010024000700040BE
:101B50000000424270B504460D460026B4480068B5
:101B600000F00700A8420ED2B148006820F007003C
:101B70002843AF4908600846006800F00700A84203
:101B800001D0012070BD207800F00200022807D1AA
:101B9000A848406820F0F000A1680843A5494860C3
:101BA000207800F0010000287CD0606801283BD13B
:101BB0002020010391FAA1F1B1FA81F1084301213A
:101BC000B1EB601F02D19B4800681DE0202001039B
:101BD00091FAA1F1B1FA81F108430221B1EB601F42
:101BE00002D19448006A0FE02020010391FAA1F18C
:101BF000B1FA81F108430421B1EB601F02D18D4895
:101C0000406801E08B48406A20210A0392FAA2F260
:101C1000B2FA82F2114301F01F0201219140084003
:101C200000287CD10120ADE7606802283BD120204C
:101C3000010591FAA1F1B1FA81F108430121B1EB5B
:101C4000601F02D17B4800681DE02020010591FA49
:101C5000A1F1B1FA81F108430221B1EB601F02D179
:101C60007448006A0FE02020010591FAA1F1B1FA51
:101C700081F108430421B1EB601F02D16D48406837
:101C800001E06C48406A20210A0592FAA2F2B2FAF9
:101C900082F2114301F01F02012191400840E8BB8C
:101CA00001206FE77EE02020022191FAA1F1B1FA34
:101CB00081F108430121B1EB601F02D15D4800684A
:101CC0001DE02020022191FAA1F1B1FA81F108432F
:101CD0000221B1EB601F02D15648006A0FE02020BC
:101CE000022191FAA1F1B1FA81F108430421B1EB8B
:101CF000601F02D14F48406801E04E48406A2021F1
:101D0000022292FAA2F2B2FA82F2114301F01F0209
:101D100001219140084008B9012033E7FFE7454819
:101D2000406820F003006168084342494860FEF7BC
:101D300069FE06466068012810D108E0FEF762FEE1
:101D4000801B41F28831884201D903201AE73948C3
:101D5000406800F00C000428F0D123E060680228FD
:101D600010D108E0FEF74EFE801B41F28831884218
:101D700001D9032006E72F48406800F00C0008282E
:101D8000F0D10FE008E0FEF73DFE801B41F2883104
:101D9000884201D90320F5E62648406800F00C008F
:101DA0000028F0D12248006800F00700A8420ED9B0
:101DB0001F48006820F0070028431D4908600846B6
:101DC000006800F00700A84201D00120DAE6207880
:101DD00000F00400042807D11648406820F4E060B1
:101DE000E168084313494860207800F0080008289B
:101DF00008D11048406820F46050216940EAC100D1
:101E00000C49486000F022F80A49496801F0F001E5
:101E1000F02292FAA2F2B2FA82F2D140064A515C62
:101E2000C840064908600020FEF70EFE0020A9E623
:101E30000020024000100240B4590008D0010020E8
:101E40000148006870470000D001002070B50021F3
:101E500000220024002300201D4D696801F00C05BC
:101E60007DB3042D02D0082D2CD101E019482CE0BF
:101E700001F470154FF4701696FAA6F6B6FA86F6C7
:101E8000F540154E735D124DED6A05F00F050F26F6
:101E900096FAA6F6B6FA86F6F540104E725D01F493
:101EA0008035B5F5803F05D10A4DB5FBF2F505FB50
:101EB00003F404E00A4DB5FBF2F505FB03F42046FC
:101EC00003E000E000BF064800BF00BF70BD000097
:101ED00000100240001BB700645900087459000844
:101EE00000127A00F8B504460025207800F00100C1
:101EF00000287BD0FD48406800F00C0004280CD07E
:101F0000FA48406800F00C00082845D1F7484068BE
:101F100000F4C030B0F5803F3ED12020010391FA9B
:101F2000A1F1B1FA81F108430121B1EB601F02D1A7
:101F3000EE4800681DE02020010391FAA1F1B1FAFA
:101F400081F108430221B1EB601F02D1E748006A2A
:101F50000FE02020010391FAA1F1B1FA81F10843C9
:101F60000421B1EB601F02D1E048406801E0DF4886
:101F7000406A20210A0392FAA2F2B2FA82F21143D5
:101F800001F01F020121914008400028B1D0606893
:101F900000282BD10120F8BD00BF6068B0F5803F5C
:101FA00006D1D248006840F48030D049086029E06A
:101FB000606858B9CD48006820F48030CB4908608B
:101FC0000846006820F4802008601BE06068B0F5D7
:101FD000A02F0CD1C548006840F48020C349086098
:101FE0000846006840F4803008600BE099E0BF4884
:101FF000006820F48030BD4908600846006820F47D
:102000008020086000BF6068A0B3FEF7FBFC0546B7
:1020100006E0FEF7F7FC401B642801D90320BAE76D
:102020002020010391FAA1F1B1FA81F108430121C5
:10203000B1EB601F02D1AD4800681EE02020010313
:1020400091FAA1F1B1FA81F108430221B1EB601FCD
:1020500002D1A648006A10E02020010391FAA1F104
:10206000B1FA81F108430421B1EB601F03D19F480D
:10207000406802E010E09D48406A20210A0392FA7D
:10208000A2F2B2FA82F2114301F01F020121914043
:1020900008400028BDD044E0FEF7B4FC054606E049
:1020A000FEF7B0FC401B642801D9032073E7202011
:1020B000010391FAA1F1B1FA81F108430121B1EBD9
:1020C000601F02D1894800681DE02020010391FAB9
:1020D000A1F1B1FA81F108430221B1EB601F02D1F5
:1020E0008248006A0FE02020010391FAA1F1B1FAC1
:1020F00081F108430421B1EB601F02D17B484068A5
:1021000001E07A48406A20210A0392FAA2F2B2FA68
:1021100082F2114301F01F02012191400840002882
:10212000BED1207800F0020002285DD16F484068DF
:1021300000F00C0060B16D48406800F00C00082809
:1021400053D16A48406800F4C030B0F5004F4CD11C
:102150002020022191FAA1F1B1FA81F10843012175
:10216000B1EB601F02D1614800681DE02020022110
:1021700091FAA1F1B1FA81F108430221B1EB601F9C
:1021800002D15A48006A0FE02020022191FAA1F101
:10219000B1FA81F108430421B1EB601F02D1534829
:1021A000406801E05148406A2021022292FAA2F2DE
:1021B000B2FA82F2114301F01F020121914008405E
:1021C00020B1E068012801D00120E4E6474800681A
:1021D00020F0F800F82292FAA2F2B2FA82F2216913
:1021E0009140084341490860B0E0E068E0B3012055
:1021F00090FAA0F1B1FA81F13D4A42F82100FEF7D0
:1022000001FC054606E0FEF7FDFB401B022801D954
:102210000320C0E62020022191FAA1F1B1FA81F158
:1022200008430121B1EB601F02D1304800681EE075
:102230002020022191FAA1F1B1FA81F10843022193
:10224000B1EB601F02D12948006A10E02020022172
:1022500091FAA1F1B1FA81F108430421B1EB601FB9
:1022600003D12248406802E01EE02048406A202155
:10227000022292FAA2F2B2FA82F2114301F01F0294
:102280000121914008400028BDD01848006820F086
:10229000F800F82292FAA2F2B2FA82F22169914091
:1022A00008431249086051E00020012191FAA1F190
:1022B000B1FA81F10E4A42F82100FEF7A3FB054670
:1022C00006E0FEF79FFB401B022801D9032062E6CF
:1022D0002020022191FAA1F1B1FA81F108430121F4
:1022E000B1EB601F06D10148006821E000100240F8
:1022F000000042422020022191FAA1F1B1FA81F1BD
:1023000008430221B1EB601F02D1F848006A0FE0D8
:102310002020022191FAA1F1B1FA81F108430421B0
:10232000B1EB601F02D1F148406801E0EF48406A1C
:102330002021022292FAA2F2B2FA82F2114301F0B3
:102340001F020121914008400028BAD1207800F0F6
:102350000800082851D1606980B3012090FAA0F1EB
:10236000B1FA81F1E24A02EB8101C1F88004FEF783
:1023700049FB054606E0FEF745FB401B022801D954
:10238000032008E66020022191FAA1F1B1FA81F15F
:1023900008430121B1EB601F02D1D44800681EE060
:1023A0006020022191FAA1F1B1FA81F108430221E2
:1023B000B1EB601F03D1CD48006A10E01EE0602041
:1023C000022191FAA1F1B1FA81F108430421B1EBA4
:1023D000601F02D1C548406801E0C448406A6021DE
:1023E000022292FAA2F2B2FA82F2114301F01F0223
:1023F0000121914008400028BDD04FE0002101207C
:1024000090FAA0F0B0FA80F0B94A02EB8000C0F870
:102410008014FEF7F7FA054606E0FEF7F3FA401BD4
:10242000022801D90320B6E56020022191FAA1F12A
:10243000B1FA81F108430121B1EB601F02D1AB4831
:1024400000681DE06020022191FAA1F1B1FA81F14A
:1024500008430221B1EB601F02D1A448006A0FE0DB
:102460006020022191FAA1F1B1FA81F1084304211F
:10247000B1EB601F02D19D48406801E09B48406A73
:102480006021022292FAA2F2B2FA82F2114301F022
:102490001F020121914008400028BED1207800F0A1
:1024A0000400042873D100269048C06900F08050D1
:1024B00070B900BF8D48C06940F080508B49C86139
:1024C0000846C06900F08050009000BF00BF0126A0
:1024D0008848006800F48070B0B98648006840F40D
:1024E000807084490860FEF78DFA054606E0FEF725
:1024F00089FA401B642801D903204CE57D48006817
:1025000000F480700028F2D000BFA068012806D136
:102510007648006A40F001007449086227E0A0682C
:1025200058B97248006A20F00100704908620846F4
:10253000006A20F00400086219E0A06805280BD1A9
:102540006A48006A40F00400684908620846006A68
:1025500040F0010008620AE06448006A20F00100CF
:10256000624908620846006A20F00400086200BF61
:10257000A068B8B3FEF746FA054609E0FEF742FA4E
:10258000401B41F28831884202D9032003E58BE0E9
:102590004020022191FAA1F1B1FA81F10843012111
:1025A000B1EB601F02D1514800681EE040200221BB
:1025B00091FAA1F1B1FA81F108430221B1EB601F58
:1025C00002D14A48006A10E04020022191FAA1F1AC
:1025D000B1FA81F108430421B1EB601F03D14348F4
:1025E000406802E010E04148406A4021022292FA2D
:1025F000A2F2B2FA82F2114301F01F0201219140CE
:1026000008400028BAD046E0FEF7FCF9054608E08D
:10261000FEF7F8F9401B41F28831884201D90320C6
:10262000B9E44020022191FAA1F1B1FA81F1084305
:102630000121B1EB601F02D12C4800681DE0402051
:10264000022191FAA1F1B1FA81F108430221B1EB23
:10265000601F02D12548006A0FE04020022191FA54
:10266000A1F1B1FA81F108430421B1EB601F02D15D
:102670001E48406801E01D48406A4021022292FA4B
:10268000A2F2B2FA82F2114301F01F02012191403D
:1026900008400028BCD1012E05D11448C06920F0A3
:1026A00080501249C86100BFA06900287ED00F4841
:1026B000406800F00C00082879D0A069022877D182
:1026C00000204FF0807191FAA1F1B1FA81F1084A2E
:1026D00042F82100FEF796F905460DE0FEF792F963
:1026E000401B022808D9032055E4000000100240D6
:1026F00000004242007000402020010591FAA1F143
:10270000B1FA81F108430121B1EB601F02D1754894
:1027100000681DE02020010591FAA1F1B1FA81F1D4
:1027200008430221B1EB601F02D16E48006A0FE03E
:102730002020010591FAA1F1B1FA81F108430421A9
:10274000B1EB601F02D16748406801E06548406A0C
:1027500020210A0592FAA2F2B2FA82F2114301F0A4
:102760001F020121914008400028B7D100BF5D48F9
:10277000C06A20F00F00616A08435A49C862D4E970
:10278000071008435749496821F476110843554911
:10279000486000BF0120010691FAA1F1B1FA81F170
:1027A000514A42F82100FEF72DF902E097E094E04B
:1027B00043E0054606E0FEF725F9401B022801D953
:1027C00003202CE42020010591FAA1F1B1FA81F156
:1027D00008430121B1EB601F02D1424800681DE0AF
:1027E0002020010591FAA1F1B1FA81F108430221FB
:1027F000B1EB601F02D13B48006A0FE020200105C9
:1028000091FAA1F1B1FA81F108430421B1EB601F03
:1028100002D13448406801E03248406A20210A056C
:1028200092FAA2F2B2FA82F2114301F01F020121E0
:10283000914008400028BED051E000204FF0807148
:1028400091FAA1F1B1FA81F1274A42F82100FEF78D
:10285000D9F8054606E0FEF7D5F8401B022801D955
:10286000032023E42020010591FAA1F1B1FA81F1BE
:1028700008430121B1EB601F02D11A4800681DE036
:102880002020010591FAA1F1B1FA81F1084302215A
:10289000B1EB601F02D11348006A0FE02020010550
:1028A00091FAA1F1B1FA81F108430421B1EB601F63
:1028B00002D10C48406801E00A48406A20210A051C
:1028C00092FAA2F2B2FA82F2114301F01F02012140
:1028D000914008400028BED101E0012075E40020AD
:1028E00073E40000001002400000424270B504464C
:1028F0000CB9012070BD94F85D0028B9002084F85F
:102900005C00204600F05AF8022084F85D00206840
:10291000006820F0400021680860E068B0F5E06FD2
:1029200001D9002501E04FF48055E068B0F5706FE3
:1029300005D0E068B0F5E06F01D00021A162206B06
:1029400040B9E068B0F5E06F02D90221216301E0EF
:1029500001212163D4E90101084321690843616928
:102960000843218B01F400710843E1690843216A9F
:102970000843A16A084321680860206B022805D13A
:102980002068006840F40060216808600421A069A4
:1029900001EA1040616A0843616B0843E16808433B
:1029A0002843216848602168E06A086100202066A9
:1029B000012084F85D0000209CE7000010B586B07F
:1029C00004462249206888421DD100BF2048806902
:1029D00040F480501E4988610846806900F48050A8
:1029E000009000BF00BFE020019002200290002074
:1029F0000390032004900520059001A94FF090401A
:102A0000FDF706FF20E01349206888421CD100BF73
:102A10000F48C06940F400400D49C8610846C069CC
:102A200000F40040009000BF00BF4FF4E050019060
:102A300002200290002003900320049006200590BD
:102A400001A90548FDF7E4FE06B010BD00300140C5
:102A500000100240003C0040000800482DE9F84FFB
:102A600004460F4690461D460A9EFDF7CBFF814661
:102A70004FF0000A00BF94F85C00012802D1022048
:102A8000BDE8F88F012084F85C0000BF94F85D0079
:102A9000012802D04FF0020A78E11FB1B8F1000F0F
:102AA00000D015B94FF0010A70E1052084F85D00EF
:102AB00000202066C4F84080A4F84650A4F8445092
:102AC000A763E587A587A06AB0F5005F0ED100BFB8
:102AD000206800684DF6FF71084021680860206892
:102AE000006840F400502168086000BFE068B0F55D
:102AF000E06F03D8B4F84600012806DD206840687E
:102B000020F480502168486005E02068406840F467
:102B10008050216848602068006800F0400040282C
:102B200005D02068006840F0400021680860E06837
:102B3000B0F5E06F58D94FE0E08F00282CDD206819
:102B4000806800F00200022826D1A06B008821686E
:102B5000C860A06B801CA063E08F401EE087E08F00
:102B6000D0B9A06AB0F5005F16D12068006800F007
:102B7000040058B92068406800F00800082805D112
:102B80002068006840F400702168086020680068D0
:102B900040F4805021680860B4F84600002810DD39
:102BA0002068806800F0010058B12068C068216C7E
:102BB0000880206C801C2064B4F84600401EA4F8F5
:102BC0004600701C40B1FDF71DFFA0EB0900B042AC
:102BD00002D34FF0030AD9E0E08F0028ACDCB4F850
:102BE00046000028A8DC7EE076E0E08F002839DD92
:102BF0002068806800F00200022833D1E08F0128AD
:102C00000ADDA06B00882168C860A06B801CA063EF
:102C1000E08F801EE08708E0A16B481CA063087865
:102C200021680873E08F401EE087E08FD0B9A06A6A
:102C3000B0F5005F16D12068006800F0040058B9B4
:102C40002068406800F00800082805D12068006866
:102C500040F40070216808602068006840F48050EB
:102C600021680860B4F8460000282ADD20688068E2
:102C700000F0010028B3B4F84600012816DD2068F2
:102C8000C068216C0880206C801C2064B4F8460069
:102C9000801EA4F84600B4F84600012811DC206824
:102CA000406840F48050216848600AE02068017B59
:102CB000226C501C20641170B4F84600401EA4F829
:102CC0004600701C40B1FDF79DFEA0EB0900B0422C
:102CD00002D34FF0030A59E0E08F002885DCB4F8F6
:102CE0004600002881DCA06AB0F5005F33D133468E
:102CF00001221146204601F040FB30B1206E40F029
:102D0000020020664FF0030A40E0E068B0F5706F03
:102D100006D12068C06880B20090BDF800001AE0BB
:102D20002068007B0090BDF80000206B022812D1C3
:102D3000334601221146204601F01FFB30B1206EC0
:102D400040F0020020664FF0030A1FE02068007B7D
:102D50000090BDF8000020688068C0F3001048B102
:102D6000206E40F0020020664FF6EF702168886008
:102D70004FF0010A3146204601F085FA08B12020C3
:102D80002066206E08B14FF0010A00BF012084F8D0
:102D90005D0000BF002084F85C0000BF50466FE675
:102DA000042808D14FF0E021096941F004014FF0F7
:102DB000E022116107E04FF0E021096921F00401F0
:102DC0004FF0E02211617047704770B50446254608
:102DD000681EB0F1807F01D301200FE0681E4FF024
:102DE000E02148610F214FF0FF3000F011FC00207E
:102DF0004FF0E021886107200861002070BD10B508
:102E0000FFF7E2FF10BD70477047000030B5024683
:102E10000B4600BF92F83800012801D1022030BDD6
:102E2000012082F8380000BF10684168106884688B
:102E3000114D1068A84207D0104D1068A84203D069
:102E40000F4D1068A84203D121F470015868014366
:102E500021F070011868014324F08004986804434D
:102E6000106841601068846000BF002082F838005C
:102E700000BF00BFD3E70000002C01400034014038
:102E80000050014010B504460CB9012010BD94F863
:102E9000390028B9002084F83800204600F00CF8EA
:102EA000022084F83900211D206801F00BFC01206C
:102EB00084F839000020E9E738B504462068B0F10D
:102EC000804F15D100BF0B48C06940F0010009498F
:102ED000C8610846C06900F00100009000BF00BF53
:102EE000002211461C20FDF70CFE1C20FDF7FCFD06
:102EF00038BD00000010024001460868C06840F07C
:102F000001000A68D0600868006840F001000A68A3
:102F100010600020704700002DE9F04104460D4686
:102F2000002600BF94F83800012802D10220BDE835
:102F3000F081012084F8380000BF022084F83900B5
:102F4000206886684148064026F47F4620688660EF
:102F5000286850283CD00CDC202861D004DC0028F4
:102F600054D0102866D156E030285ED0402861D178
:102F700042E0602836D070280ED0B0F5805F03D0D4
:102F8000B0F5005F56D116E0206880682F49703197
:102F90000840216888604EE0D5E902136A6820681D
:102FA00001F0F4FB206886682848064046F0770662
:102FB000206886603FE0D5E902136A68206801F066
:102FC000E5FB2068806840F480402168886032E03A
:102FD000EA686968206801F0EFFB5021206801F081
:102FE000E1FB28E0EA686968206801F0FAFB6021EB
:102FF000206801F0D7FB1EE0EA686968206801F0EC
:10300000DBFB4021206801F0CDFB14E000212068AB
:1030100001F0C8FB0FE01021206801F0C3FB0AE0BB
:103020002021206801F0BEFB05E03021206801F07E
:10303000B9FB00E000BF00BF012084F8390000BFE9
:10304000002084F8380000BF00BF70E788FFFEFF53
:10305000704710B5044620680069C0F34000D8B13D
:103060002068C068C0F34000B0B16FF00200216872
:103070000861012020762068806900F0030018B103
:103080002046FFF7E5FF05E0204600F0ADF82046BA
:1030900000F0ABF80020207620680069C0F38000C3
:1030A000D8B12068C068C0F38000B0B16FF00400F0
:1030B00021680861022020762068806900F4407051
:1030C00018B12046FFF7C4FF05E0204600F08CF859
:1030D000204600F08AF80020207620680069C0F3BE
:1030E000C000D8B12068C068C0F3C000B0B16FF0B4
:1030F000080021680861042020762068C06900F07B
:10310000030018B12046FFF7A3FF05E0204600F0BA
:103110006BF8204600F069F80020207620680069EE
:10312000C0F30010D8B12068C068C0F30010B0B17F
:103130006FF0100021680861082020762068C069BF
:1031400000F4407018B12046FFF782FF05E02046EA
:1031500000F04AF8204600F048F800202076206869
:10316000006900F0010058B12068C06800F001005B
:1031700030B16FF0010021680861204600F036F898
:1031800020680069C0F3C01058B12068C068C0F35F
:10319000C01030B16FF08000216808612046FFF751
:1031A00032FE20680069C0F3801058B12068C06802
:1031B000C0F3801030B16FF04000216808612046F4
:1031C00000F02EF820680069C0F3401058B1206864
:1031D000C068C0F3401030B16FF020002168086172
:1031E0002046FFF711FE10BD7047704710B504462A
:1031F0000848007868B10848006828B10548007898
:1032000010B105480068804704480068401C034925
:10321000086010BD0C000020040000200800002001
:1032200070472DE9F84307460D461646B8462DE08F
:10323000B5F5805F01DB344618E0042E01DD042083
:1032400000E03046044605F0010008B101240DE01D
:1032500005F0020038B104F0010008B1012000E0DF
:103260000220044602E0032C00D1012400F074FC8B
:10327000009022462946404600F027FC009800F0C6
:103280006FFD301B86B2A044281985B2002ECFDC1A
:10329000BDE8F8832DE9F04107460D461646B846CD
:1032A00027E0B5F5805F01DB344618E0042E01DD30
:1032B000042000E03046044605F0010008B1012476
:1032C0000DE005F0020038B104F0010008B1012062
:1032D00000E00220044602E0032C00D10124224633
:1032E0002946404600F0F1FB301B86B2A044281965
:1032F00085B2002ED5DCBDE8F0812DE9F843074604
:103300000D461646B8462DE0B5F5805F01DB344624
:1033100018E0042E01DD042000E03046044605F0EC
:10332000010008B101240DE005F0020038B104F0FD
:10333000010008B1012000E00220044602E0032C55
:1033400000D1012400F008FC0090224629464046A6
:1033500000F0D6FB009800F003FD301B86B2A044BD
:10336000281985B2002ECFD1BDE8F8832DE9F041B0
:1033700007460D461646B84627E0B5F5805F01DBE7
:10338000344618E0042E01DD042000E030460446F7
:1033900005F0010008B101240DE005F0020038B18C
:1033A00004F0010008B1012000E00220044602E020
:1033B000032C00D1012422462946404600F0A0FB00
:1033C000301B86B2A044281985B2002ED5D1BDE8A5
:1033D000F081000010B500F0DFF80148008810BD52
:1033E0003400002010B500F0DCFB10BD38B500251E
:1033F00000F0DCFB224800F0A9FB224800F094FB1F
:10340000214800F097FB214800F09AFB00BF6420A0
:1034100000F053FB04461E488442F8D100BF9320BD
:10342000009002224FF401716846FFF766FF00200A
:10343000009002224FF401716846FFF7F2FEBDF8DA
:1034400000009328EBD14FF480745421204600F003
:103450004FFB01245C21204600F04AFB582000F07D
:103460002CFB044600F0C6FB00F0DCFB002000F063
:1034700011F800F0B1FB00F083FB002038BD000024
:1034800081040008413C000821440008514500081F
:10349000214365871CB5044602224FF4017168463A
:1034A000FFF7BFFEBDF800002040009000F054FB85
:1034B000019002224FF401716846FFF71EFF0222BD
:1034C0004FF401710348FFF7ACFE019800F048FC8F
:1034D0001CBD00003600002070B504460D4629468C
:1034E000204600F04FFC70BD70B5224800780028DF
:1034F0003FD12148007800283BD000251F48808B11
:10350000012800D1012585B100201C49486088832D
:103510001B49486088831B49088001201A490870AC
:10352000FFF760FF1949086022E01748007801287A
:103530001ED1FFF757FF064600BF14480068301A37
:10354000134948430A2190FBF1F10E48008843F6E5
:103550000952504301EB8014084844600848446015
:10356000002008490880094908600749087000BF21
:1035700000BF70BD200100203C010020CC080020CD
:1035800010090020500000205800002054000020A6
:1035900040420F0000BFFEE710B502224FF4087151
:1035A0000148FFF777FE10BD3400002000B587B05A
:1035B00000BF1048406940F400300E494861084699
:1035C000406900F40030019000BF00BF00220721D5
:1035D0004FF09040FDF710FA072002900120039071
:1035E00000200490059002A94FF09040FDF710F9DB
:1035F00007B000BD0010024000BFFEE770470000AA
:1036000002480068C0F30220704700000CED00E0A3
:1036100010B5002807DA0A07140E054A00F00F0358
:103620001B1FD45403E00A07130E024A135410BDA3
:1036300018ED00E000E400E02DE9FC41054600271C
:103640000020009003E2BDF8040000F00F06002EF9
:103650007ED1BDF8040000F0100080BB286800880F
:1036600048F60F7108402968088005F12804286889
:10367000B0F85010207801EBC000801C296801F5DB
:103680008061405AC0F30900A061A1692069084423
:10369000206100212846FDF787FA95F824000028CC
:1036A000D0DD60690028CDD195F8240040F080007D
:1036B0002968A1F84C00002085F82400C7E1FFE745
:1036C00005F5E674286800880090BDF8000000F455
:1036D000006010B32868B0F85010207801EBC000EB
:1036E000801D296801F58061405AC0F30900A0617E
:1036F000218B8BB2A28805F55D71286800F0B2F9C4
:1037000028680088C0F30E0048F68F7108402968C9
:1037100008802846FEF72DF899E1BDF8000000F476
:10372000004000288ED028680088C0F30E0048F6BC
:103730008F710840296808802868B0F850102078F8
:1037400001EBC000801D296801F58061405A00E04E
:103750004EE0C0F30900A061A06960B1B4F818C0E0
:103760001FFA8CF3A2882169286800F07BF9A1690F
:1037700020690844206100212846FDF725FA2868C1
:10378000B0F85000801D2A6802F580628118E26856
:103790003E2A0ED9E268C2F34F10227B02F01F02CC
:1037A0000AB9421E90B24FF4004242EA80220A80D7
:1037B0000DE0E268C2F34F00227B02F001020AB181
:1037C000421C90B24FF6FF7202EA80220A802968FA
:1037D00009884BF68F7201EA020080F4805080F471
:1037E000005040F4004141F080012A6811802EE130
:1037F0007100286830F811000090BDF8000000F456
:10380000004000287BD07100286830F81100C0F318
:103810000E0048F68F7108407200296821F81200E6
:10382000C6EBC60105F5E67000EB8104A07AA0B9ED
:103830002868B0F85010207801EBC000801D29687E
:1038400001F58061405AC0F30907EFB3A2882169EE
:103850003B46286800F006F942E0217849002868D4
:1038600030F8110000F48040A0B12868B0F8501082
:10387000207801EBC000801C296801F58061405A66
:10388000C0F30907D7B1E28821693B46286800F0F8
:10389000E9F813E02868B0F85010207801EBC00078
:1038A000801D296801F58061405AC0F309072FB1D6
:1038B000228921693B46286800F0D4F82178490024
:1038C000286830F8110000E00AE048F68F710840DF
:1038D00048F2C001084322785200296821F81200FA
:1038E000A0693844A061206938442061606910B142
:1038F000E068B84204D921782846FDF765F905E06B
:1039000021782846D4E90423FDF789FCBDF800009E
:1039100000F0800000287DD0C6EBC60105F128002C
:1039200000EB81047100286830F8110048F60F712F
:1039300008407200296821F81200A07AC8B92868E6
:10394000B0F85010207801EBC000801C296801F508
:103950008061405AC0F30900A061A069F0B3B4F8D7
:1039600018C01FFA8CF3A2882169286800F08BF830
:103970004CE021784900286830F8110000F0400040
:10398000C8B12868B0F85010207801EBC000801C46
:10399000296801F58061405AC0F30900A061A0695F
:1039A00020B3B4F818C01FFA8CF3E28821692868A4
:1039B00000F069F81AE02868B0F85010207801EBA0
:1039C000C000801D296801F58061405AC0F30900DC
:1039D000A061A06950B1B4F818C000E016E01FFA69
:1039E0008CF322892169286800F04DF8217849007C
:1039F000286830F8110048F68F7108404CF28001B9
:103A0000084322785200296821F812002868B0F88B
:103A1000501000E01BE0207801EBC000801C2968FA
:103A200001F58061405AC0F30900A061A1692069D5
:103A300008442061606920B921782846FDF7B4F870
:103A400005E021782846D4E90423FDF706FD28681F
:103A5000B0F84400019000F4004000287FF4F3AD7A
:103A6000BDE8FC81F0B55F1C7E10171807F5806576
:103A7000344605E035F8027B21F8017B491C641EC1
:103A8000002CF7D1F0BD2DE9F04103F101084FEA18
:103A9000680C02EB000808F58067644609E00E78C0
:103AA000491C91F8008046EA082527F8025B491C6A
:103AB000641E002CF3D1BDE8F08170B504462046A9
:103AC00000F0A2F90546284670BD70B506460C46C2
:103AD0001546B4F5805F05DB2A462146304600F0E6
:103AE000C3F904E0EAB22146304600F04CFA70BD5A
:103AF00070B504460D462146284600F0CFFA70BD49
:103B000070B506460C461546B4F5805F05DB2A46BF
:103B10002146304600F0F2FA04E0EAB2214630468F
:103B200000F07AFB70BD000001490860704700009A
:103B30002400002001490860704700002800002090
:103B40000149086070470000280000200149086012
:103B5000704700002000002010B5002001F09CFB01
:103B600000214FF4005001F0A3FB00214FF48040EE
:103B700001F09EFB0021012001F09AFB002010BD06
:103B800010B5012001F088FB0121480301F090FBF2
:103B90000121880301F08CFB0121084601F088FB1C
:103BA00010BD10B501F034FB10BD000010B501F0E0
:103BB00003FC0020044908600449086004490860C7
:103BC0000449086010BD00002000002024000020EF
:103BD000280000202C00002010B501F08BFB0448C9
:103BE000006801F081FB0121480301F061FB10BD79
:103BF0002400002010B501F07DFB0848006801F0AA
:103C0000CFFB0748006801F0D1FB0121880301F0D8
:103C10004FFB0121084601F04BFB10BD280000209E
:103C20002C00002010B501F0F9FA0448006801F0FA
:103C3000E9FA012001F030FB10BD00002000002057
:103C400010B53B480078002871D0FFF7C3FB04464D
:103C500000BF04F4806068B33648007828B1364865
:103C6000007810B10020354908803548008D0028C3
:103C700004DD3348008D401E31490885FFF734FCD0
:103C80000120304908703048007810B100F08EF8FB
:103C900010E002222D4801882D48FFF7FBFA2B483F
:103CA00000882C4A12881044801E81B202222848C3
:103CB000FFF7F0FA04F4006020B12648008808B944
:103CC000FFF712FC1E484088012801D1FCF7D3FB06
:103CD0002148007848B121484088012803D01F4876
:103CE0004088222801D100F04FF8FFF773FB04460B
:103CF00000BF04F48060C8B11148408D401C1049D9
:103D000048850846408D1549488502220F4801889C
:103D10000F48FFF7BFFA0D4800880E4A128810447A
:103D2000801E81B202220A48FFF7B4FA00BF10BD1C
:103D30003C01002024010020200100202601002059
:103D4000CC0800201E0100201C010020540100208E
:103D50005A0100204A0100201D0100201009002006
:103D600010B50446012001F097FA0121480301F043
:103D70009FFA0121880301F09BFA0121084601F016
:103D800097FA10BD7047000010B50548FCF7A4FA7B
:103D900004480288044801880148FFF7E7FA10BD8B
:103DA00088080020480100205601002010B5054871
:103DB0000288054801880548FFF76CFA0348FCF7BC
:103DC000B9FA10BD4A010020540100204408002027
:103DD00070471CB50020009004236A460021084665
:103DE00001F062FB9DF800008DF804009DF80100D1
:103DF0008DF805009DF802008DF806009DF803007F
:103E00008DF8070001981CBD1FB50446029415A04B
:103E1000006801909DF809008DF805009DF80800E4
:103E20008DF80600002001F013FB04236A460321ED
:103E300001A801F039FB012001F00AFB9DF8000008
:103E40008DF80C009DF801008DF80D009DF8020022
:103E50008DF80E009DF803008DF80F00039804B054
:103E600010BD0000030000002DE9FC478046894694
:103E7000144600200090019000264FF08041CDE9CB
:103E800000104FF44370009900F008F900BF4FF4A0
:103E90004370FFF7B9FF0021CDE900019DF8030051
:103EA00000F080000028F2D1ADF80090ADF802409B
:103EB000ADF804004FF40040ADF806000822694652
:103EC0004FF4427000F0C4F800BF4FF44370FFF7A6
:103ED0009BFF0021CDE900019DF8000000F00100EA
:103EE0000028F2D09DF8010000F01F0A0420FFF71F
:103EF0008BFF0021CDE90001AAF1010000F0FF0ACB
:103F000009F00307C7F10400A04201DD204601E0EB
:103F1000C7F10400C5B20DEB070108EB06002A4605
:103F2000FCF754F9601B84B27019C6B2002001F08E
:103F30008FFA0B2000F086F8042000F05BF80120D7
:103F400000F080F818E0FFF744FF0021CDE9000100
:103F5000042C01DD042000E02046C5B208EB060079
:103F60002A466946FCF732F97019C6B2601B84B262
:103F7000AAF1010000F0FF0A002CE4D1012001F0B9
:103F800067FABDE8FC872DE9FC4106460F46154659
:103F900000200190002400979DF800008DF8040097
:103FA0009DF801008DF805008DF80650C0208DF8B1
:103FB00007004FF44170019900F070F800BF4FF412
:103FC0004170FFF721FF01909DF8070000F080008D
:103FD0000028F4D14FF44070FFF716FF0190002441
:103FE00004E001A8005D3055601CC4B2AC42F8DBAF
:103FF000BDE8FC811CB5044601949DF805008DF8D0
:1040000000009DF804008DF801000221684601F0CF
:104010002BFA1CBD1CB5044601949DF804008DF8D4
:1040200000009DF805008DF801009DF806008DF850
:1040300002009DF807008DF803000421684601F096
:1040400013FA1CBD10B50446204601F069FA10BDF4
:104050002DE9FC4104460D46164601942F460EA05C
:10406000006800909DF8050040F040008DF80100C8
:104070009DF804008DF80200002001F0E9F9032109
:10408000684601F0F1F93146384601F0EDF90120BA
:1040900001F0DEF9BDE8FC81020000007FB50546B5
:1040A0000C460295039413A103C9CDE900019DF8C4
:1040B00009008DF801009DF808008DF802009DF8B8
:1040C0000C008DF803009DF80D008DF804009DF89C
:1040D0000E008DF805009DF80F008DF806000020F9
:1040E00001F0B6F90721684601F0BEF9012001F0A0
:1040F000AFF97FBD02000000000000002DE9FC4781
:1041000080468946144600200090019000264FF01A
:104110008041CDE900104FF445700099FFF7BEFFD4
:1041200000BF4FF44570FFF76FFE0021CDE900019D
:104130009DF8030000F080000028F2D1ADF8009057
:10414000ADF80240ADF804004FF40040ADF80600B1
:1041500008224FF444700099FFF77AFF00BF4FF434
:104160004570FFF751FE0021CDE900019DF80000E8
:1041700000F001000028F2D09DF8010000F01F0AB5
:1041800009F00307C7F10400A04201DD204601E069
:10419000C7F10400C5B200210091019108EB0601AE
:1041A0000DEB07002A46FCF711F820200099FFF7D5
:1041B00075FFAAF1010000F0FF0A601B84B27019BC
:1041C000C6B2002001F044F90220FFF73BFF202097
:1041D000FFF710FF19E0042C01DD042000E0204669
:1041E000C5B200210091019108EB06012A466846FC
:1041F000FBF7ECFF0098FFF70DFF7019C6B2601BCC
:1042000084B2AAF1010000F0FF0A002CE3D10120E2
:1042100001F01EF9BDE8FC872DE9FC4106460F467A
:10422000154600200190002400BF04E0305D01A984
:104230000855601CC4B2AC42F8DB4FF440700199E1
:10424000FFF72CFF00979DF800008DF804009DF803
:1042500001008DF805008DF8065080208DF80700CC
:104260004FF441700199FFF719FF00BF4FF44170FF
:10427000FFF7CAFD01909DF8070000F080000028BC
:10428000F4D1BDE8FC8170B504460D462B460022F2
:104290004FF4C051204600F016F828B1206E40F0CF
:1042A00020002066032070BD2B460022802120467E
:1042B00000F063F828B1206E40F020002066032053
:1042C000F1E70020EFE72DE9F84304460E461746D4
:1042D0001D46FCF797FB804648E0B6F5C06F05D158
:1042E00027B92068007B00909DF80000681CE0B3AF
:1042F0002DB1FCF787FBA0EB0800A84236D320685D
:10430000406820F0E000216848606068B0F5827F76
:104310000DD1A068B0F5004F03D0A068B0F5806F54
:1043200005D12068006820F0400021680860A06A7C
:10433000B0F5005F0ED100BF206800684DF6FF7138
:104340000840216808602068006840F40050216837
:10435000086000BF012084F85D0000BF002084F8E1
:104360005C0000BF0320BDE8F883FFE72068806899
:104370003040B842B1D10020F5E72DE9F0410446C4
:104380000E4617461D46FCF73DFB80463FE0681C85
:10439000E0B32DB1FCF736FBA0EB0800A84236D302
:1043A0002068406820F0E000216848606068B0F54F
:1043B000827F0DD1A068B0F5004F03D0A068B0F5A2
:1043C000806F05D12068006820F0400021680860F7
:1043D000A06AB0F5005F0ED100BF206800684DF6FE
:1043E000FF710840216808602068006840F40050B0
:1043F0002168086000BF012084F85D0000BF002034
:1044000084F85C0000BF0320BDE8F081FFE720686E
:1044100080683040B842BAD10020F5E7704700000C
:1044200010B500203C4908803C480078002871D035
:104430003B48007820B13B480088401C394908803F
:1044400039480088002845DD384800883649098801
:10445000884220DD3648008800280ADD3548008D76
:1044600035490989884204DC3248008DC01C314935
:1044700008853248008800280DDD2D48008850B995
:104480002F48008D2C490989884204DC2C48008D76
:10449000C01C2B49088526480088B0B927480088E9
:1044A000002812DDFEF796FF044600BF04F400600A
:1044B00028B91E480088401C1C49088004E00020E0
:1044C0001A4908801E49088504E018480088401CE5
:1044D000164908801B48007820B91B48007808B1AD
:1044E000FFF764FCFBF7C7FF0D48007890B1174851
:1044F000008800280EDD154800880A49098888428E
:1045000008D1FFF741FC11480088012802D10020A2
:104510000449088010BD0000300100202001002067
:104520001D0100203A010020280100202601002062
:104530004A010020CC0800206C0100204801002026
:10454000100900203C0100201C010020380100203F
:1045500010B50020084908800848007840B1084894
:104560004088032804D10748008808B9FFF70CFCED
:1045700000200549088010BD340100201D010020E5
:1045800010090020380100203A01002010B5FCF786
:104590003FFAFEF734FC10BD10B5A6B001201C9008
:1045A00000041D9002202290C1031CA8C1610901D2
:1045B000016200214162FDF795FC08B1FCF7E0F8CB
:1045C0000F20179002201890002019904FF480605F
:1045D0001A9000201B90022117A8FDF7BBFA08B122
:1045E000FCF7CEF8134801900120039000040490DA
:1045F0001020089040200A90002016904FF0807004
:104600000F9001A8FDF7D0F808B1FCF7B9F8FDF755
:1046100017FC4FF47A71B0FBF1F42046FEF7D5FB9E
:104620000420FEF7BDFB00221146501EFCF769FA7C
:1046300026B010BD230016001948006840F4700031
:10464000174908601748006840F0010015490860E4
:104650000846406814490840124948600846006806
:10466000124908400F4908600846006820F480207D
:1046700008600846406820F4FE0048600846C06AAA
:1046800020F00F00C8620846006B09490840054940
:10469000086300208860C8030149803908607047BA
:1046A00088ED00E0001002400CC07FF8FFFFF6FE2E
:1046B000CCFC00FF10B50248FEF7CBFC10BD00009B
:1046C000DC01002000220268284B98420ED0B0F195
:1046D000804F0BD0264B984208D0264B984205D0ED
:1046E000254B984202D0254B984203D122F070020C
:1046F0004B681A431D4B984217D0B0F1804F14D02D
:104700001B4B984211D01B4B98420ED01A4B98422B
:104710000BD01B4B984208D01A4B984205D01A4B2D
:10472000984202D0154B984203D122F44072CB68D4
:104730001A4302608B68C3620B6883620B4B98421A
:104740000ED00D4B98420BD00D4B984208D00D4B1C
:10475000984205D00C4B984202D0084B984201D1A8
:104760000B6903630123436170470000002C014083
:1047700000040040000800400034014000500140A7
:1047800000400140004401400048014030B50C4663
:104790000021816821F47F4142EA03252543294312
:1047A000816030BD0A460021816821F0700142F02D
:1047B000070319438160704730B50B46144600214A
:1047C0000022026A056A25F001050562816921F06F
:1047D000F00141EA041122F00A021A4381610262E7
:1047E00030BD30B50B46144600210022056A25F085
:1047F000100505628169026A21F4704141EA0431C1
:1048000022F0A00242EA03128161026230BD70B55B
:1048100004460D46D4F814022946426820469047C3
:10482000002070BD70B504460D4694F8FC010228C6
:1048300002D0032811D100E000BF688801280BD105
:104840000020C4F80402D4F81402294682682046E5
:104850009047204600F04AF804E02946204600F040
:104860001BF800BF00BF70BD70B506460C4615466C
:104870002B4622460021304600F019FA002070BD78
:1048800070B506460C4615462B462246002130469A
:1048900000F0B0FA002070BD70B504460D468021CE
:1048A000204600F093FA0021204600F08FFA70BDF8
:1048B00010B504460520C4F8F40100231A46194631
:1048C000204600F0F4F9002010BD70B504460E46F5
:1048D00015460220C4F8F401A561E5612B46324675
:1048E0000021204600F086FA002070BD10B5044675
:1048F0000420C4F8F40100231A461946204600F0AB
:1049000079FA002010BD70B504460D46E8880128EC
:1049100004D029462046FFF7BFFF1BE094F8FC01B6
:10492000022802D003280FD108E00020A060012255
:1049300004F108012046FFF7C8FF0AE00122211D0B
:104940002046FFF7C2FF04E029462046FFF7A4FFF8
:1049500000BF00BF70BDF8B504460E467088001257
:1049600008287FD2DFE800F07E040C207E7E5F6D99
:10497000207CD4F810120A6869469047054676E014
:10498000207C40B9D4F81402816A684688470546FD
:104990000221697007E0D4F81402C16A68468847AA
:1049A00005460221697062E0B078062834D2DFE85B
:1049B00000F0030B131B232B207CD4F810124A6841
:1049C0006946904705462CE0207CD4F810128A688E
:1049D00069469047054624E0207CD4F81012CA6846
:1049E0006946904705461CE0207CD4F810120A69FD
:1049F00069469047054614E0207CD4F810124A69B5
:104A00006946904705460CE0207CD4F810128A696C
:104A100069469047054604E031462046FFF73CFFD3
:104A2000F8BD00BF23E0207C30B9D4F81402416BFC
:104A30006846884705461AE031462046FFF72CFFB6
:104A4000EEE7207C48B9D4F81402016B6846884729
:104A50000546072169700AE004E031462046FFF769
:104A60001BFFDDE731462046FFF716FFD8E700BF02
:104A7000BDF8000088B1F08878B1F088BDF800106A
:104A8000884202DDBDF8000000E0F0880090BDF82B
:104A9000002029462046FFF718FF00BFC0E770B589
:104AA00004460D4694F8FC01022802D0032811D1D7
:104AB00000E000BF0120E060D4F8040218B1E06813
:104AC00040F00200E060022204F10C012046FFF7F2
:104AD000FCFE04E029462046FFF7DEFE00BF00BFD3
:104AE00070BD70B504460D462946D4F82002FCF787
:104AF0007BF8002070BD2DE9F04104460E461746B4
:104B0000002E54D104F11405D4F8F401022843D145
:104B1000D5E90201884210D9D5E90201401AA860FE
:104B2000288982B239462046FFF7AAFE00231A469A
:104B30001946204600F0BBF82EE0E9686868B0FB33
:104B4000F1F201FB1200B8B9E9686868884213D332
:104B50006868D4F8F81188420ED200221146204627
:104B6000FFF78EFE0020C4F8F80100231A4619460C
:104B7000204600F09CF80FE0D4F81402C06840B161
:104B800094F8FC01032804D1D4F81402C16820462B
:104B900088472046FFF78CFE94F80002012814D1C4
:104BA000204600F04BF9002084F800020DE0D4F814
:104BB0001402406948B194F8FC01032805D1D4F8E7
:104BC000140231464269204690470020BDE8F0813A
:104BD0002DE9F04105460E4617465EBB05F5827489
:104BE000D5F8F401032833D1D4E90201884210D961
:104BF000D4E90201401AA060D4E90201884201D23E
:104C0000A06800E0E06882B239462846FFF72CFE33
:104C10001EE0D5F81402006940B195F8FC010328A4
:104C200004D1D5F814020169284688472846FFF7C1
:104C30005DFE0DE0D5F81402806948B195F8FC01DD
:104C4000032805D1D5F814023146826928469047D9
:104C50000020BDE8F08110B50246D2F8203201F004
:104C60008000802809D101F07F00C0EBC00403F16F
:104C7000280000EB8400807810BD01F07F00C0EBBD
:104C8000C00403F5E67000EB84008078F4E72DE9BA
:104C9000F04104460F4615461E462B46324639461D
:104CA000D4F82002FCF730F80020BDE8F0812DE9AF
:104CB000F04104460D4616461F463B4632462946FD
:104CC000D4F82002FCF7ABFA0020BDE8F08110B563
:104CD00004464023002211462046FFF7D8FF40211A
:104CE0004FF4887001514023002280212046FFF7B5
:104CF000CEFF40212162012084F8FC01D4F8180283
:104D000028B12179D4F81402426820469047002047
:104D100010BD014691F8FD0181F8FC0100207047AB
:104D200010B5044694F8FC01032808D1D4F8140205
:104D3000C06920B1D4F81402C16920468847002018
:104D400010BD024611740020704770B504460D4630
:104D50002946D4F82002FCF7F1FC002070BD70B5A4
:104D600004460D46294604F5027000F053F8012070
:104D7000C4F8F40140F20E20005BC4F8F80194F886
:104D8000080200F01F0020B1012808D0022812D12B
:104D90000BE004F50271204600F010F913E004F571
:104DA0000271204600F0EEF90DE004F50271204694
:104DB00000F03DF907E094F8080200F08001204679
:104DC00000F004F800BF00BF002070BD70B50446BD
:104DD0000D462946D4F82002FCF7CAFA002070BD1F
:104DE000014691F8FC0181F8FD01042081F8FC01E5
:104DF000002070472DE9F04104460D4616461F4637
:104E00003B4632462946D4F82002FCF726FB002018
:104E1000BDE8F0810A7802704A7842708B78CA78CF
:104E200003EB022242800B794A7903EB0222828053
:104E30008B79CA7903EB0222C280704701460020B9
:104E4000704770B504460D46A888F8B9E888E8B9F7
:104E5000A87800F07F0694F8FC01032804D12946C5
:104E60002046FFF719FD15E084F8FE613146204623
:104E7000FFF76BFF2046FFF739FD1EB1022084F8D3
:104E8000FC0107E0012084F8FC0103E029462046EC
:104E9000FFF702FD70BD70B504460D460226D4F83A
:104EA000140238B1D4F8140229460268204690470B
:104EB00000B90026304670BD70B504460D46A8788E
:104EC0003449087008460078012804DD2946204648
:104ED000FFF7E2FC5BE094F8FC01022802D0032813
:104EE0004FD11CE02B480078A8B12A4800786060B8
:104EF000032084F8FC01274801782046FFF7CBFF08
:104F0000022804D129462046FFF7C6FC70BD204682
:104F1000FFF7ECFC02E02046FFF7E8FC36E01D4816
:104F2000007870B9022084F8FC011A4800786060AB
:104F3000184801782046FFF76AFC2046FFF7D6FCA8
:104F40001EE0144909786068884216D0217920460D
:104F5000FFF75DFC0F48007860600E48017820463E
:104F6000FFF799FF022804D129462046FFF794FC59
:104F7000CCE72046FFF7BAFC02E02046FFF7B6FC7C
:104F800004E029462046FFF787FC00BF00BF00BFB2
:104F9000BCE700008501002070B504460D46688816
:104FA00001280AD1C4F80402D4F814022946826800
:104FB000204690472046FFF799FC70BD70B5054626
:104FC0000C46002660780A2829D2DFE800F0192371
:104FD000281E280A0528140F21462846FFF7BBFC87
:104FE00022E021462846FFF72CFF1DE021462846F7
:104FF000FFF762FF18E021462846FFF784FC13E024
:1050000021462846FFF74BFD0EE021462846FFF7D4
:10501000C3FF09E021462846FFF704FC04E02146CF
:105020002846FFF739FC00BF00BF304670BD2DE9B0
:10503000F04105460E464FF000083479307800F014
:105040006000202808D1D5F814023146826828462D
:1050500090470020BDE8F0817078002855D00128E5
:105060002AD003287AD195F8FC01022802D003281F
:105070001BD107E02CB1802C03D021462846FFF736
:10508000A5FE17E0708830B92CB1802C03D02146E2
:105090002846FFF79BFED5F8140231468268284661
:1050A00090472846FFF722FC04E031462846FFF7E8
:1050B000F3FB00BF00BF62E095F8FC01022802D0BC
:1050C00003281BD107E02CB1802C03D021462846B1
:1050D000FFF77CFE17E0708878B904F07F0048B1D4
:1050E00021462846FFF7FDFCD5F8140231468268B8
:1050F000284690472846FFF7F9FB04E0314628464A
:10510000FFF7CAFB00BF00BF39E095F8FC01022899
:1051100002D003282BD107E004F07F0018B121460C
:105120002846FFF753FE27E004F08000802806D1D0
:1051300004F07F0105F1140000EB011005E004F01C
:105140007F0105F5827000EB0110074621462846D5
:10515000FFF781FD18B10120386002E00EE0002069
:105160003860022239462846FFF7AFFB04E031469B
:105170002846FFF791FB00BF00BF00E000BF00BF63
:10518000404667E770B504460D46002694F8FC01DA
:10519000032814D1287901280CDCD4F814022946FC
:1051A000826820469047E88840B93EB92046FFF71C
:1051B0009DFB03E029462046FFF76EFB04E02946ED
:1051C0002046FFF769FB00BF00BF002070BD000054
:1051D00010B50248FCF7DDF910BD00007C0200208C
:1051E00000BFFEE702E008C8121F08C1002AFAD17A
:1051F00070477047002001E001C1121F002AFBD157
:10520000704700000149086070470000040000205A
:1052100001480068704700000800002000B587B012
:105220004FF0804019490860472048600021174826
:105230008160C721C16000210161FDF723FE08B133
:1052400000BFFEE71148FDF757FE08B100BFFEE7BB
:105250004FF48050039003A90C48FDF75DFE08B1A0
:1052600000BFFEE700200090029069460748FDF766
:10527000CDFD08B100BFFEE700F014F8002004499E
:1052800008600449087007B000BD0000DC01002080
:10529000040000200C000020014908707047000045
:1052A0000C00002000200149086070470800002021
:1052B00001280CD0B0F5005F03D0B0F5804F09D1C4
:1052C00002E0064A117006E0054A117003E0054A43
:1052D000117000E000BF00BF704700001C000020FC
:1052E0001D0000201E0000200149086070470000DA
:1052F0001000002000B587B01F480078002839D181
:1053000000BF1E48406940F480201C49486108469F
:10531000406900F48020019000BF00BF46F2010008
:105320000290174803900120049002A91548FBF74A
:105330006FFA00220F212820FBF7E3FB2820FBF760
:10534000D3FB00220F210620FBF7DBFB0620FBF737
:10535000CBFB00200C4908600C4908600C49086030
:105360000C4908700C4908700C490870012002496A
:10537000087000BF07B000BD1F00002000100240F1
:10538000000021100004004810000020140000203C
:10539000180000201C0000201D0000201E0000201E
:1053A00001490860704700001400002001490860AE
:1053B000704700001800002000B587B000BF2048EB
:1053C000406940F480201E4948610846406900F465
:1053D0008020019000BF00BF012289141948FBF70B
:1053E0000BFB4FF4805002900120039000200490AA
:1053F00002A91448FBF70CFA1348144908604FF44B
:10540000827048600021114881604FF4E061C16002
:105410000021016141614FF4007181611021C1617E
:1054200000210162416281620721C16200210163A2
:105430004163FDF75BFA08B100BFFEE707B000BDAE
:105440000010024000040048003001401802002013
:1054500010B5044622464FF480510248FBF7CCFABF
:1054600010BD000000040048F8B505460C46204673
:1054700000F0F6F80746642023463A462946009095
:105480000848FDF7EBFA064600BF064890F85D00B5
:105490000228FAD0384600F0A7F80EB90120F8BD6E
:1054A0000020FCE7180200202DE9F84F07460C46C3
:1054B00090461D46601900F0D3F88246601900F04E
:1054C000CFF806466119FF225046FAF791FE2246B0
:1054D00039465046FAF77AFE64206319324651463F
:1054E00000900E48FDF7BAFA814600BF0B4890F8CD
:1054F0005D000228FAD031192A464046FAF766FEC6
:10550000504600F071F8304600F06EF8B9F1000F27
:1055100002D10120BDE8F88F0020FBE7180200202F
:1055200038B50446009401216846FFF79DFF38BD59
:1055300070B504460D4604EB4402064B03EB8202B1
:10554000128991B204EB440253F822002A46FBF779
:1055500053FA70BD8459000810B586B000BF2048CA
:10556000406940F400301E4948610846406900F433
:105570000030009000BF00BF00BF0846406940F403
:10558000802048610846406900F48020009000BFF8
:1055900000BF002420E01248406904EB4401114A96
:1055A00002EB8101496808430D49486101200290DE
:1055B00004EB4400114601EB80008068019000205C
:1055C00003900320049004EB440152F8210001A948
:1055D000FBF71EF9601CC4B2042CDCDB06B010BD66
:1055E000001002408459000810B5002821D0114B4A
:1055F0000022001F196803E0814203D80A46496867
:105600000029F9D152B11368841A9C4204D1006870
:1056100018441060104602E0506000E0186039B194
:1056200002680B1A934203D10B681A44026049685E
:10563000416010BDD4010020FBF7F2F9FEF7ACFF8A
:10564000FDF7B4FF00F042F800F08AF802210020D4
:1056500000F06CF8FDF7CAFE01E000F087F8FCE707
:10566000F0B50B30154D20F007010024144A0FE06F
:1056700003688B420BD38B4205D95E1A43184768E7
:10568000C3E9006700E04368136002C004E0021D44
:1056900010680028ECD12046002802D1286808B103
:1056A0000020F0BD064A07481060074A121A22F08F
:1056B0000702C0E9002401202860D7E7D8010020B4
:1056C000D40100205C090020580B00207047000026
:1056D00070B504460D4663210A4800F017F820B162
:1056E00009480068401C08490860074920680968A3
:1056F000081AA84204D3044800682060012070BD45
:105700000020FCE78C0100208801002070B50446D1
:105710000D46FBF777F92168401AA84204D3FBF73E
:1057200071F92060012070BD0020FCE70B4A12F8DF
:1057300030208A4208D0094A02F830100122074B73
:1057400003EBC0035A6008E0044A02EBC00252684F
:10575000521C024B03EBC0035A60704790010020BB
:1057600010B5FFF7F9FEFFF7B1FF10BD70B50024CB
:105770003EE0214810F83400082836D2DFE800F077
:10578000040A1018202A0B0500BFE0B20021FFF721
:10579000CFFE2BE000BFE0B20121FFF7C9FE25E0FC
:1057A00000F0B0F80546E0B22946FFF7C1FE1DE063
:1057B00000F0C0F80546E0B22946FFF7B9FE15E053
:1057C0003221204600F05CF80546E0B22946FFF79A
:1057D000AFFE0BE04FF4FA71204600F00FF80546DB
:1057E000E0B22946FFF7A4FE00E000BF00BF641C42
:1057F000042CBED370BD00009001002070B504469B
:105800000D461C48007860B129461B48FFF77EFF13
:1058100060B3002017490870FBF7F4F816490860D8
:1058200024E029461448FFF771FFF8B1134800EB54
:10583000C4004068052804D90520104901EBC401C3
:1058400048600E4800EBC400406858B10B4800EBBC
:10585000C4004068401E094901EBC40148600120B2
:1058600004490870FBF7CEF8034908600148007846
:1058700070BD0000CC010020C80100209001002074
:1058800070B504460D461C48007860B129461B4897
:10589000FFF73CFF60B3002017490870FBF7B2F830
:1058A0001649086024E029461448FFF72FFFF8B195
:1058B000134800EBC4004068142804D91420104990
:1058C00001EBC40148600E4800EBC400406858B1C9
:1058D0000B4800EBC4004068401E094901EBC401BD
:1058E0004860012004490870FBF78CF80349086000
:1058F0000148007870BD0000C4010020C0010020F4
:105900009001002010B505210848FFF7E1FE48B1DD
:105910000748007818B100200549087002E001200E
:10592000034908700248007810BD0000B001002053
:10593000B401002010B564210848FFF7E7FE48B124
:105940000748007818B100200549087002E00120DE
:10595000034908700248007810BD0000B80100201B
:10596000BC01002002030405060708090A0B0C0D00
:105970000E0F10100102030405060708090A0B0C9C
:105980000D0E0F100004004800000400008000000D
:105990000000004800000200010000000000004874
:1059A00000000200020000000000004800000200A9
:1059B00004000000000000000000000001020304D9
:1059C000060708090000000001020304EC59000862
:1059D00000000020DC01000038020008885A00089E
:1059E000DC0100207C0D0000F45100080164320944
:1059F0001F010110700102041A03041A04041A059D
:105A0000041A06041A07045D0810700828492C11AE
:105A10001C600102041A03041A04041A05041A067D
:105A2000041A070412082A602C29041C01012028EA
:105A30001D20600203043B052018180B0107021803
:105A40000109021810111C11240116022C1A021A45
:105A50001A32112BFF7F0AF214120212103203299C
:105A600004326432C803522C01198C1129573204B4
:105A7000C00D537562496E646578203030300A1D60
:085A800007080121931BB70088
:040000050800019559
:00000001FF
