:020000040800F2
:10000000D00F0020A90100087F3000080F2E000843
:100010007D30000865020008A148000800000000CB
:10002000000000000000000000000000ED4000089B
:1000300001030008000000005D340008EF400008E4
:10004000C3010008C3010008C3010008C301000880
:10005000C3010008C3010008F10E0008C301000835
:10006000C3010008C3010008C3010008C301000860
:10007000C3010008C3010008C3010008C301000850
:10008000C3010008C3010008C3010008C301000840
:10009000C3010008C3010008C3010008C301000830
:1000A000C3010008C3010008C3010008C301000820
:1000B000ED410008C3010008C3010008C3010008A6
:1000C000C3010008C3010008C3010008C301000800
:1000D000C3010008C3010008C3010008C3010008F0
:1000E000050F0008C3010008C3010008C301000890
:1000F000C3010008C3010008C3010008C3010008D0
:10010000C30100080000000000000000C301000857
:10011000C3010008C3010008C3010008C3010008AF
:10012000C3010008C3010008C3010008C30100089F
:10013000C3010008C3010008000000000000000027
:10014000C3010008C3010008C3010008000000004B
:10015000000000000000000000000000000000009F
:10016000C3010008C3010008C30100089548000846
:10017000C3010008C3010008C3010008C30100084F
:10018000C3010008C30100080000000000000000D7
:10019000C3010008DFF80CD000F04CF8004800471D
:1001A000054E0008D00F002006488047064800474B
:1001B000FEE7FEE7FEE7FEE7FEE7FEE7FEE7FEE717
:1001C000FEE7FEE78541000895010008202A04DBD0
:1001D000203A00FA02F1002070479140C2F120035A
:1001E00020FA03F319439040704740EA01039B074C
:1001F00003D009E008C9121F08C0042AFAD203E09C
:1002000011F8013B00F8013B521EF9D27047D2B2FF
:1002100001E000F8012B491EFBD270470022F6E7EF
:1002200010B513460A4604461946FFF7F0FF20466C
:1002300010BD0000064C074D06E0E06840F00103E9
:1002400094E8070098471034AC42F6D3FFF7A6FFB6
:10025000205C0008405C00080149002008707047DD
:100260005E000020FEE7000070B5234C206908B155
:10027000401E2061204D4FF47A76ED1C28788007CF
:100280001ED51E48018849050FD5018821F48061DB
:10029000018003F0E5F8681E2661007808B10121AD
:1002A00000E00021002004F095FF206968B900F00B
:1002B0009DFD1B2000F026F8142000F031F804E02A
:1002C00000210846266104F085FF2878002811D017
:1002D000606908B1804709E0084900204C31087086
:1002E000487048808880C88008724872BDE87040B5
:1002F00003F082BF70BD00005C0000209407002066
:1003000070470000054908B5C880ADF8000002221A
:1003100069464FF49A7000F079FD08BD94070020FB
:10032000054908B54880ADF80000022269464FF43F
:10033000987000F06BFD08BD9407002010B503F025
:1003400064F80149088010BD9407002008B540F604
:10035000050101EBC0000222694600F0EDFA08BD7C
:10036000054901EBC00191F8332042F0010281F808
:10037000332000F027B8000094070020054901EB66
:10038000C00191F8332022F0010281F8332000F0FF
:1003900019B800009407002038B50949022201EB82
:1003A000C00440F6050101EBC00069462C3400F0A2
:1003B000C3FABDF80000010AA171607138BD0000E8
:1003C00094070020054940F6070201EBC00102EB4B
:1003D000C0000122333100F019BD00009407002055
:1003E00038B5074C00208DF8000061884FF4845028
:1003F0000122694600F00AFD0120A07438BD00000A
:100400009407002010B502220449102000F094FA4D
:1004100002480A384189418110BD00009E07002032
:1004200070B51C49064608220C464FF4016000F0E6
:1004300083FA1849082208310D4640F6180000F0EA
:100440007BFA144821883C38B1F5885F0FD1124AF5
:100450006188128891420AD12179242907D1A17992
:10046000C90704D02988B1F58C5F0FD101E00421C0
:100470000DE00A4A69881288914207D1297920291A
:1004800004D1A979C90701D0304670BD0821C177D0
:10049000122070BDD00700206400002066000020FC
:1004A00070B51E49064608220D46100200F044FAB7
:1004B0001A49082208310C4640F6080000F03CFAC0
:1004C000164928882C39B0F5805F0ED168888028BD
:1004D0000BD12879262808D191F83200C00704D022
:1004E0002088B0F5845F0ED101E001200CE0608827
:1004F000802808D12079222805D191F83A00C00738
:1005000001D0304670BD0220C8770020FFF728FFD9
:100510000120FFF725FF112070BD0000C00700205B
:1005200070B51E49064608220D46100200F004FA76
:100530001A49082208310C4640F6080000F0FCF980
:10054000164928882C39B0F5805F0ED1688880283C
:100550000BD12879262808D191F83200C00704D0A1
:100560002088B0F5845F0ED101E001200CE06088A6
:10057000802808D12079222805D191F83A00C007B7
:1005800001D0304670BD0220C8770020FFF7E8FE9A
:100590000120FFF7E5FE112070BD0000C00700201C
:1005A00010B50220144903E0401E10F0FF0022D0D5
:1005B0000A5C002AF8D100281DD002220A540F49F3
:1005C00001EBC0120E490B7B5B1C0B7303F007039E
:1005D0000B730B7B0BB901230B730023538013792F
:1005E00023F0FF0313710C7B537964F307135371EA
:1005F0004A7C521C4A7410BD74000020EB07002096
:10060000940700202DE9F0413A48007800285ED098
:10061000394D287C394E88B9307801280ED13848B8
:10062000417901F00F01032908D10088082803D27D
:10063000082002F009FD01E003202874287C13281B
:1006400003D1A87B08B903F079F9287C03283ED1AF
:100650002B4C2046E1880F0B022F02D0082F20D010
:1006600028E0207A402804D120880A2801D103F00C
:10067000E5F9207A00F0EF01602905D121880A29E7
:1006800002D1E97C402904D000F0F100212804D0F7
:1006900010E0BDE8F04103F059BABDE8F04102F0C6
:1006A0000DBF007A00F07F00012812D0032814D07B
:1006B000052816D0287C032809D1B7B1E17AB4F80F
:1006C0000900104A02F0D6FE002030702874BDE800
:1006D000F081BDE8F04103F09BB8BDE8F04103F0C4
:1006E00027B8BDE8F04102F0B3BF052002F0ACFC32
:1006F000EAE700005B00002094070020740000205F
:10070000EB0700200000010602F09CBE2DE9F0413D
:100710005748564F007800287ED0564C208810F459
:10072000447F05D00020FFF737FE0120FFF734FE9D
:10073000A07B514D0026B8B194F83900800713D53D
:10074000FFF74EFEE07B08B1E07B2E54A07B285CD7
:10075000062802D1A07B00F085FBA17B0520685410
:10076000A07BE073A67364E094F83A00A17FC0F325
:100770004000C1F34001884224D0A07B10B9E07B47
:10078000002856D0A07B40B10120FFF7E9FDA17BF6
:10079000062068540120FFF7F1FDE07B00F062FBCA
:1007A00094F83A00410814F81E0F61F341002070DC
:1007B00020784108607F61F3410060770120FFF7F6
:1007C00001FE36E0607CA046B8B198F8120018B976
:1007D00098F83900000710D400F082F804000CD01B
:1007E00000F040FB04202855404688F80E4098F859
:1007F000111011B1417C491E417498F831004446F2
:10080000000705D5287818B9A07B08B9207C98B1D5
:100810002088C0060DD500E00CE00420FFF796FD0F
:100820000520FFF793FD0620FFF790FD0720FFF757
:100830008DFD0020BDE8F08100F0AAF894F83100A9
:1008400020F0080084F83100388818B9052002F03B
:10085000FBFB2E707879010904D0617BB1EB101F8E
:1008600000D12E70000960730120E3E7EB07002040
:100870005B000020940700207400002010B5174C86
:10088000012200F2EE30E188B0F5005014D00128CA
:1008900011D12078012800D92270A0884FF4D052BD
:1008A000904204D0531C984201D001B1A28004F0C0
:1008B000ADFD6081A08110BD6078012800D9627013
:1008C0004FF4B050814204D0421C914201D001B19A
:1008D000E08004F05DFD2081E08110BD5C0000201F
:1008E0000220054903E0401E10F0FF0002D00A5C20
:1008F000032AF8D1704700007400002010B50B4A9D
:10090000A0F5E05441F61343123C09D098420AD1B5
:1009100049B1074B1B7833B102F0ACFD002010BD8C
:1009200009B1044BF6E7012010BD000002000106EA
:100930005C0000205D0000202DE9F04115460646D0
:100940000F464FF480581EE0464501D32C4610E078
:10095000042D01D9042400E02C46F00703D1B00790
:1009600005D5E00701D0012403E0022401E0032CB7
:10097000F9D022463146384602F053FD281B85B295
:100980003019274486B2002DDED1BDE8F081000089
:10099000F8B51548134C41884FF480507A2541F240
:1009A0007F06871D06222146FFF7C6FF2088ADF887
:1009B00000007A2801D9ADF80050BDF80020A11D33
:1009C0003846FFF7B9FFBDF80000801D802804D22B
:1009D000012269463046FFF7AFFF04490120087045
:1009E000F8BD0000EB0700209407002074000020F1
:1009F0007047000010B5FFF713FD0446122806D01B
:100A00000320FFF7BBFC0A49012008700EE002201A
:100A1000FFF7A6FC0320FFF7A3FC0648C07F0007F2
:100A200001D51E2000E01D20FFF76CFC204610BD04
:100A30005F0000209407002070B504460020FFF7F7
:100A40009DFC0120FFF79AFC0020FFF7A5FC012088
:100A5000FFF7A2FC2046FFF723FD0546094CC00620
:100A600004D51620FFF74EFC002008E0064991F857
:100A70003A004208887F62F34100887701202070A5
:100A8000284670BD5B0000209407002070B5044626
:100A90000020FFF773FC0120FFF770FC0020FFF738
:100AA0007BFC0120FFF778FC2046FFF739FD054667
:100AB000094CC00604D51520FFF724FC002008E0EF
:100AC000064991F83A004208887F62F3410088772E
:100AD00001202070284670BD5B0000209407002094
:100AE00010B504460220FFF749FC0349087840F09E
:100AF00002000870204610BD5F0000202DE9F04183
:100B0000994C86B000262088C00708D00222211DFB
:100B10004FF49070FFF710FFA088A08003E02088BA
:100B2000C00674D50126A08800F01F056088E9067C
:100B300000F01F008DF800008DF8040001D4012D95
:100B400005D100F00F0105F00F058DF80410EEB18E
:100B500010F00E0F1AD0032818D0844E3178A9B1A6
:100B6000FFF79EFC80469DF80000FFF759FC074602
:100B70009DF80400C00601D5E80648D57C48B8F1C8
:100B8000110F00782CD008B1122F37D09DF8040037
:100B9000C00601D5E8063AD59DF80000754E65F30C
:100BA0001F108DF80000306820B1026812B101A951
:100BB000684690479DF8000012210427332861D031
:100BC0003DDC222865D02DDC4FF00108142867D0C9
:100BD00023DC11285DD0122864D013287ED161E077
:100BE00018B100F003F900F0CBF800F0D7F81620A8
:100BF000FFF788FB00203070404699E000F0F6F8DF
:100C000000F0BEF8E07F000702D51E2001E091E071
:100C10001D20FFF777FB38468AE018283ED02128B0
:100C20005CD129E028285AD004DC23285DD0242870
:100C300054D156E0312825D032287ED155E04828BD
:100C400060D010DC422836D008DC4FF01401342884
:100C50004BD0382850D041286FD11BE0432844D0D6
:100C600044286AD127E08138082866D2DFE800F0FE
:100C7000123D3D406565654EFFF7C4FB2846FFF712
:100C8000DBFE04E0FFF7BEFB2846FFF7FFFE8DF812
:100C900004003BE011208DF8040008E000F0A6F805
:100CA00000F06EF800F07AF88DF804802EE0112044
:100CB000FFF728FB2AE004F06BFB2F49088004F0C3
:100CC000A5FB2E4908802846FFF794FE8DF8040006
:100CD000A8421BD10220FFF751FB17E02DE000F0E6
:100CE00085F800F04DF80220D1E78DF80410DEE71A
:100CF0002846FFF7F5FECAE78DF804101120FFF72C
:100D000001FB01E08DF8047000F070F8306820B14C
:100D1000426812B101A9684690479DF80400C006D8
:100D200004D4E08810B10020FFF7ECFA9DF804002D
:100D3000FFF7F6FA06B0BDE8F0819DF80400082838
:100D400003D100F053F88DF804709DF800000428DA
:100D500001D100F015F89DF8040040F010008DF866
:100D600004001220A4E70000940700205B0000208C
:100D70005F00002038000020640000206600002092
:100D8000054910B5002008700320FFF7E9FABDE817
:100D900010400220FFF7E4BA5F00002010B51048B1
:100DA000002404702046FFF7DBFA0120FFF7D8FA91
:100DB0000C4900200C54401CC0B20328FAD30A4846
:100DC0008473C473047401218174817F21F0020152
:100DD00081774473C47444838483447410BD0000D9
:100DE0005B0000207400002094070020064810B526
:100DF000017801F0010101700220FFF7B1FABDE8AE
:100E00001040FFF729BA00005F0000202DE9F041F3
:100E1000154606460F464FF480581EE0464501D35E
:100E20002C4610E0042D01D9042400E02C46F007E4
:100E300003D1B00705D5E00701D0012403E0022467
:100E400001E0032CF9D022463146384602F0F1FA8F
:100E5000281B85B23019274486B2002DDED1BDE8AB
:100E6000F0810000F8B50E4900250E4E01EBC011CF
:100E70008DF800500C88728841F2FF074FF48450BF
:100E80007A2C00D97A24A41DA2B2FFF7BFFF802CD0
:100E900004D2012269463846FFF7B8FFB574F8BDA1
:100EA000EB070020940700200D4810B500780028BB
:100EB00012D00C48007C00280ED10B4C2078012861
:100EC0000AD10A484179090707D0008828B10220D1
:100ED00002F0BAF80020207010BD0520F8E70000ED
:100EE0005B0000209407002074000020EB07002026
:100EF00003480068C00702D0012000F035B87047F1
:100F00001404014010B5084C2068800402D5601418
:100F100000F02AF82068400405D5BDE810404FF4E1
:100F2000804000F021B810BD140401400D49012893
:100F300011D0B0F5005F09D0B0F5804F10D18868AE
:100F400000280DD0897800290AD000474868002879
:100F500006D04978F7E7C868002801D0C978F2E7D9
:100F60007047000010000020044910B50A680242D2
:100F700002D00860FFF7DAFF10BD00001404014042
:100F80002DE9F84FDFF8A0B1002301274FF0030A45
:100F90004FF00F090BF1040EBEE000BF07FA03F695
:100FA0003440220072D04C68022C01D0122C12D195
:100FB000DC0800EB840CDCF820405D07ED0E09FA3C
:100FC00005F824EA0804D1F8108008FA05F848EA80
:100FD0000408CCF82080D0F800805D0091F804C0AF
:100FE0000AFA05F40CF0030C28EA04080CFA05FCD4
:100FF0004CEA080CC0F800C0D1F804C0BCF1010FE5
:1010000008D0BCF1020F05D0BCF1110F02D0BCF129
:10101000120F16D1D0F808C0D1F80C802CEA040CBD
:1010200008FA05F848EA0C08C0F80880D0F804C0AF
:101030002CEA060C0E79C6F300169E4046EA0C0612
:101040004660C668A6438C68AC403443C4604C68B4
:10105000E40060D5354CA56945F00105A561A4699A
:1010600023F0030504F001040094314C2E19B468F8
:101070009D074FEA157C09FA0CF5AC43B0F1904F8F
:1010800005D02C4DA84204D101251CE043E00025E9
:1010900019E0294DA84201D1022514E0274DA842AC
:1010A00001D103250FE0264DA84201D104250AE015
:1010B000244DA84201D1052505E0234DA84201D1C8
:1010C000062500E0072505FA0CF52543B560DBF899
:1010D00000405D464E689443F60300D514432C60EF
:1010E000DEF8004075464E689443B60300D51443BD
:1010F0002C600D4D08352C684E689443F60200D5DF
:1011000014432C60084D0C352C684E689443B6028D
:1011100000D514432C605B1C0A681446DA407FF447
:101120003DAFBDE8F88F0000000401400010024010
:10113000000001400004004800080048000C00487E
:101140000010004800140048001800480AB18161EE
:1011500070478162704700000148006870470000D6
:101160000000002090F84120202A24D190F840204F
:10117000012A20D0012280F84020242280F841203A
:101180000268136823F0010313600268136823F4F4
:1011900080531360026813680B43136001680A6888
:1011A00042F001020A60202180F84110002180F8FD
:1011B00040100846704702207047000070B50400D8
:1011C00004D094F84100002510B106E0012070BD64
:1011D00084F84050204600F075F9242084F841003E
:1011E0002068016821F0010101606068216820F039
:1011F000706008612068816821F400418160A06806
:1012000030B1E168012907D040F4044021688860CA
:10121000E068022803D006E040F40040F6E72168C9
:101220004FF400604860206841680F4A11434160F4
:10123000D4E904010843A16940EA01202168C8609B
:10124000D4E907010843216808602068016841F07B
:10125000010101606564202084F84100256384F861
:101260004250002070BD0000008000022DE9F84FC0
:10127000044690F84100DDF828A01F4690468B46B2
:1012800020287DD194F84000012879D0012084F8ED
:101290004000FFF761FF0646012200901923D103A9
:1012A000204601F017FE48BB222084F841001020A0
:1012B00084F8420000256564C4F82480678565636E
:1012C000618DFF274FF410504FF080784FF0007978
:1012D000FF2903D927853A46009033E0618D2185A7
:1012E000009034E05946204601F0E2FD33E000BFB3
:1012F00001F01AFE18B1606C042848D019E020688B
:10130000416A606A421C62620170208D401E0004C6
:10131000000C2085618DA1F1010161851BD1608DDB
:10132000C8B15346002280212046009601F0D2FD2C
:1013300010B10320BDE8F88F608DFF2804D9278500
:101340003A4600954346CDE7608D2085009594F898
:1013500028204B46C6E7608D32460028514620467D
:10136000C6D101F021FE0028C5D121682020C86126
:1013700021684A68084B1A404A6084F8410000E03E
:1013800007E084F8425084F840500020D2E7012062
:10139000D0E70220CEE7000000E800FE2DE9F84F7C
:1013A000044690F84100DDF828A01F4690468B4681
:1013B00020287CD194F8400001287FD0012084F8B7
:1013C0004000FFF7C9FE0646012200901923D10311
:1013D000204601F07FFD38BB212084F84100102019
:1013E00084F8420000256564C4F82480678565633D
:1013F000618D4002FF274FF080784FF00079FF2980
:1014000003D927853A46009031E0618D218500900F
:1014100032E05946204601F04BFD31E001F0EBFD92
:1014200018B1606C042847D018E0606A411C616202
:10143000216800788862608D401E6085208D401E86
:101440000004000C20851BD1608DC8B153460022DA
:1014500080212046009601F03DFD10B10320BDE83B
:10146000F88F608DFF2804D927853A4600954346BA
:10147000CFE7608D2085009594F828204B46C8E77B
:10148000608D3246002851462046C7D101F08CFDC0
:101490000028C6D120682021C16120684368084A1D
:1014A0001340436084F8411084F8425000E005E0A6
:1014B00084F840500020D2E70120D0E70220CEE798
:1014C00000E800FEF0B500681E491226012703253A
:1014D0001D4C87B0884211D1C0208DE8C100042086
:1014E000CDE9035069461948FFF74AFDE06940F429
:1014F0000010E061E06900F400101FE01449884228
:101500001DD14015CDE90006CDE902756946049567
:101510001048FFF735FD4FF48070CDE90006CDE9A6
:101520000275694604954FF09040FFF729FDE06988
:1015300040F08040E061E06900F08040059007B035
:10154000F0BD0000005400400010024000040048BC
:10155000007800400008004802480168491C01600A
:101560007047000000000020074810B5016841F0F6
:1015700010010160032000F075F8002000F006F86B
:1015800000F018F8002010BD0020024010B50446FD
:1015900007484FF47A710068B0FBF1F001F058FB96
:1015A00000222146501E00F03DF8002010BD000032
:1015B000D40000201A4808B5816941F00101816119
:1015C000806900F001000090032000F04BF8002239
:1015D00011466FF00B0000F025F8002211466FF065
:1015E0000A0000F01FF8002211466FF0090000F019
:1015F00019F800221146501F00F014F8002211467D
:10160000101F00F00FF800221146901E00F00AF89B
:101610000022BDE808401146501E00F003B800004B
:1016200000100240F0B40E4B1B680C46C3F30223BB
:10163000C3F10705042D00D90425191D072901D27E
:10164000002300E0DB1E012606FA05F1491E2140B9
:1016500099409E40761E16403143F0BC01F010BD0B
:101660000CED00E0064900F0070208684FF6FF03A2
:10167000184040EA0220034A104308607047000007
:101680000CED00E00000FA05C1EBC10200EB8202A4
:10169000D0F8A403926B02F077BEC1EBC10200EB5D
:1016A0008202D0F8A403D2F8DC2102F0C2BEF0B569
:1016B0000A0601F07F0305D5C3EBC30200EB8202EB
:1016C000283205E0C1EBC10200EB820202F5E672AE
:1016D000002494701370C909517090F87013012997
:1016E00021D0012180F87013517803680029117806
:1016F00048F68F7648F2800533F8217015D07F06C2
:1017000007D533F82170374048F2C006374323F835
:1017100021701278036833F8221048F6BF76314002
:1017200081F0300114E00220F0BD7F0407D533F8CA
:10173000217037404CF28006374323F8217012782D
:10174000036833F822104BF68F76314081F4405114
:10175000294323F8221080F870430020F0BD2DE9C2
:10176000F04F01F07F05C5EBC5040E0600EB8404C5
:1017700001D5283401E004F5E674C90925706170CB
:10178000E260E37090F8701301290DD0012180F818
:101790007013E27848F68F114AB1012A79D0022AF3
:1017A0000DD0032A1CD112E00220BDE8F08F23786F
:1017B000026832F823500D4045F400710EE02378A2
:1017C000026832F823500D4022F8235008E02378B5
:1017D000026832F823500D4045F4C06122F823100E
:1017E0002378066836F8235048F68F710D4048F28A
:1017F000800215431D4326F82350A67A4FF4806BD0
:1018000048F6BF7940F2044E4BF68F7A48F2C00397
:101810004CF28005E6B32778066836F827C048F210
:1018200080180CEA010C4CEA080C26F827C0E68860
:1018300026F001070668B6F850C094F80080B4445A
:101840000BEBC8062CF80670268926F001070668FF
:10185000B6F850C094F80080B4440EEBC8062CF8DB
:1018600006706678002E7ED02678076837F826C086
:101870005FEA4C4C07D537F826C00CEA010C4CEA5D
:10188000050C27F826C02678076837F826C001E03F
:1018900032E029E05FEA4C6C07D537F826C00CEA45
:1018A000010C4CEA030C27F826C02678076837F8A5
:1018B00026300B402B4327F826302378056835F86F
:1018C000231001EA0901114325F823102478036845
:1018D00033F8241001EA0A01114323F824100021EF
:1018E00080F87013084660E72378026832F82350C6
:1018F0000D4045F4806171E7667806B3A58825F050
:1019000001060568B5F8507094F800C02F440BEB41
:10191000CC057E532578066836F825707F0605D5F8
:1019200036F825700F401F4326F825702478036889
:1019300033F8241001EA090181F02001CCE7A388E3
:1019400023F001060368B3F8507094F800C01F44F8
:101950000EEBCC03FE520368B3F8506040F206472A
:101960003344267800E030E007EBC6069F19E368B1
:101970003E2B0AD9C3F34F16DB0601D1761EB6B251
:101980004FF4004343EA862309E0C3F34F06DB0725
:1019900001D0761CB6B24FF6FF7303EA86233B8074
:1019A0002378066836F823707F0405D536F823704F
:1019B0000F402F4326F823702478036833F824104F
:1019C00001EA0A0181F4405186E72778066836F873
:1019D00027C05FEA4C4C07D536F827C00CEA010C4B
:1019E0004CEA050C26F827C02678056835F82670DD
:1019F0007F0605D535F826700F401F4325F8267061
:101A00002678076837F826500D401D4327F82650E2
:101A10002578036833F8251001EA0A0181F4405162
:101A2000114323F825102378056835F8231001EABF
:101A30000901114325F8231051E70000F0B501F02A
:101A40007F01C1EBC10400EB8404C4E977230022C9
:101A5000C4F8E42184F8CD2184F8CC1190F87013F7
:101A600004F5E674012909D0012180F87013636937
:101A7000E1688B4204D95B1A636103E00220F0BD88
:101A800019466261A57A40F206434FF400464FF6CC
:101A9000FF7725B1657815B1012D21D028E00568C3
:101AA000B5F850C03E29654494F800C003EBCC0360
:101AB0001D440ED9C1F34F13C90607D046EA83214E
:101AC00002E000BF07EA8321298011E05B1E9BB280
:101AD000F4E7C1F34F03C907F4D05B1C9BB2F1E7F5
:101AE0000568B5F850603544267803EBC603E95223
:101AF0002478036833F824104BF68F75294081F45D
:101B0000405148F28005294323F8241080F87023BF
:101B10000020F0BD30B590F87023012A0CD00124CC
:101B200080F870430B0601F07F0207D5C2EBC203B9
:101B300000EB8303283307E0022030BDC1EBC10373
:101B400000EB830303F5E673C9099C701A705970A2
:101B500048F2800352B10468002934F8221011D0F1
:101B600048F6BF75294081F0100110E00268118825
:101B70004BF6BF74214081F4805181F0100119436C
:101B8000118007E04BF68F75294081F4805119438D
:101B900024F82210002180F87013084630BD2DE98A
:101BA000F041064601F07F00C0EBC00106EB810466
:101BB000383400278CC4012104F81B1C04F81C0DC8
:101BC00096F87003012808D086F87013E5686069FC
:101BD000A84205D9401B606104E00220BDE8F08105
:101BE00005466761A07A38B12178306830F8211055
:101BF000490612D5228911E0ABB2A288216930686A
:101C000001F0F0FB3068B0F8501040F20242084496
:101C1000217802EBC101455220E0E288ABB2216994
:101C200001F0E0FB617848F68F7011B101290BD00B
:101C300014E02378326832F82310014048F2C000E3
:101C4000014322F8231009E02178326832F821306C
:101C500003404CF28000034322F82130227831689F
:101C600031F8220048F6BF73184080F0300048F287
:101C70008003184321F8220086F870730020ADE736
:101C800010B504460068B0F84400000402D52046B0
:101C900001F006FA2068B0F8441049050BD530F879
:101CA000441F21F480610180204600F067F8002184
:101CB000204600F078F82068B0F84410490404D5B4
:101CC00030F8441F21F4804101802068B0F84410AE
:101CD000890404D530F8441F21F4005101802068A4
:101CE000B0F84410C90412D530F8401F21F00401A7
:101CF000018021684FF43D40A1F84000204600F0EB
:101D00004AF8206830F8441F21F48051018020688F
:101D1000B0F84410090519D530F8441F21F40061CA
:101D20000180206830F8401F41F0080101802068E0
:101D300030F8401F41F0040101802068B0F84400F1
:101D4000C043C00402D5204600F04AF82068B0F82D
:101D50004410890507D530F8441F21F40071018033
:101D6000204600F01CF82068B0F84410C90504D5DE
:101D700030F8441F21F48071018010BD10B5044675
:101D80000121D0F8A40302F0DBFBD4F8A403BDE8E2
:101D9000104002F0A4BBD0F8A40302F0BFBBD0F8FF
:101DA000A40302F0C1BB90F87023012A0AD00122DB
:101DB00080F8702341B180F82410002180F870135E
:101DC000084670470220704702688021A2F84C1034
:101DD000F3E7D0F8A42300F55D71104602F0BABB1A
:101DE00010B50446D0F8A40302F0E8FBA06900286F
:101DF00004D00348016841F00601016010BD0000F5
:101E000010ED00E02DE9F84F044600689F4DC00337
:101E10006FD5E8690026C00008D4E86940F080501A
:101E2000E861E869012600F0805000909848016858
:101E3000C90512D40168804641F480710160FFF742
:101E40008BF9074605E000BFFFF786F9C01B642841
:101E500035D8D8F80000C005F6D5286A10F44070CF
:101E600053D0A18801F4407181424ED0286A4FF4CA
:101E7000803191FAA1F2B2FA82F29700854A4FF0CE
:101E80000108174420F44070C7F8008491FAA1F1CA
:101E9000B1FA81F102EB81010023C1F8003428621C
:101EA000C00732D0FFF758F9074641F2883A4FF0A1
:101EB000020907E0FFF750F9C11B514502D9032081
:101EC000BDE8F88F99FAA9F1B1FA81F141F0400229
:101ED0004846B8EB521F01D12A680CE090FAA0F2F4
:101EE000B2FA82F242F04002B0EB521F02D12A6AEB
:101EF00001E015E06A6A99FAA9F0B0FA80F000F002
:101F00001F0008FA00F10A42D4D0286A616820F460
:101F10004070084328621EB1E86920F08050E861F3
:101F20002078C00705D0286BA16820F00300084383
:101F300028632078800705D5286BE16820F44030BD
:101F4000084328632078400705D5286B216920F4D1
:101F50004020084328632078800605D5286BE16976
:101F600020F01000084328632068800305D56868C6
:101F7000616D20F48000084368602078400605D534
:101F8000286B216A20F02000084328632068400362
:101F900005D5286B616A20F040000843286320784B
:101FA000000705D5286B616920F4401008432863B9
:101FB0002078C00605D5286BA16920F440000843AD
:101FC00028632088800505D56868216B20F400000F
:101FD000084368602078000605D5E86AA16A20F405
:101FE000F8700843E8622088C00505D5E86AE16A10
:101FF00020F478500843E8622088C00405D5286B97
:10200000616B20F48070084328632088800405D524
:10201000286B216C20F40070084328632068C002FC
:1020200005D5286BA16B20F08070084328632068D9
:10203000800205D5286BE16B20F00070084328630F
:102040002068400205D5286B616C20F4806008434D
:1020500028632068000205D5286BA16C20F400607D
:10206000084328632068C00105D5286BE16C20F483
:102070000050084328632068800105D5286B216D36
:1020800020F4004008432863002019E700100240B4
:1020900000700040000042422DE9F047DFF87081F7
:1020A00005460E46D8F8000000F00700B0420CD2FA
:1020B000D8F8001021F007013143C8F80010D8F813
:1020C000000000F00700B04277D12878514C80071B
:1020D00005D56068A96820F0F000084360602878A2
:1020E000C00759D06968012001290DD0022929D0E3
:1020F0005FF0020393FAA3F2B2FA82F242F02002F6
:10210000520904D0226803E04FF40033F2E7626A18
:1021100093FAA3F3B3FA83F303F01F039840024248
:102120004BD0606820F0030008436060FFF714F8AC
:102130006968074641F2883001290DD0022981469D
:1021400017D025E04FF00073D4E700BFFFF704F885
:10215000C11B494501D918E081466068C0F3810080
:102160000128F3D118E000BFFEF7F6FFC11B494577
:102170000BD86068C0F381000228F5D10CE000BFE5
:10218000FEF7EAFFC11B494502D90320BDE8F087ED
:10219000606810F00C0FF3D1D8F80010404601F041
:1021A0000701B1420BD9016821F0070131430160F9
:1021B000006800F00700B04201D00120E6E728786F
:1021C000400705D56068E96820F4E0600843606076
:1021D0002878000706D56068296920F4605040EA35
:1021E000C100606000F022F86168F02292FAA2F269
:1021F00001F0F001B2FA82F2D140074A515CC840C6
:10220000064908600020FFF7C1F90020BEE7000082
:1022100000200240001002400D5C0008D4000020A5
:102220000148006870470000D400002030B5164C0B
:102230006168164801F00C02042A03D0144B082AE6
:1022400001D0184630BD4FF4701595FAA5F501F48C
:102250007012B5FA85F5EA400E4DE46AAA5C0F25C6
:1022600095FAA5F504F00F04B5FA85F5EC40094D93
:102270001035C9032C5D02D5B0FBF4F001E0B3FBCF
:10228000F4F0504330BD000000100240001BB700C6
:1022900000127A00885400082DE9F84F04460078AF
:1022A000FA4DC0074FF0010637D068687704C0F3D5
:1022B0008100012819D06868C0F38100022804D188
:1022C0006868C0F3C13002280FD06068B0F5803F65
:1022D00024D010B1B0F5A02F2AD0286820F4803087
:1022E0002860286820F480201BE097FAA7F0B0FA55
:1022F00080F040F02000400901D0286800E0686AC2
:1023000097FAA7F1B1FA81F101F01F0106FA01F184
:1023100008424ED06068002870D04AE0286840F437
:1023200080302860606828B3FEF716FF80460BE017
:10233000286840F480202860F0E700BFFEF70CFF1B
:10234000A0EB080064287DD897FAA7F0B0FA80F0D7
:1023500040F02000400901D0286800E0686A97FA40
:10236000A7F1B1FA81F101F01F0106FA01F108426B
:10237000E4D01EE0FEF7F0FE804605E0FEF7ECFE3E
:10238000A0EB08006428DED897FAA7F0B0FA80F036
:1023900040F02000400901D0286800E0686A97FA00
:1023A000A7F1B1FA81F101F01F0106FA01F108422B
:1023B000E4D12078DFF8D88280074FF0000A4FF090
:1023C000020742D568684FF0F80B10F00C0F16D0DA
:1023D0006868C0F38100022804D16868C0F3C13086
:1023E00001280CD0E06870B396FAA6F0B0FA80F03D
:1023F00048F82060FEF7B0FE81462DE095E097FAA0
:10240000A7F0B0FA80F040F02000400901D0286821
:1024100000E0686A97FAA7F1B1FA81F101F01F01B3
:1024200006FA01F1084202D0E06801287DD128684F
:102430009BFAABF22169B2FA82F220F0F8009140E7
:10244000084301E058E128E028604CE0FEF784FEF4
:10245000A0EB0900022896D897FAA7F0B0FA80F00E
:1024600040F02000400901D0286800E0686A97FA2F
:10247000A7F1B1FA81F101F01F0106FA01F108425A
:10248000E4D028689BFAABF220F0F8012069B2FA98
:1024900082F290400143296025E096FAA6F1B1FA54
:1024A00081F148F821A0FEF757FE814606E000BF03
:1024B000FEF752FEA0EB09000228CCD897FAA7F04D
:1024C000B0FA80F040F02000400901D0286800E018
:1024D000686A97FAA7F1B1FA81F101F01F0106FAD3
:1024E00001F10842E4D1207800076AD56069A0B301
:1024F00096FAA6F0B0FA80F008EB8000C0F880648D
:10250000FEF72AFE814605E0FEF726FEA0EB090055
:102510000228A0D897FAA7F0B0FA80F040F0600047
:10252000B6EB501F02D128680CE073E197FAA7F0D0
:10253000B0FA80F040F06000B7EB501F01D1286A7C
:1025400000E0686A97FAA7F1B1FA81F101F01F0182
:1025500006FA01F21042D7D033E0FFE796FAA6F16F
:10256000B1FA81F108EB8101C1F880A4FEF7F4FD16
:10257000814605E0FEF7F0FDA0EB090002289CD89B
:1025800097FAA7F0B0FA80F040F06000B6EB501F69
:1025900001D128680BE097FAA7F0B0FA80F040F07C
:1025A0006000B7EB501F01D1286A00E0686A97FA13
:1025B000A7F1B1FA81F101F01F0106FA01F2104210
:1025C000D8D12078400768D5E8694FF00009C000ED
:1025D00009D4E86940F08050E861E8694FF00109EA
:1025E00000F0805000902B480168C90512D40168A2
:1025F00041F480710160FEF7AFFD834606E000BF45
:10260000FEF7AAFDA0EB0B00642875D821480068EE
:10261000C005F5D5A06801280AD008B1052811D059
:10262000286A20F001002862286A20F0040002E0F5
:10263000286A40F001002862A06868B3FEF78CFDAC
:1026400083460DE0286A40F004002862F0E700BFEE
:10265000FEF782FDA0EB0B0141F2883081424BD89E
:1026600097FAA7F0B0FA80F040F04000B6EB501FA8
:1026700001D1286813E097FAA7F0B0FA80F040F093
:102680004000B7EB501F09D1286A08E00010024053
:1026900000004242007000400CE040E0686A97FA97
:1026A000A7F1B1FA81F101F01F0106FA01F210421F
:1026B000CED02DE0FEF750FD834607E0FEF74CFD3F
:1026C000A0EB0B0141F28830814215D897FAA7F0B0
:1026D000B0FA80F040F04000B6EB501F01D12868FE
:1026E0000CE097FAA7F0B0FA80F040F04000B7EBAA
:1026F000501F02D1286A01E089E0686A97FAA7F1C1
:10270000B1FA81F101F01F0106FA01F21042D5D1B0
:10271000B9F1000F03D0E86920F08050E861A069AA
:1027200080B36968C1F38101022973D04FF08071D1
:102730004F000228524609D091FAA1F0B0FA80F079
:1027400048F82020FEF708FD044664E091FAA1F065
:10275000B0FA80F08A46C14648F82020FEF7FCFC1B
:10276000804605E0FEF7F8FCA0EB080002284ED8F2
:1027700097FAA7F0B0FA80F040F02000400902D0AC
:10278000286801E05CE0686A97FAA7F1B1FA81F184
:1027900001F01F0106FA01F10842E3D1E86A20F0D6
:1027A0000F01606A0143E962D4E9071008436968D0
:1027B00021F47611084368609AFAAAF0B0FA80F022
:1027C00049F82060FEF7C8FC044604E0FEF7C4FCAC
:1027D000001B02281BD897FAA7F0B0FA80F040F04F
:1027E0002000400901D0286800E0686A97FAA7F144
:1027F000B1FA81F101F01F0106FA01F10842E5D0BA
:102800001EE000BFFEF7A8FC001B022803D903202E
:10281000BDE8F88F16E097FAA7F0B0FA80F040F024
:102820002000400901D0286800E0686A97FAA7F103
:10283000B1FA81F101F01F0106FA01F10842E1D17C
:102840000020E5E70120E3E72DE9F041040004D092
:1028500094F85D00002518B107E00120BDE8F08183
:1028600084F85C50204600F04FF8022384F85D3075
:102870002068016821F040010160E0684FF4E066E3
:10288000B04201D9002101E04FF48051B0F5706FE2
:1028900002D0B04200D0A562276B012227B9B04216
:1028A00001D9236300E02263D4E901031843D4E98A
:1028B000043633431843238B03F400731843E3694E
:1028C0001843236A1843A36A184323681860206BCF
:1028D000022804D12068036843F400630360636B3B
:1028E000606AA66918430427E36807EA164633437B
:1028F00018430843216848602168E06A086125663A
:1029000084F85D200020A9E730B51A4D0468002145
:1029100019480222032387B0AC4212D1846944F4DF
:10292000805484618069CDE9021300F480500590E1
:10293000E020CDE900020520049069464FF0904068
:1029400014E00E4DAC4213D1C46944F40044C46198
:10295000C069CDE9021300F4004005904FF4E05047
:10296000CDE900020620049069460548FEF708FB01
:1029700007B030BD0030014000100240003C004074
:10298000000800482DE9F84F1F4691468A46044644
:102990000A9EFEF7E1FB804694F85C0000250128C2
:1029A00009D04FF0010B84F85CB094F85D00012869
:1029B00004D0022538E10220BDE8F88FBAF1000FFB
:1029C0007DD0B9F1000FFBD0002FF9D0052084F89D
:1029D0005D0000202066C4F84090A4F84670A4F87A
:1029E0004470C4F838A0E787A787A06A4FF400575F
:1029F000B8420AD1206801684DF6FF7211400160AB
:102A00002068016841F400510160E0684FF4E06122
:102A1000884203D8B4F84600012804D920684268E7
:102A200022F4805203E02068426842F480524260FF
:102A300020680268520603D4026842F04002026035
:102A4000E068884240D8A5E010B320688168890713
:102A50001ED5A16B0988C160A06B801CA063E08FAC
:102A6000401E0004000CE08712D1A06AB8420FD1CA
:102A700020680168490706D44168090703D5016841
:102A800041F4007101602068016841F480510160E7
:102A9000B4F8460070B120688168C9070AD0C068E0
:102AA000216C0880206C801C2064B4F84600401E15
:102AB000A4F84600701C07D0FEF74EFB00E0B2E021
:102AC000A0EB0800B04263D2E08F0028BCD1B4F87C
:102AD00046100029B8D164E058B321688A6892078B
:102AE00027D50128A06B07D90088C860A06B801C7F
:102AF000A063E08F801E05E0421CA263007808738B
:102B0000E08F401EE0870004000C12D1A06AB8429A
:102B10000FD120680168490706D44168090703D529
:102B2000016841F4007101602068016841F480513E
:102B30000160B4F8461019B320688268D2071FD02C
:102B4000012913D9C068216C0880206C801C206486
:102B5000B4F84600801E80B2A4F8460001280FD8C1
:102B60002068416841F48051416009E0027B206C9B
:102B7000411C21640270B4F84600401EA4F84600CF
:102B8000701C07D0FEF7E8FAA0EB0800B04201D3B2
:102B9000032549E0E08F00289ED1B4F846100029B3
:102BA0009AD1A06AB84228D1012233461146204664
:102BB00001F055FAB0B9E068B0F5706F206808D040
:102BC000007BADF80000BDF80000206B022802D0A9
:102BD00013E0C0680DE0012233461146204601F0A3
:102BE0003EFA20B1206E40F002002066D0E7206857
:102BF000007BADF80000BDF8000020688168C94383
:102C0000C90607D4216E41F0020121664FF6EF712B
:102C1000816001253146204601F0B8F908B1202035
:102C20002066206E00B1012584F85DB0002084F894
:102C30005C002846C0E64FF0E0210428086903D074
:102C400020F004000861704740F00400FAE7704784
:102C500010B5401EB0F1807F01D3012010BD4FF0B0
:102C6000E02460610F21601700F00AFA0020A061E3
:102C700007202061002010BD10B5FFF7E8FF10BD50
:102C800070477047704770B50446006801694FF09F
:102C90000005C943890715D4C168C943890711D400
:102CA000E91E0161012020762068806980072046A6
:102CB00002D0FFF7E7FF04E000F098F8204600F0AC
:102CC00096F8257620680169C943490717D4C16879
:102CD000C943490713D46FF0040101610220207633
:102CE0002068806910F4407F204602D0FFF7CAFFB9
:102CF00004E000F07BF8204600F079F825762068A3
:102D00000169C943090716D4C168C943090712D428
:102D10006FF008010161042020762068C0698007F7
:102D2000204602D0FFF7AEFF04E000F05FF8204637
:102D300000F05DF8257620680169C943C90617D4FB
:102D4000C168C943C90613D46FF01001016108209E
:102D500020762068C06910F4407F204602D0FFF73B
:102D600091FF04E000F042F8204600F040F825769C
:102D700020680169C943C90708D1C168C943C907A7
:102D800004D1891E0161204600F032F820680169F3
:102D9000C943090609D4C168C943090605D46FF0BF
:102DA000800101612046FFF76BFF20680169C9437C
:102DB000490609D4C168C943490605D46FF04001EA
:102DC0000161204600F022F820680169C9438906A4
:102DD0000BD4C168C943890607D46FF02001016193
:102DE0002046BDE87040FFF74CBF70BD704770478C
:102DF00010B5054C207810B1606800B18047A0681C
:102E0000401CA06010BD0000040000207047FEE7D9
:102E100001688A69D243920701D400228A6200685D
:102E20008169C943C90703D0816941F0010181610A
:102E3000704700002DE9F0410446006890460E46B8
:102E40008069C043C0062ED40025202720688069F1
:102E5000C043800611D5701CF8D02EB1FEF77CF966
:102E6000A0EB0800B042F1D984F8417084F84250D8
:102E700084F840500320BDE8F08121681020C8612B
:102E80002068C7612046FFF7C3FF54F8440B416830
:102E9000064A11404160042044F820096777A5776D
:102EA00025770120E7E70020E5E7000000E800FEC5
:102EB00070B50568049E6C6805480440C1F30900BC
:102EC00040EA0240184330432043686070BD000070
:102ED000009800FC2DE9F0411D4617460E460446B9
:102EE000DDF8188013E0681C11D02DB1FEF734F91D
:102EF000A0EB0800A8420AD9202084F84100002055
:102F000084F8420084F840000320BDE8F081206886
:102F1000806936EA000004D00020B842E3D00020E7
:102F2000F3E70120F9E700002DE9F0410026904683
:102F30000F46044620252DE0424639462046FFF73D
:102F400079FF10B10120BDE8F08120688069C0439D
:102F500080060ED42068C56120684168114A11407E
:102F60004160666484F8415084F8426084F84060AF
:102F7000E8E72FB1FEF7F0F8A0EB0800B84209D956
:102F800054F8440F40F0200044F80409657026709E
:102F90000320D8E720688069C0434007CCD40020D4
:102FA000D1E7000000E800FE70B516460D46044665
:102FB0001AE0324629462046FFF73CFF08B10120BF
:102FC00070BD25B1FEF7C8F8801BA8420CD954F893
:102FD000440F40F0200044F80409202060700020D5
:102FE000A0702070032070BD20688069C0438006F7
:102FF000DFD4002070BD70B516460D4604461CE0B7
:10300000324629462046FFF715FF08B1012070BD62
:10301000681C12D025B1FEF79FF8801BA8420CD97E
:1030200054F8440F40F0200044F804092020607058
:103030000020A0702070032070BD20688069C0430C
:103040008007DDD4002070BD10B50446FDF7A8FA56
:1030500000280ED00749042201EBC0110A804A79EA
:1030600022F00F024A710122CA80034A0C81032117
:10307000115410BDEB07002074000020FEE77047DC
:103080000907090E002806DA00F00F0000F1E02021
:1030900080F8141D704700F1E02080F8001470479C
:1030A0002DE9FC5F00270446ADF8007048F60F7A62
:1030B00040F2064B40F2024878E100BFBDF8041030
:1030C00011F00F062CD030F82610ADF80010BDF826
:1030D0000010090474D530F8261040F68F721140A4
:1030E00020F82610C6EBC60004EB800595F8D60143
:1030F00005F5E675002820687ED0297830F8212073
:103100005204B0F8502002EB000376D508EBC10161
:10311000595AC1F309015FEA01096FD0EA88BCE09E
:10312000BDF80410C90628D4018801EA0A0101800B
:10313000206804F12805B0F850102A78014408EB03
:10314000C200085AC0F309002064A16B0844A063C0
:1031500000212046FEF798FA94F824000028ABD00E
:1031600068690028A8D194F82400216840F0800004
:10317000A1F84C0084F8247018E1018804F5E67584
:10318000ADF80010BDF8001009051AD5B0F85010C0
:103190000A1829780BEBC100105A04F55D71C0F3D1
:1031A0000903AB61AA88206800F00EF92068018845
:1031B00040F68F72114001802046FEF70AFEF5E0CE
:1031C00091E0BDF800100904D6D5018840F68F7251
:1031D000114001802068B0F850100A1829780BEBD4
:1031E000C100105A83059B0DAB610CD0AA882969D8
:1031F000206800F0E9F802E034E045E051E0A96918
:1032000028690844286100212046FEF746FA206814
:10321000B0F850100A18E86802F206423E280AD9AF
:10322000C0F34F11C00601D1491E89B24FF40040CE
:1032300040EA812009E0C0F34F01C00701D0491CDA
:1032400089B24FF6FF7000EA812010802068018863
:103250004BF68F72114081F4405148F280021143C5
:103260000180A3E0B0F850102B780A180BEBC301D3
:10327000515AC1F309015FEA01091ED0AA884B46E1
:10328000296900F0A1F818E00BEBC101595AC1F30C
:1032900009015FEA010904D02A894B46296900F037
:1032A00093F82A78216831F8220048F68F73184085
:1032B00048F2C003184321F82200A96901EB090074
:1032C000A861286900EB09022A616B6913B1E968FA
:1032D000494504D929782046FEF7DFF903E029782B
:1032E0002046FEF7ABFBBDF8000000065ED5216866
:1032F000C6EBC60004EB800531F8260000EA0A00A0
:1033000021F8260095F8320028350028206810D0D2
:10331000297830F821205206B0F85020024419D5FF
:1033200008EBC100105A83059B0DAB611ED0EA88E3
:1033300018E0B0F850100A18297808EBC100105AAC
:1033400083059B0DAB611DD0AA882969206800F018
:1033500049F817E00BEBC100105A83059B0DAB61D8
:1033600004D02A892969206800F03CF82A7821686D
:1033700031F8223048F68F7003404CF2800003434E
:1033800021F822302168B1F850002A78014408EB76
:10339000C200085AC0F30900A86129690A182A6105
:1033A00029786B69204663B1FEF7F9FB2068B0F815
:1033B0004410ADF8041009043FF580AE0020BDE8CC
:1033C000FC9FFEF761F9F1E75B1C10445B0800F518
:1033D000806005D030F8022B21F8022B5B1EF9D15A
:1033E0007047000010B55B1C10445B0800F580605E
:1033F0000AD000BF11F8012B5B1E11F8014B42EA05
:10340000042220F8022BF5D110BD08B502224FF49A
:103410000871684600F08DFCBDF8000008BD00F0A2
:10342000F9BBB1F5805F01D300F00EBCD2B200F061
:1034300080BCB1F5805F01D300F008BDD2B200F0CE
:1034400079BD000010B501F099FA034800214160F0
:103450008160C160016110BD200000207047000044
:103460000348811CC2894FF48850FDF765BA0000FB
:103470005C00002070B514460D460646FDF790F836
:10348000002815D00B490C4A01EBC0130A21198002
:10349000597921F00F01C91C59714FF40051D9809D
:1034A000A3F80960DD7280211972DC6003211154D8
:1034B00070BD0000EB070020740000202DE9F05FD4
:1034C0003C4CB4F80900E57A804600F085F806B275
:1034D000DFF8E4B0DFF8E4A04FF00009002E66DB6F
:1034E0002946304600F090F800285EDB344AC6EBEF
:1034F000C60102EB410100EB8000D1F80A1001EB9C
:103500008007F8883F280BD00F2801D02D4A42E0D1
:10351000BBF8020000F00F00022801D02A4A3AE06E
:10352000207A810705D5C0F38100C0F104060C3470
:1035300002E0A089103486B2B888C01DC008B0422D
:1035400028D129464046FDF7D9F910B339693246EA
:10355000204601F0B5F9FDF723F8B0B1154901EBAC
:10356000C0120A211180517921F00F01C91C51713B
:103570004FF44051D180A2F80980D57260211172B8
:10358000C2F80C9003220AF8002029464046FDF7B5
:1035900075F904E00D4A29464046FFF76BFF8AF8AB
:1035A00000908BF81090BDE8F09F094AF3E7094AB4
:1035B000F1E70000EB0700209407002074000020D2
:1035C0001F5B000802000106220000081000070629
:1035D000110009060000020601460020094A00E029
:1035E000401CC0EBC00302EB43031B888B42F7D3A4
:1035F000C0EBC00302EB430212888A4201D04FF0B5
:10360000FF3070471F5B00080246C2EBC2030F4A3F
:1036100010B502EB43030020D3F80A201B7901E028
:10362000401C00B200EB800402EB840424888C422E
:1036300001D29842F4DB00EB800302EB8302128894
:103640008A4201D04FF0FF3010BD00001F5B000820
:103650002DE9F041304800248189867B8846084660
:10366000FFF7BAFF070055D4314638B2FFF7CCFF59
:1036700005004AD42948C7EBC70100EB4100D0F848
:103680000A70FCF78DFF5FEA000C3CD02248002353
:1036900000EBCC10417921F00F01C91C41714FF4AE
:1036A0000041C180017A21F07F01891D21F0800154
:1036B000017243724381A0F80C8086730721C173A5
:1036C00005EB850107EB81014A8802828A884282E4
:1036D000CA8882828A6800F1160115784DB100BF50
:1036E00001F8015B641C12F8015FE4B20DB16A2CB1
:1036F000F6D30D70103404800948032100F80C1033
:10370000037008480374BDE8F0810748BDE8F04144
:1037100000F06EB90548F9E7EB0700201F5B0008D1
:103720007400002094070020110009060000020622
:103730002DE9F0473148002587893846FFF74CFFCF
:103740005FEA000854D4FCF72BFF060040D02B485A
:10375000A94600EBC614C8EBC801607920F00F0041
:10376000C01C60714FF40040E080207A20F07F00A0
:10377000001D20F08000207284F80990A4F80A90BF
:103780001F48A78100EB41077888072822D0A4F8BA
:103790000E9038792074B8786074D7F8061004F168
:1037A00012000A784AB100BF00F8012B6D1C11F815
:1037B000012FEDB20AB16E2DF6D302700C3511490E
:1037C00025800320885581F800900F4981F81090DA
:1037D000BDE8F08700210FFA88F0FFF715FFD7F852
:1037E0000A1000EB800001EB80004088E081D0E708
:1037F000BDE8F047054800F0FBB80000EB070020EB
:103800001F5B0008740000209407002000000206DF
:103810002DE9F0470024444E4FF6FF7001E0641C90
:10382000A4B2C4EBC40106EB410109888142F6D180
:10383000DFF8F890A9F81840712000EB440080B23E
:103840007221B0FBF1F53A4FB889012804D9BDE8DF
:10385000F047384800F0CCB8FCF7A2FE002861D051
:103860003349DFF8D48001EBC0114A7922F00F020E
:10387000D21C4A714FF40042CA800A7A22F07F02B9
:10388000921C0A72BA890023BAB98B810A7A22F093
:1038900080020A724B724B8188F8003089F8103030
:1038A000A9F81A50A5F1010CA9F81CC0CC810B8213
:1038B0004B828B82CB8212220A80BA89012A2ED1B6
:1038C0000A7A012D08D942F080020A7213244A466E
:1038D00089F81040392407E022F080020A7288F843
:1038E00000304A4689F810304B7255836D1E95831F
:1038F000928B4A8101228A8101F10E03002208E0A5
:10390000C2EBC20506EB4505521C2D8823F8025B6D
:1039100092B2A242F4D3082202EB44020A800321AD
:1039200008F80010BDE8F0871F5B0008940700202E
:10393000EB07002000000106740000202DE9F04193
:10394000FCF72EFE002848D0254901EBC0114A792A
:1039500022F00F02D21C4A714FF40042CA800A7A48
:1039600022F07F031F4A9B1C0B72548B958B641BA8
:10397000C4EBC405C5EB8414958BA4B200261A4F82
:10398000012D06D943F080030B7204F139039DB277
:1039900005E023F080030B723E701674158B4E7297
:1039A000938B5B1E9383928B4A8101F10C02234619
:1039B0000E4E09E0C3EBC30C06EB4C0C5B1CBCF8D1
:1039C00000C022F802CB9BB2AB42F3D32A1B0623E2
:1039D00003EB42020A8003213954BDE8F081000064
:1039E000EB07002094070020740000201F5B0008F4
:1039F00010B50446FCF7D4FD00281AD00D490A2260
:103A000001EBC0110A804A7922F00F02D21C4A71E0
:103A10004FF40042CA800A7A22F07F02D21D22F0BF
:103A200080020A7200224A724A81034A8C81032171
:103A3000115410BDEB070020740000202DE9F05F49
:103A40003C48B0F80910C77A88460846FFF7C4FD1D
:103A500005B2394CDFF8E4B04FF0000A002D66DB08
:103A600039462846FFF7D0FD060055D43449C5EB4A
:103A7000C50001EB4000D0F80A90FCF791FD05006D
:103A80004FD02C4806EB860200EBC5110A200880B7
:103A9000487909EB820320F00F00C01C48714FF4F5
:103AA0004050C88098880C22082800D90822102885
:103AB00000D90422182800D90022A1F80980CF7269
:103AC00020280BD843320A721E6926B1C01DC208D5
:103AD00030460C311AE0D868C86019E041220A72F9
:103AE000C01DC20802F10A00CA607A2807D96283A1
:103AF0007022A2834020E0741869606101E084F8BC
:103B000013A002F10A0021F8100B186900F0D8FE8A
:103B100003210BF8051004E00A4A39464046FFF736
:103B2000A9FC8BF800A084F810A0BDE8F09F064A1D
:103B3000F3E70000EB07002094070020740000204A
:103B40001F5B000811000906000002062DE9F04184
:103B5000204FFCF725FD204CDFF8808006004FF059
:103B6000000532D03846A38B00EBC611608BA28BC8
:103B7000801A4A7922F00F02D21C4A714FF4405247
:103B8000CA803A7A02F01007C21C0F727A2A05D94D
:103B9000A28B77207732A2837A220CE0E5746583CA
:103BA000A5837F1C0F72072805D2C0F1070207EB1F
:103BB00042020A720A2221F8092B82B26069184473
:103BC00000F07EFE032108F8061088F800502574E6
:103BD000BDE8F081EB07002094070020740000206E
:103BE00038B5002004236A460146009000F030FFFB
:103BF0009DF800009DF8011060F30704204661F372
:103C00000F209DF8021061F317409DF8031061F337
:103C10001F6038BD1CB50BA109680091010A8DF821
:103C200001108DF80200002000F0EAFE042301AA32
:103C30000321684600F00CFF012000F0E1FE01982E
:103C40001CBD0000030000002DE9FC47002488464D
:103C500000944FF080410194CDE9001481464FF467
:103C6000437615462746304600F0CAF83046FFF73F
:103C7000D1FFCDE900049DF803000006F6D4ADF8AD
:103C800004404FF40040ADF80080ADF80600ADF8F8
:103C90000250082269464FF4427000F093F8304613
:103CA000FFF7B8FFCDE900049DF80000C007F6D08B
:103CB0000420FFF7AFFFCDE9000408F00300C0F1D6
:103CC0000401A94200DD2946CEB20DEB000109EB4B
:103CD00007003246FCF789FAA81B85B2B819C6B2AC
:103CE000002000F08DFE0B2000F0EEFE042000F01E
:103CF0004CF8012000F0E8FE14E000BFFFF770FF71
:103D0000CDE90004042D01D9042000E02846C7B203
:103D100009EB06003A466946FCF767FAF019C6B2A5
:103D2000E81B85B2002DE9D1012000F069FEBDE855
:103D3000FC87F8B50546002000908DF80010080AB1
:103D40008DF801008DF80220C0208DF803004FF49B
:103D5000417614463046009900F052F83046FFF79D
:103D600059FF00909DF803000006F7D44FF440700F
:103D7000FFF750FF00900021684603E0425C6A5460
:103D8000491CC9B2A142F9D3F8BD08B5010A8DF8A2
:103D900000108DF801000221684600F039FE08BDD0
:103DA00008B5010A8DF800008DF80110010C8DF89E
:103DB0000210000E8DF803000421684600F028FE72
:103DC00008BD000038B50C460CA1154609680091E5
:103DD000010A41F040018DF801108DF80200002029
:103DE00000F00EFE0321684600F012FE2946204630
:103DF00000F00EFE012000F003FE38BD02000000BE
:103E00001CB510A3D3E90023CDE90023020A8DF8E5
:103E100001208DF80200080A8DF80400080C8DF8C6
:103E20000500080E8DF806008DF80310002000F044
:103E3000E7FD0721684600F0EBFD012000F0E0FD02
:103E40001CBD000002000000000000002DE9FC473E
:103E50000024884600944FF080410194CDE900147D
:103E600081464FF44577154626463846FFF7C8FF8A
:103E70003846FFF7CFFECDE900049DF803000006A9
:103E8000F6D4ADF804404FF40040ADF80080ADF832
:103E90000600ADF80250082269464FF44470FFF75F
:103EA00091FF3846FFF7B6FECDE900049DF800000B
:103EB000C007F6D008F00300C0F10401A94200DDFC
:103EC0002946CFB20021CDE9001109EB0601684473
:103ED0003A46FCF78AF920200099FFF791FFE81B8A
:103EE00084B2F019C5B2002000F08AFD022000F073
:103EF000EBFD2020FFF749FF15E0042C01D9042039
:103F000000E02046C6B20020CDE9000009EB050123
:103F100032466846FCF769F90098FFF741FFA81997
:103F2000C5B2A01B84B2002CE7D1012000F068FDCF
:103F3000BDE8FC8738B50C4600210B4600911546BC
:103F4000694603E0C25CCA545B1CDBB2AB42F9D3E6
:103F50004FF440700099FFF753FF8DF80040200A9E
:103F60008DF801008DF8025080208DF803004FF489
:103F7000417420460099FFF743FF2046FFF74AFEB1
:103F800000909DF803000006F7D438BD70B50D46CB
:103F90000B46044600224FF4C05100F00FF838B928
:103FA0002B4600228021204600F059F8002804D03A
:103FB000206E40F020002066032070BD2DE9F843FC
:103FC0001D4617460E460446FDF7C6F880464FF4D8
:103FD000C0693DE04E4505D127B9007B8DF8000052
:103FE0009DF80000681C33D02DB1FDF7B5F8A0EBAB
:103FF0000800A8422CD32068416821F0E00141600C
:104000006068B0F5827F0BD1A068B0F5004F02D098
:10401000B0F5806F04D12068016821F04001016093
:10402000A06AB0F5005F0AD1206801684DF6FF7202
:10403000114001602068016841F4005101600120D5
:1040400084F85D00002084F85C000320BDE8F8835C
:10405000206881683140B942BCD10020F6E72DE9E3
:10406000F0411D4616460F460446FDF775F880469A
:1040700035E0681C33D02DB1FDF76EF8A0EB0800D9
:10408000A8422CD32068416821F0E00141606068BB
:10409000B0F5827F0BD1A068B0F5004F02D0B0F52B
:1040A000806F04D12068016821F040010160A06A9E
:1040B000B0F5005F0AD1206801684DF6FF7211402B
:1040C00001602068016841F400510160012084F81A
:1040D0005D00002084F85C000320BDE8F0812068CA
:1040E00080683840B042C4D10020F6E7704710B570
:1040F000FDF732FABDE81040FEF7BEBDF0B501266F
:10410000A5B03504CDE91665280100240227CDE9C4
:104110001E04CDE91C7516A8FEF7BEF800B1FEE737
:104120000F20CDE920074FF48060CDE92240022125
:1041300020A82494FDF7B0FF00B1FEE710480090DE
:1041400010200790402009908004CDE902650E9070
:1041500015946846FDF756FE00B1FEE7FEF760F8DD
:104160004FF47A71B0FBF1F0FEF772FD0420FEF718
:1041700062FD00221146501EFDF754FA25B0F0BD35
:10418000230016001448016841F4700101601348CF
:10419000016841F0010101604168114A114041602C
:1041A0000168104A11400160016821F4802101601A
:1041B000416821F4FE014160C16A21F00F01C16232
:1041C000016B094A11400163002181600249C0036B
:1041D000803908607047000088ED00E00010024060
:1041E0000CC07FF8FFFFF6FECCFC00FF0148FEF795
:1041F0004ABD0000E00000200348044982894FF4D2
:104200008C50FCF703BE00005C000020E00700209B
:1042100010B5D0F8142252689047002010BD134604
:1042200010B50A46002100F053F9002010BD1346D6
:1042300010B50A46002100F0CAF9002010BD10B5E3
:104240000446802100F0B3F92046BDE8104000216B
:1042500000F0ADB910B505210023C0F8F4111A46DD
:10426000194600F035F9002010BD10B50223826117
:10427000C0F8F431C26113460A46002100F0A7F9E4
:10428000002010BD10B504210023C0F8F4111A4617
:10429000194600F09CF9002010BDF8B50446488886
:1042A0000D46010A08294BD2DFE801F04A0409173C
:1042B0004A4A4048D4F81012207C0A6832E0207C38
:1042C00002260028D4F8140205D0C16A684688473F
:1042D0000146467041E0816AF8E7C0B206282FD255
:1042E000DFE800F003080D12171CD4F81012207C30
:1042F0004A6817E0D4F81012207C8A6812E0D4F8DB
:104300001012207CCA680DE0D4F81012207C0A69D3
:1043100008E0D4F81012207C4A6903E0D4F81012A7
:10432000207C8A6969469047014616E0207C38B9AE
:10433000D4F81402416B68468847F5E7207C20B129
:1043400029462046FFF77BFFF8BDD4F81402016B25
:1043500068468847014607204870BDF800000028DD
:10436000F2D0EA88002AEFD0824200D90246ADF8A6
:1043700000202046FFF779FFF8BD10B5D0F82002E5
:10438000FDF795F9002010BD2DE9F04117460446D0
:1043900041B1D4F8140242698AB394F8FC010328AD
:1043A00042D043E0D4F8F411002504F114000229AE
:1043B00033D1D0E902639E4207D9F31A83609AB2DF
:1043C00039462046FFF733FF12E04068B0FBF3F1B7
:1043D00003FB1101A1B9984212D3D4F8F811884215
:1043E0000ED2002211462046FFF721FFC4F8F851F3
:1043F00000231A461946204600F06AF80DE012E044
:10440000D4F81402C16829B194F8FC01032801D141
:10441000204688472046FFF71DFF94F80002012838
:1044200004D184F8005201E0204690470020BDE806
:10443000F08170B51546044641B1D4F81402826982
:104440003AB394F8FC01032824D025E0D4F8F41101
:1044500004F5827003291FD1D0E902218A420BD9C9
:10446000531A83600846834200D303469AB2294612
:104470002046FFF7D4FE0FE0D4F81402016929B1F9
:1044800094F8FC01032801D1204688472046FFF715
:10449000F9FE01E020469047002070BD0A0601F0B9
:1044A0007F01D0F82002C1EBC10100EB810002D5F1
:1044B00090F82A00704790F8CE01704710B51C465E
:1044C0001346D0F820022246FDF749F9002010BD1E
:1044D00010B5D0F82002FDF7B1FA002010BD70B57C
:1044E0000022044640231146FFF7E8FF40252B46F3
:1044F000002280212046C4F81051FFF7DFFF012081
:10450000256284F8FC01D4F8180228B1D4F814020A
:104510002179426820469047002070BD90F8FD1137
:1045200080F8FC110020704710B590F8FC110329A9
:1045300004D1D0F81412C96901B18847002010BD18
:1045400001740020704710B5D0F82002FDF72BFC55
:10455000002010BD70B5044600F50270054600F05D
:104560003DF80120C4F8F401B4F80E02C4F8F801D3
:1045700094F8080210F01F010AD001290DD0022979
:1045800010D000F08001204600F011F8002070BD2E
:104590002946204600F07CF8F8E72946204600F03E
:1045A0005EF9F3E72946204600F0EBF8EEE710B598
:1045B000D0F82002FDF7AEFA002010BD90F8FC11F3
:1045C00080F8FD11042180F8FC110020704710B51F
:1045D000D0F82002FDF7E3FA002010BD0A7802703F
:1045E0004A7842708A78CB7802EB032242800A79BB
:1045F0004B7902EB032282808A79C97902EB01218F
:10460000C180704710B5D0F8142202241AB1126884
:10461000904700B90024204610BD000070B50E463A
:104620001A4D897804462970012928D894F8FC018C
:10463000022802D0032822D105E099B1032061604D
:1046400084F8FC0109E091B1606888420AD0C1B2E7
:104650002046FFF7DDFD297861602046FFF7D2FF95
:1046600002280CD02046BDE87040FFF70BBE0220A8
:1046700084F8FC0120466160FFF7CAFDF2E731468D
:104680002046BDE87040FFF7DABD0000770000204B
:104690002DE9F04100264B78012532460A2B43D202
:1046A000DFE803F03C584251420805422A27FFF751
:1046B000F4FD63E004468888C8B9C888B8B988782A
:1046C00000F07F0794F8FC01032810D084F8FE71F5
:1046D00039462046FFF737FF2046FFF7D3FD1FB1CD
:1046E000022084F8FC0149E084F8FC5146E02046B1
:1046F0001AE0FFF793FF41E0CB88012B14D190F82B
:10470000FC31022B02D0032B0ED104E08260012287
:1047100000F1080114E00122011D11E090F8FC21D4
:10472000022A04D0032A02D0FFF789FD26E0C560E3
:10473000D0F8041209B10321C160022200F10C017A
:10474000FFF793FD1AE004464888012816D1C4F803
:1047500004520BE0044690F8FC01022801D0032823
:10476000C5D14888012809D1C4F80422D4F814021C
:104770008268204690472046FFF784FD3046BDE81A
:10478000F08170B50D460446287800260979C0F3FB
:104790004110012806D06878A0B301281FD0032853
:1047A0003FD107E0D4F8140229468268204690479A
:1047B000002070BD94F8FC01022817D003282CD1EA
:1047C000688828B921B1802902D02046FFF7EFFE82
:1047D000D4F81402294682682046904713E094F8E2
:1047E000FC01022802D0032817D103E0C9B18029B7
:1047F0001BD116E06888A0B9480604D02046FFF710
:10480000BCFDE5E703E02046FFF73CFD09E094F836
:10481000FC01022807D003280BD029462046FFF7C9
:104820000EFD304670BD4806FBD02046FFF7BFFEA8
:10483000F7E7080601F07F0004EB001501D51435F9
:1048400001E005F582752046FFF728FE00B1012042
:104850002860022229462046FFF707FDE1E770B5F0
:10486000054690F8FC010C4603280DD1207901285B
:104870000AD8D5F81402826828469047E08830B9F3
:104880002846FFF7FFFC02E02846FFF7D8FC00208F
:1048900070BD00000148FDF7F3B90000EC030020F3
:1048A000FEE702E008C8121F08C1002AFAD17047CB
:1048B0007047002001E001C1121F002AFBD17047A0
:1048C0000B4601461846FBF790BC0000154808B59A
:1048D000416941F400214161416901F400210091E5
:1048E000416941F40031416140690F4900F40030F1
:1048F00000900E48012201600D4941600021C0E98D
:104900000212016141618161C1610162FCF756FCE3
:1049100000B1FEE700210548FCF724FC002800D088
:10492000FEE708BD00100240007800408001002032
:10493000D38D801008B5012303EB4000642300935E
:10494000134680B20A4601460348FCF78FFC08B1C3
:10495000002008BD012008BD8001002008B541EA03
:10496000400081B2642000900348FCF717FD08B1B5
:10497000002008BD012008BD8001002030B51C4882
:1049800087B0416941F4802141614069012200F40E
:104990008020184D1403059021462846FCF7D6FBCD
:1049A0000120CDE900400024694628460294FCF726
:1049B000E7FA1248104901604FF48271C0E901140E
:1049C0004FF4E061C0E903144FF40071C0E9054100
:1049D000C461046207214462C0E90A41046344637C
:1049E000FDF732FF002800D0FEE707B030BD000021
:1049F0000010024000040048003001401C0100206B
:104A000002464FF480510148FCF7A0BB0004004867
:104A1000F8B505460C46084600F030FA0646642014
:104A200000902346324629460848FDF7ABFF04466E
:104A3000064800BF90F85D100229FBD0304600F018
:104A4000B9F90CB10020F8BD0120F8BD1C0100200F
:104A50002DE9F84F1F468046CC1991460D46204659
:104A600000F00CFA8246204600F008FA064621467D
:104A7000FF225046FBF7CBFB2A4641465046FBF748
:104A8000B4FB642000902346324651460D48FDF7A2
:104A900079FF04460B4800BF90F85D100229FBD057
:104AA00071193A464846FBF7A0FB504600F082F9E0
:104AB000304600F07FF914B10020BDE8F88F0120E6
:104AC000FBE700001C01002008B501218DF8000063
:104AD0006846FFF79DFF08BD00EB400304480A4607
:104AE00000EB830150F82300098989B2FCF72EBB43
:104AF000A85400082DE9F043184C89B0606940F4CF
:104B000000306061606900F400300090606940F43A
:104B1000802060616069002500F48020104EA94665
:104B200001274FF003080090626905EB450006EB92
:104B300080014B681A43626103978968CDE9049844
:104B4000029156F8200002A9FCF71AFA6D1CEDB28A
:104B5000042DE9D309B0BDE8F08300000010024045
:104B6000A85400087FB50446012601212F4800F013
:104B700021FB0028F9D0202000F010F900EA0605FA
:104B800001212A4800F016FB0028F9D00E226946C0
:104B90005220FFF7CFFE9DF803109DF80020C1F3CF
:104BA000810101EB820121809DF803109DF8012015
:104BB000C1F3810101EB820161809DF803109DF832
:104BC0000220C1F3810101EB8201A1809DF8071051
:104BD0009DF80420C1F3810101EB8201E1809DF881
:104BE00007109DF80520C1F3810101EB82012181AD
:104BF0009DF807109DF80620C1F3810101EB8201A9
:104C000061819DF8081021739DF8091061739DF86A
:104C10000A10A1739DF80B10E1739DF80C1021741C
:104C20009DF80D10617404B0284070BD3400002060
:104C30002DE9FC41064601250A21174800F0BAFA81
:104C40000028F9D0FA2000F0A9F800EA05040121B3
:104C5000114800F0AFFA0028F9D006226946522028
:104C6000FFF768FE00EA0408002425466F46C4F1F9
:104C70000501CA00385D2946FBF7A8FAD6E90023EA
:104C800010431943641CE4B2062CC6E90001EED3BC
:104C90004046BDE8FC810000340000202DE9FC41C5
:104CA00004460127FCF758FA244E306001212348BE
:104CB00000F080FA0028F9D0062269465220FFF75A
:104CC00039FE00EA0705FCF747FA306001211B486E
:104CD00000F070FA0028F9D0002000F05FF89DF88D
:104CE000001021709DF8011061709DF805109DF86D
:104CF0000220C1F3810101EB820161809DF8051062
:104D00009DF80320C1F3011101EB8201A1809DF800
:104D100004109DF80520890001EB9211E1809DF8B7
:104D20000510284041F30001491C61729DF80510EF
:104D300041F34001491C2172BDE8FC813400002090
:104D400008B5FFF7C3FDFCF707FA12490860012117
:104D5000104800F02FFA0028F9D00FA002230068B5
:104D600000906A4600215220FFF7F8FD0121094812
:104D700000F020FA0028F9D0FB208DF80000002078
:104D80008DF80100014602236A465220FFF7E6FD36
:104D9000002008BD34000020F055000008B50021B7
:104DA00000918DF8000001236A465220FFF7D6FDDE
:104DB00008BD000010B5002821D0114B0022001FB3
:104DC000196803E0814203D80A4649680029F9D1ED
:104DD00052B11368841A9C4204D1006818441060D0
:104DE000104602E0506000E0186039B102680B1A0A
:104DF000934203D10B681A4402604968416010BDB8
:104E0000D800002086B0FCF7AFFBFFF777F9184811
:104E1000416941F40031416140694FF0904400F430
:104E200000300590002207212046FCF78FF907206B
:104E3000009001200021CDE901010391694620463F
:104E4000FCF79EF800F09AF900F0D8F900F028F984
:104E5000084800F05DF900F047F8074800F064F8F2
:104E600000F0D4F900F05CF900F066F8F8E7000013
:104E7000001002406153000849530008F0B50B30A0
:104E8000154D20F007010024144A0FE003688B42FF
:104E90000BD38B4205D95E1A43184768C3E90067F4
:104EA00000E04368136002C004E0021D106800289F
:104EB000ECD12046002802D1286808B10020F0BDBE
:104EC000064A07481060074A121A22F00702C0E992
:104ED000002401202860D7E7DC000020D800002053
:104EE000D4090020D00B002010B5FFF729FF0C4893
:104EF000FFF738FE0B4C207004F11800FFF798FE06
:104F00002178084020700A20A060FCF725F9044AA7
:104F10006060D4E906012032C2E9040110BD00003E
:104F20007009002078000020002801D001490861A4
:104F300070470000780000202DE9FF5F0A214E48ED
:104F400000F038F9002845D04B4D4C4C2D1F4FF444
:104F5000FA772878002648B3A868E860A4F10E0024
:104F6000FFF79CFE28B301202076A868A4F10E0963
:104F7000E86099F80800207299F809006072A4F1BD
:104F8000200799F80000BA7B99F801107B7C801A01
:104F9000A1EB03084FF07F0A6FF07E0B1CD4CDF815
:104FA00000A0397B8A1A002319461BE0EF60FFF747
:104FB0009BFF2676EF60FFF797FF2C69002C09D046
:104FC0002E48203800F1300120302EC98DE82E0007
:104FD0000FC8A047BDE8FF9F0096797B5B46891A02
:104FE0004FF0FF3200F04CF82070B8F1000F07DBF3
:104FF000CDF800A0F87B797C421A0023194606E020
:105000000096387C797C5B46411A4FF0FF3240466F
:1050100000F036F8607047F6FF78CDF80080F98828
:105020003888B9F80230091A4A004E464900181A61
:105030006FEA080949424B4600F022F86080CDF83B
:10504000008039897888B388091A4A004900181AFB
:1050500049424B4600F014F8A080CDF800807989D1
:10506000B888F388091A4A004900181A49424B4681
:1050700000F006F8E080A0E77C0000209009002006
:1050800010B58842029C00DA0846904200DD1046C6
:10509000401AE41A6043511A90FBF1F0184410BD15
:1050A00070B5FBF7A5FCFBF72FFB00F0AFF9154C33
:1050B0006081A08100F06CF92081E081124C6420B5
:1050C000FEF7ADF9A042FAD1104C4FF4887604F106
:1050D0000805022229463046FBF72EFC2089208154
:1050E0002089C007F5D00120FBF71AF90020FBF753
:1050F00009F9FBF753FEFBF743FEBDE87040FBF7F1
:1051000075BE00005C0000202143658794070020E5
:10511000002801D001494861704700005C00002070
:1051200010B5144C608800F00F00012809D1124816
:105130004FF4D05181804FF4B051C18001210170F2
:1051400041700C49042228314FF41160FBF7F4FB45
:10515000A06AA062FBF7F2F8FBF7D0FCFBF7D6FAE7
:1051600018B1FBF74FFAFBF79FFEBDE81040FBF7C5
:105170007BB80000940700205C000020704700000E
:1051800070B50D4604466321094800F013F8084A3B
:10519000121F10B11068401C106021681068411A7D
:1051A000A94202D32060012070BD002070BD000024
:1051B0009C00002070B50D460446FBF7CDFF21682A
:1051C000401AA84204D3FBF7C7FF2060012070BD3E
:1051D000002070BD084B10B513F830401A4602EBA2
:1051E000C0028C4203D003F83010012001E0506867
:1051F000401C506010BD0000B400002010B5FFF747
:1052000079FCBDE81040FFF7B9BF000070B5154D3F
:10521000002400BF15F8340008280CD2DFE800F0A5
:1052200004070F12151A0704E0B2002101E0E0B2F2
:105230000121FFF751FC641C042CEBD370BD00F07E
:105240005FF80CE000F06EF809E03221204600F033
:1052500031F804E04FF4FA71204600F005F80146F9
:10526000E0B2E6E7B400002070B5114C0546E078E6
:10527000002804F1100004D0FFF79CFFB0B100201B
:1052800010E0FFF797FF88B10948143000EBC50024
:105290004168052902D90521416000E019B1491E84
:1052A00041600120E070FBF757FF2061E07870BD9E
:1052B000A000002070B5114C0546A078002804F12C
:1052C0000C0004D0FFF776FFB0B1002010E0FFF72C
:1052D00071FF88B10948143000EBC50041681429FA
:1052E00002D91421416000E019B1491E416001203A
:1052F000A070FBF731FFE060A07870BDA000002037
:1053000010B505210648FFF73BFF0549091F28B1E5
:10531000087808B1002000E001200870087810BD6E
:10532000A400002010B564210648FFF743FF05499B
:10533000083928B1487808B1002000E00120487001
:10534000487810BDA80000200FB4202210B502A993
:105350000248FAF74AFF10BC5DF814FBB0090020C0
:1053600009480A4902780A7042784A7042884A809D
:1053700082888A80C288CA80027A0A72427A4A7215
:10538000007E887270470000B0090020E00700200E
:10539000F0B51C4E0025306910B13069077800E087
:1053A000377B5FB3012427E004EB840006EB800128
:1053B000086908B1008801E0888980B2FEF70CF91D
:1053C00000B2002816DD1049C0EBC00001EB400020
:1053D000D0F80A1001200A7B0AE000BF00EB80032E
:1053E00001EB8303DB6855FA83F3401C9DB280B266
:1053F0009042F3D9641CA4B2BC42D5D9ED1DE80893
:10540000F0BD0000CB5900081F5B0008F0B51C4E32
:105410000025306910B13069077800E0377B5FB351
:10542000012427E004EB840006EB8001086908B141
:10543000008801E0888980B2FEF7CEF800B200282B
:1054400016DD1049C0EBC00001EB4000D0F80A1097
:1054500001200A7B0AE000BF00EB800301EB83031D
:10546000DB6855FA83F3401C9DB280B29042F3D9B9
:10547000641CA4B2BC42D5D9ED1DE808F0BD000003
:10548000F35900081F5B000802030405060708091A
:105490000A0B0C0D0E0F101001020304050607087D
:1054A000090A0B0C0D0E0F10000400480000040048
:1054B0000080000000000048000002000100000021
:1054C0000000004800000200020000000000004848
:1054D0000000020004000000446576696365205402
:1054E000797065004D616E75666163747572657281
:1054F00020446576696365204E616D65004D616E7F
:105500007566616374757265722048617264776153
:1055100072652056657273696F6E004D616E7566B7
:105520006163747572657220536F6674776172651A
:105530002056657273696F6E004964656E74697494
:1055400079204F626A6563740056656E646F7220DD
:1055500049440050726F6475637420436F64650042
:105560005265766973696F6E204E756D6265720063
:1055700053657269616C204E756D626572004D6194
:1055800070706564206F626A65637400526563655C
:105590006976652050444F206D617070696E6700B8
:1055A0005472616E736D69742050444F206D617048
:1055B00070696E670053796E63204D616E61676537
:1055C0007220436F6D6D756E69636174696F6E20D3
:1055D0007479706500436F6D6D756E696361746990
:1055E0006F6E73207479706520534D3000436F6D7A
:1055F0006D756E69636174696F6E7320747970651F
:1056000020534D3100436F6D6D756E696361746930
:105610006F6E73207479706520534D3200436F6D47
:105620006D756E69636174696F6E732074797065EE
:1056300020534D330053796E63204D616E61676571
:105640007220302050444F2041737369676E6D653E
:105650006E740053796E63204D616E6167657220D0
:10566000312050444F2041737369676E6D656E74CD
:105670000053796E63204D616E6167657220322040
:1056800050444F2041737369676E6D656E740053AB
:10569000796E63204D616E616765722033205044DE
:1056A0004F2041737369676E6D656E74004E756D42
:1056B000626572206F6620656E747269657300445E
:1056C00069676974616C20496E70757473004A6F04
:1056D00079537469636B58004A6F79537469636BCB
:1056E0005900416363656C65726F4D6574657258EE
:1056F00000416363656C65726F4D65746572590036
:10570000416363656C65726F4D657465725A0042E2
:105710007574746F6E4300427574746F6E5A004EE8
:10572000756E436875636B4461746156616C69643E
:10573000004469676974616C206F75747075747367
:10574000004C454400506172616D65746572730070
:10575000536C61766520636F6D6D616E64730000DC
:1057600000070020000700D85400080100000000D6
:1057700000000000000900B8000700E45400080021
:105780000000003C0000200000090020000700FD90
:105790005400080000000053000020000009002011
:1057A0000007001B55000800000000570000200003
:1057B00000050008000700AD5600080400000000C6
:1057C00000000001000700200007004955000859AB
:1057D000090000000000000200070020000700533D
:1057E000550008563478120000000003000700201E
:1057F00000070060550008010000000000000004E0
:10580000000700200007007055000800000000009D
:105810000000000000050008000700AD5600080267
:105820000000000000000001000700200007007ECB
:105830005500080101007000000000020007002070
:105840000007007E5500080700000000000000006F
:1058500000050008000700AD5600080B000000001E
:1058600000000001000700200007007E5500080826
:105870000100600000000002000700200007007E19
:105880005500080802006000000000030007002027
:105890000007007E550008100300600000000004AF
:1058A000000700200007007E55000810040060007B
:1058B00000000005000700200007007E55000810CA
:1058C0000500600000000006000700200007007EC1
:1058D00055000801060060000000000700070020D6
:1058E0000007007E550008070000000000000008C7
:1058F000000700200007007E550008010700600037
:1059000000000009000700200007007E550008077E
:10591000000000000000000A000700200007007ED1
:1059200055000801080060000000000B000700207F
:105930000007007E5500080700000000000000007E
:1059400000050008000700AD560008040000000034
:105950000000000100050008000700D555000801FF
:10596000000000000000000200050008000700ED34
:1059700055000802000000000000000300050008B8
:1059800000070005560008030000000000000004A6
:10599000000500080007001D560008040000000074
:1059A0000000000000050008000700355600080050
:1059B0000000000000000000000500080007005380
:1059C000560008000000000000000000000500086C
:1059D000000700AD560008010000000000000001B3
:1059E000000600100007007E5500080016000000A9
:1059F0000000000000050008000700AD5600080187
:105A00000000000000000001000600100007007EFA
:105A1000550008001A000000000000000005000802
:105A2000000700AD5600080800000000000000015B
:105A300000020008000700CE56000800000000E049
:105A40000700200200020008000700D856000800E6
:105A5000000000E10700200300030010000700E23F
:105A600056000800000000E20700200400030010B8
:105A7000000700F156000800000000E407002005C0
:105A8000000300100007000057000800000000E6B7
:105A900007002006000100010007000F5700080062
:105AA000000000E8070020070001000100070017C0
:105AB00057000800000000E907002008000100016D
:105AC0000007001F57000800000000EA0700200040
:105AD00000050008000700AD5600080100000000A6
